{
  "contractName": "NFT",
  "abi": [
    {
      "inputs": [
        {
          "internalType": "address",
          "name": "_router",
          "type": "address"
        },
        {
          "internalType": "address",
          "name": "_WETH",
          "type": "address"
        }
      ],
      "stateMutability": "nonpayable",
      "type": "constructor"
    },
    {
      "inputs": [],
      "name": "WETH",
      "outputs": [
        {
          "internalType": "address",
          "name": "",
          "type": "address"
        }
      ],
      "stateMutability": "view",
      "type": "function"
    },
    {
      "inputs": [],
      "name": "all",
      "outputs": [
        {
          "internalType": "uint256",
          "name": "",
          "type": "uint256"
        }
      ],
      "stateMutability": "view",
      "type": "function"
    },
    {
      "inputs": [],
      "name": "min",
      "outputs": [
        {
          "internalType": "uint256",
          "name": "",
          "type": "uint256"
        }
      ],
      "stateMutability": "view",
      "type": "function"
    },
    {
      "inputs": [],
      "name": "router",
      "outputs": [
        {
          "internalType": "address",
          "name": "",
          "type": "address"
        }
      ],
      "stateMutability": "view",
      "type": "function"
    },
    {
      "inputs": [
        {
          "internalType": "address",
          "name": "token",
          "type": "address"
        },
        {
          "internalType": "uint256",
          "name": "tokenAmount",
          "type": "uint256"
        },
        {
          "internalType": "uint256",
          "name": "ETHAmount",
          "type": "uint256"
        }
      ],
      "name": "addliquidity",
      "outputs": [],
      "stateMutability": "payable",
      "type": "function"
    }
  ],
  "bytecode": "0x60c060405234801561001057600080fd5b506040516106773803806106778339818101604052604081101561003357600080fd5b8101908080519060200190929190805190602001909291905050508173ffffffffffffffffffffffffffffffffffffffff1660808173ffffffffffffffffffffffffffffffffffffffff1660601b815250508073ffffffffffffffffffffffffffffffffffffffff1660a08173ffffffffffffffffffffffffffffffffffffffff1660601b81525050505060805160601c60a05160601c6105866100f160003980610223528061034d5250806101e6528061037152506105866000f3fe60806040526004361061004a5760003560e01c806310c4e8b01461004f578063a76028961461007a578063ad5c4648146100d2578063f887ea4014610113578063f889794514610154575b600080fd5b34801561005b57600080fd5b5061006461017f565b6040518082815260200191505060405180910390f35b6100d06004803603606081101561009057600080fd5b81019080803573ffffffffffffffffffffffffffffffffffffffff1690602001909291908035906020019092919080359060200190929190505050610185565b005b3480156100de57600080fd5b506100e761034b565b604051808273ffffffffffffffffffffffffffffffffffffffff16815260200191505060405180910390f35b34801561011f57600080fd5b5061012861036f565b604051808273ffffffffffffffffffffffffffffffffffffffff16815260200191505060405180910390f35b34801561016057600080fd5b50610169610393565b6040518082815260200191505060405180910390f35b61271081565b60006101b06127106101a261251c8661039990919063ffffffff16565b61041f90919063ffffffff16565b905060006101dd6127106101cf61251c8661039990919063ffffffff16565b61041f90919063ffffffff16565b905060004290507f000000000000000000000000000000000000000000000000000000000000000073ffffffffffffffffffffffffffffffffffffffff1663e8e33700877f00000000000000000000000000000000000000000000000000000000000000008888888830896040518963ffffffff1660e01b8152600401808973ffffffffffffffffffffffffffffffffffffffff1681526020018873ffffffffffffffffffffffffffffffffffffffff1681526020018781526020018681526020018581526020018481526020018373ffffffffffffffffffffffffffffffffffffffff16815260200182815260200198505050505050505050606060405180830381600087803b1580156102f157600080fd5b505af1158015610305573d6000803e3d6000fd5b505050506040513d606081101561031b57600080fd5b81019080805190602001909291908051906020019092919080519060200190929190505050505050505050505050565b7f000000000000000000000000000000000000000000000000000000000000000081565b7f000000000000000000000000000000000000000000000000000000000000000081565b61251c81565b6000808314156103ac5760009050610419565b60008284029050828482816103bd57fe5b0414610414576040517f08c379a00000000000000000000000000000000000000000000000000000000081526004018080602001828103825260218152602001806105306021913960400191505060405180910390fd5b809150505b92915050565b600061046183836040518060400160405280601a81526020017f536166654d6174683a206469766973696f6e206279207a65726f000000000000815250610469565b905092915050565b60008083118290610515576040517f08c379a00000000000000000000000000000000000000000000000000000000081526004018080602001828103825283818151815260200191508051906020019080838360005b838110156104da5780820151818401526020810190506104bf565b50505050905090810190601f1680156105075780820380516001836020036101000a031916815260200191505b509250505060405180910390fd5b50600083858161052157fe5b04905080915050939250505056fe536166654d6174683a206d756c7469706c69636174696f6e206f766572666c6f77a26469706673582212208bc830cae7069a1081d864be9ce70d93432cb7a641dc081b6c1dd4862d3d420564736f6c634300060c0033",
  "immutableReferences": {
    "42": [
      {
        "length": 32,
        "start": 486
      },
      {
        "length": 32,
        "start": 881
      }
    ],
    "44": [
      {
        "length": 32,
        "start": 547
      },
      {
        "length": 32,
        "start": 845
      }
    ]
  },
  "source": "pragma solidity 0.6.12;\nimport \"./interface/IUniswapV2Router02.sol\";\nimport \"./interface/IWETH.sol\";\nimport \"./interface/INFT.sol\";\nimport \"openzeppelin-solidity/contracts/math/SafeMath.sol\";\n\ncontract NFT is INFT {\n    address public immutable router;\n    address public immutable WETH;\n    uint256 public constant min = 9500;\n    uint256 public constant all = 10000;\n    using SafeMath for uint256;\n\n    constructor(address _router, address _WETH) public {\n        router = _router;\n        WETH = _WETH;\n    }\n\n    function addliquidity(\n        address token,\n        uint256 tokenAmount,\n        uint256 ETHAmount\n    ) public override payable {\n        uint256 amountAMin = tokenAmount.mul(min).div(all);\n        uint256 amountBMin = ETHAmount.mul(min).div(all);\n        uint256 deadline = block.timestamp;\n        IUniswapV2Router02(router).addLiquidity(\n            token,\n            WETH,\n            tokenAmount,\n            ETHAmount,\n            amountAMin,\n            amountBMin,\n            address(this),\n            deadline\n        );\n    }\n}\n",
  "sourcePath": "/Users/admin/myproject/NFT/contracts/NFT.sol",
  "compiler": {
    "name": "solc",
    "version": "0.6.12+commit.27d51765.Emscripten.clang"
  },
  "schemaVersion": "3.2.5",
  "updatedAt": "2020-10-26T13:12:56.979Z",
  "devdoc": {
    "kind": "dev",
    "methods": {},
    "version": 1
  },
  "userdoc": {
    "kind": "user",
    "methods": {},
    "version": 1
  }
}