{
  "contractName": "ShardsMarket",
  "abi": [
    {
      "inputs": [
        {
          "internalType": "address",
          "name": "_WETH",
          "type": "address"
        },
        {
          "internalType": "address",
          "name": "_factory",
          "type": "address"
        }
      ],
      "stateMutability": "nonpayable",
      "type": "constructor"
    },
    {
      "inputs": [
        {
          "internalType": "address",
          "name": "",
          "type": "address"
        }
      ],
      "name": "LPToken",
      "outputs": [
        {
          "internalType": "address",
          "name": "",
          "type": "address"
        }
      ],
      "stateMutability": "view",
      "type": "function"
    },
    {
      "inputs": [],
      "name": "WETH",
      "outputs": [
        {
          "internalType": "address",
          "name": "",
          "type": "address"
        }
      ],
      "stateMutability": "view",
      "type": "function"
    },
    {
      "inputs": [
        {
          "internalType": "address",
          "name": "",
          "type": "address"
        },
        {
          "internalType": "address",
          "name": "",
          "type": "address"
        }
      ],
      "name": "blocked",
      "outputs": [
        {
          "internalType": "uint256",
          "name": "",
          "type": "uint256"
        }
      ],
      "stateMutability": "view",
      "type": "function"
    },
    {
      "inputs": [],
      "name": "buyOutTimes",
      "outputs": [
        {
          "internalType": "uint256",
          "name": "",
          "type": "uint256"
        }
      ],
      "stateMutability": "view",
      "type": "function"
    },
    {
      "inputs": [],
      "name": "max",
      "outputs": [
        {
          "internalType": "uint256",
          "name": "",
          "type": "uint256"
        }
      ],
      "stateMutability": "view",
      "type": "function"
    },
    {
      "inputs": [],
      "name": "passNeeded",
      "outputs": [
        {
          "internalType": "uint256",
          "name": "",
          "type": "uint256"
        }
      ],
      "stateMutability": "view",
      "type": "function"
    },
    {
      "inputs": [
        {
          "internalType": "uint256",
          "name": "",
          "type": "uint256"
        }
      ],
      "name": "poolInfo",
      "outputs": [
        {
          "internalType": "address",
          "name": "creator",
          "type": "address"
        },
        {
          "internalType": "enum ShardsMarket.ShardsState",
          "name": "state",
          "type": "uint8"
        },
        {
          "internalType": "uint256",
          "name": "createTime",
          "type": "uint256"
        },
        {
          "internalType": "address",
          "name": "shardToken",
          "type": "address"
        },
        {
          "internalType": "uint256",
          "name": "balanceOfETH",
          "type": "uint256"
        },
        {
          "internalType": "string",
          "name": "shardName",
          "type": "string"
        },
        {
          "internalType": "string",
          "name": "shardSymbol",
          "type": "string"
        },
        {
          "internalType": "uint256",
          "name": "minPrice",
          "type": "uint256"
        },
        {
          "internalType": "address",
          "name": "nft",
          "type": "address"
        }
      ],
      "stateMutability": "view",
      "type": "function"
    },
    {
      "inputs": [
        {
          "internalType": "uint256",
          "name": "",
          "type": "uint256"
        }
      ],
      "name": "proposalID",
      "outputs": [
        {
          "internalType": "uint256",
          "name": "",
          "type": "uint256"
        }
      ],
      "stateMutability": "view",
      "type": "function"
    },
    {
      "inputs": [
        {
          "internalType": "uint256",
          "name": "",
          "type": "uint256"
        }
      ],
      "name": "proposals",
      "outputs": [
        {
          "internalType": "uint256",
          "name": "votesReceived",
          "type": "uint256"
        },
        {
          "internalType": "uint256",
          "name": "voteTotal",
          "type": "uint256"
        },
        {
          "internalType": "bool",
          "name": "passed",
          "type": "bool"
        },
        {
          "internalType": "address",
          "name": "submitter",
          "type": "address"
        },
        {
          "internalType": "uint256",
          "name": "voteDeadline",
          "type": "uint256"
        },
        {
          "internalType": "uint256",
          "name": "shardAmount",
          "type": "uint256"
        },
        {
          "internalType": "uint256",
          "name": "ETHAmount",
          "type": "uint256"
        }
      ],
      "stateMutability": "view",
      "type": "function"
    },
    {
      "inputs": [],
      "name": "proposolIdCount",
      "outputs": [
        {
          "internalType": "uint256",
          "name": "",
          "type": "uint256"
        }
      ],
      "stateMutability": "view",
      "type": "function"
    },
    {
      "inputs": [
        {
          "internalType": "uint256",
          "name": "",
          "type": "uint256"
        },
        {
          "internalType": "address",
          "name": "",
          "type": "address"
        }
      ],
      "name": "userInfo",
      "outputs": [
        {
          "internalType": "uint256",
          "name": "amount",
          "type": "uint256"
        }
      ],
      "stateMutability": "view",
      "type": "function"
    },
    {
      "inputs": [],
      "name": "voteLenth",
      "outputs": [
        {
          "internalType": "uint256",
          "name": "",
          "type": "uint256"
        }
      ],
      "stateMutability": "view",
      "type": "function"
    },
    {
      "inputs": [
        {
          "internalType": "uint256",
          "name": "",
          "type": "uint256"
        },
        {
          "internalType": "address",
          "name": "",
          "type": "address"
        }
      ],
      "name": "voted",
      "outputs": [
        {
          "internalType": "bool",
          "name": "",
          "type": "bool"
        }
      ],
      "stateMutability": "view",
      "type": "function"
    },
    {
      "inputs": [
        {
          "internalType": "address",
          "name": "nft",
          "type": "address"
        },
        {
          "internalType": "uint256",
          "name": "_tokenId",
          "type": "uint256"
        },
        {
          "internalType": "string",
          "name": "shardName",
          "type": "string"
        },
        {
          "internalType": "string",
          "name": "shardSymbol",
          "type": "string"
        },
        {
          "internalType": "uint256",
          "name": "minPrice",
          "type": "uint256"
        }
      ],
      "name": "CreateShareds",
      "outputs": [],
      "stateMutability": "nonpayable",
      "type": "function"
    },
    {
      "inputs": [
        {
          "internalType": "uint256",
          "name": "_tokenId",
          "type": "uint256"
        },
        {
          "internalType": "uint256",
          "name": "amount",
          "type": "uint256"
        }
      ],
      "name": "Stake",
      "outputs": [],
      "stateMutability": "payable",
      "type": "function"
    },
    {
      "inputs": [
        {
          "internalType": "uint256",
          "name": "_tokenId",
          "type": "uint256"
        },
        {
          "internalType": "uint256",
          "name": "amount",
          "type": "uint256"
        }
      ],
      "name": "Redeem",
      "outputs": [],
      "stateMutability": "payable",
      "type": "function"
    },
    {
      "inputs": [
        {
          "internalType": "uint256",
          "name": "_tokenId",
          "type": "uint256"
        }
      ],
      "name": "SetPrice",
      "outputs": [],
      "stateMutability": "nonpayable",
      "type": "function"
    },
    {
      "inputs": [
        {
          "internalType": "uint256",
          "name": "_tokenId",
          "type": "uint256"
        },
        {
          "internalType": "uint256",
          "name": "ETHAmount",
          "type": "uint256"
        }
      ],
      "name": "BuyOut",
      "outputs": [
        {
          "internalType": "uint256",
          "name": "proposalId",
          "type": "uint256"
        }
      ],
      "stateMutability": "nonpayable",
      "type": "function"
    },
    {
      "inputs": [
        {
          "internalType": "uint256",
          "name": "_tokenId",
          "type": "uint256"
        },
        {
          "internalType": "bool",
          "name": "isAgree",
          "type": "bool"
        }
      ],
      "name": "Vote",
      "outputs": [],
      "stateMutability": "nonpayable",
      "type": "function"
    },
    {
      "inputs": [
        {
          "internalType": "uint256",
          "name": "_tokenId",
          "type": "uint256"
        }
      ],
      "name": "VoteResultComfirm",
      "outputs": [],
      "stateMutability": "nonpayable",
      "type": "function"
    },
    {
      "inputs": [
        {
          "internalType": "uint256",
          "name": "_tokenId",
          "type": "uint256"
        },
        {
          "internalType": "uint256",
          "name": "shardAmount",
          "type": "uint256"
        }
      ],
      "name": "ExchangeForETH",
      "outputs": [
        {
          "internalType": "uint256",
          "name": "ETHAmount",
          "type": "uint256"
        }
      ],
      "stateMutability": "nonpayable",
      "type": "function"
    },
    {
      "inputs": [
        {
          "internalType": "uint256",
          "name": "_tokenId",
          "type": "uint256"
        }
      ],
      "name": "RedeemForBuyoutFailed",
      "outputs": [
        {
          "internalType": "uint256",
          "name": "shardTokenAmount",
          "type": "uint256"
        },
        {
          "internalType": "uint256",
          "name": "ETHAmount",
          "type": "uint256"
        }
      ],
      "stateMutability": "nonpayable",
      "type": "function"
    }
  ],
  "bytecode": "0x60a0604052612710600255600f60085560026009556000600d55604b60135534801561002a57600080fd5b5060405162004d8b38038062004d8b8339818101604052604081101561004f57600080fd5b8101908080519060200190929190805190602001909291905050508173ffffffffffffffffffffffffffffffffffffffff1660808173ffffffffffffffffffffffffffffffffffffffff1660601b8152505080600160006101000a81548173ffffffffffffffffffffffffffffffffffffffff021916908373ffffffffffffffffffffffffffffffffffffffff160217905550505060805160601c614c706200011b60003980611feb528061217652806121f752806124ad5280612c9a52806136225250614c706000f3fe6080604052600436106101355760003560e01c80636ac5db19116100ab578063ad5c46481161006f578063ad5c46481461078c578063be077ee0146107cd578063c9ec05ea1461081c578063e3829d5414610854578063e462b1801461088c578063f57d88df14610a1f57610135565b80636ac5db19146105d757806373de1367146106025780638bfa1f401461067d57806393f1a40b146106c457806395e81ef71461073357610135565b8063451d11d7116100fd578063451d11d71461047f57806348be1535146104aa5780634ac17f83146104d55780634f5539c0146105005780635277b4ae1461053b5780636481ae58146105ac57610135565b8063013cf08b1461013a57806312ff8827146101cb5780631526fe27146102215780631d67ef25146103bf57806330f200d814610444575b600080fd5b34801561014657600080fd5b506101736004803603602081101561015d57600080fd5b8101908080359060200190929190505050610a78565b6040518088815260200187815260200186151581526020018573ffffffffffffffffffffffffffffffffffffffff16815260200184815260200183815260200182815260200197505050505050505060405180910390f35b3480156101d757600080fd5b50610204600480360360208110156101ee57600080fd5b8101908080359060200190929190505050610ae7565b604051808381526020018281526020019250505060405180910390f35b34801561022d57600080fd5b5061025a6004803603602081101561024457600080fd5b8101908080359060200190929190505050610dcd565b604051808a73ffffffffffffffffffffffffffffffffffffffff16815260200189600581111561028657fe5b81526020018881526020018773ffffffffffffffffffffffffffffffffffffffff16815260200186815260200180602001806020018581526020018473ffffffffffffffffffffffffffffffffffffffff168152602001838103835287818151815260200191508051906020019080838360005b838110156103155780820151818401526020810190506102fa565b50505050905090810190601f1680156103425780820380516001836020036101000a031916815260200191505b50838103825286818151815260200191508051906020019080838360005b8381101561037b578082015181840152602081019050610360565b50505050905090810190601f1680156103a85780820380516001836020036101000a031916815260200191505b509b50505050505050505050505060405180910390f35b3480156103cb57600080fd5b5061042e600480360360408110156103e257600080fd5b81019080803573ffffffffffffffffffffffffffffffffffffffff169060200190929190803573ffffffffffffffffffffffffffffffffffffffff169060200190929190505050610fb8565b6040518082815260200191505060405180910390f35b34801561045057600080fd5b5061047d6004803603602081101561046757600080fd5b8101908080359060200190929190505050610fdd565b005b34801561048b57600080fd5b5061049461150d565b6040518082815260200191505060405180910390f35b3480156104b657600080fd5b506104bf611513565b6040518082815260200191505060405180910390f35b3480156104e157600080fd5b506104ea611519565b6040518082815260200191505060405180910390f35b34801561050c57600080fd5b506105396004803603602081101561052357600080fd5b810190808035906020019092919050505061151f565b005b34801561054757600080fd5b506105946004803603604081101561055e57600080fd5b8101908080359060200190929190803573ffffffffffffffffffffffffffffffffffffffff16906020019092919050505061174f565b60405180821515815260200191505060405180910390f35b3480156105b857600080fd5b506105c161177e565b6040518082815260200191505060405180910390f35b3480156105e357600080fd5b506105ec611784565b6040518082815260200191505060405180910390f35b34801561060e57600080fd5b506106516004803603602081101561062557600080fd5b81019080803573ffffffffffffffffffffffffffffffffffffffff169060200190929190505050611789565b604051808273ffffffffffffffffffffffffffffffffffffffff16815260200191505060405180910390f35b34801561068957600080fd5b506106c2600480360360408110156106a057600080fd5b81019080803590602001909291908035151590602001909291905050506117bc565b005b3480156106d057600080fd5b5061071d600480360360408110156106e757600080fd5b8101908080359060200190929190803573ffffffffffffffffffffffffffffffffffffffff169060200190929190505050611d14565b6040518082815260200191505060405180910390f35b34801561073f57600080fd5b506107766004803603604081101561075657600080fd5b810190808035906020019092919080359060200190929190505050611d3f565b6040518082815260200191505060405180910390f35b34801561079857600080fd5b506107a1611fe9565b604051808273ffffffffffffffffffffffffffffffffffffffff16815260200191505060405180910390f35b3480156107d957600080fd5b50610806600480360360208110156107f057600080fd5b810190808035906020019092919050505061200d565b6040518082815260200191505060405180910390f35b6108526004803603604081101561083257600080fd5b810190808035906020019092919080359060200190929190505050612025565b005b61088a6004803603604081101561086a57600080fd5b81019080803590602001909291908035906020019092919050505061235c565b005b34801561089857600080fd5b50610a1d600480360360a08110156108af57600080fd5b81019080803573ffffffffffffffffffffffffffffffffffffffff16906020019092919080359060200190929190803590602001906401000000008111156108f657600080fd5b82018360208201111561090857600080fd5b8035906020019184600183028401116401000000008311171561092a57600080fd5b91908080601f016020809104026020016040519081016040528093929190818152602001838380828437600081840152601f19601f8201169050808301925050505050505091929192908035906020019064010000000081111561098d57600080fd5b82018360208201111561099f57600080fd5b803590602001918460018302840111640100000000831117156109c157600080fd5b91908080601f016020809104026020016040519081016040528093929190818152602001838380828437600081840152601f19601f820116905080830192505050505050509192919290803590602001909291905050506125d5565b005b348015610a2b57600080fd5b50610a6260048036036040811015610a4257600080fd5b8101908080359060200190929190803590602001909291905050506129ac565b6040518082815260200191505060405180910390f35b60106020528060005260406000206000915090508060000154908060010154908060020160009054906101000a900460ff16908060020160019054906101000a900473ffffffffffffffffffffffffffffffffffffffff16908060030154908060040154908060050154905087565b6000806000600f6000858152602001908152602001600020549050610b0a613c07565b601060008381526020019081526020016000206040518060e001604052908160008201548152602001600182015481526020016002820160009054906101000a900460ff161515151581526020016002820160019054906101000a900473ffffffffffffffffffffffffffffffffffffffff1673ffffffffffffffffffffffffffffffffffffffff1673ffffffffffffffffffffffffffffffffffffffff16815260200160038201548152602001600482015481526020016005820154815250509050806060015173ffffffffffffffffffffffffffffffffffffffff163373ffffffffffffffffffffffffffffffffffffffff1614610c72576040517f08c379a000000000000000000000000000000000000000000000000000000000815260040180806020018281038252600c8152602001807f554e415554484f52495a4544000000000000000000000000000000000000000081525060200191505060405180910390fd5b60046005811115610c7f57fe5b600a600087815260200190815260200160002060000160149054906101000a900460ff166005811115610cae57fe5b148015610cc357506000151581604001511515145b610d35576040517f08c379a000000000000000000000000000000000000000000000000000000000815260040180806020018281038252600b8152602001807f57524f4e475f535441544500000000000000000000000000000000000000000081525060200191505060405180910390fd5b610d7a600a600087815260200190815260200160002060020160009054906101000a900473ffffffffffffffffffffffffffffffffffffffff16338360a00151612fb1565b610d88338260c00151613194565b60006005811115610d9557fe5b600a600087815260200190815260200160002060000160149054906101000a900460ff166005811115610dc457fe5b50505050915091565b600a6020528060005260406000206000915090508060000160009054906101000a900473ffffffffffffffffffffffffffffffffffffffff16908060000160149054906101000a900460ff16908060010154908060020160009054906101000a900473ffffffffffffffffffffffffffffffffffffffff1690806003015490806004018054600181600116156101000203166002900480601f016020809104026020016040519081016040528092919081815260200182805460018160011615610100020316600290048015610ee45780601f10610eb957610100808354040283529160200191610ee4565b820191906000526020600020905b815481529060010190602001808311610ec757829003601f168201915b505050505090806005018054600181600116156101000203166002900480601f016020809104026020016040519081016040528092919081815260200182805460018160011615610100020316600290048015610f825780601f10610f5757610100808354040283529160200191610f82565b820191906000526020600020905b815481529060010190602001808311610f6557829003601f168201915b5050505050908060060154908060070160009054906101000a900473ffffffffffffffffffffffffffffffffffffffff16905089565b6012602052816000526040600020602052806000526040600020600091509150505481565b6000600f6000838152602001908152602001600020549050610ffd613c07565b601060008381526020019081526020016000206040518060e001604052908160008201548152602001600182015481526020016002820160009054906101000a900460ff161515151581526020016002820160019054906101000a900473ffffffffffffffffffffffffffffffffffffffff1673ffffffffffffffffffffffffffffffffffffffff1673ffffffffffffffffffffffffffffffffffffffff16815260200160038201548152602001600482015481526020016005820154815250509050806060015173ffffffffffffffffffffffffffffffffffffffff163373ffffffffffffffffffffffffffffffffffffffff1614611165576040517f08c379a000000000000000000000000000000000000000000000000000000000815260040180806020018281038252600c8152602001807f554e415554484f52495a4544000000000000000000000000000000000000000081525060200191505060405180910390fd5b80608001514210156111df576040517f08c379a00000000000000000000000000000000000000000000000000000000081526004018080602001828103825260098152602001807f4e4f54205245414459000000000000000000000000000000000000000000000081525060200191505060405180910390fd5b600260058111156111ec57fe5b600a600085815260200190815260200160002060000160149054906101000a900460ff16600581111561121b57fe5b1461128e576040517f08c379a000000000000000000000000000000000000000000000000000000000815260040180806020018281038252600b8152602001807f57524f4e475f535441544500000000000000000000000000000000000000000081525060200191505060405180910390fd5b6112ba60646112ac60135484602001516132f390919063ffffffff16565b61337990919063ffffffff16565b8160000151106114b8576001816040019015159081151581525050600360058111156112e257fe5b600a600085815260200190815260200160002060000160149054906101000a900460ff16600581111561131157fe5b5050600a600084815260200190815260200160002060020160009054906101000a900473ffffffffffffffffffffffffffffffffffffffff1673ffffffffffffffffffffffffffffffffffffffff16639dc29fac338360a001516040518363ffffffff1660e01b8152600401808373ffffffffffffffffffffffffffffffffffffffff16815260200182815260200192505050600060405180830381600087803b1580156113be57600080fd5b505af11580156113d2573d6000803e3d6000fd5b50505050600a600084815260200190815260200160002060070160009054906101000a900473ffffffffffffffffffffffffffffffffffffffff1673ffffffffffffffffffffffffffffffffffffffff166342842e0e3033866040518463ffffffff1660e01b8152600401808473ffffffffffffffffffffffffffffffffffffffff1681526020018373ffffffffffffffffffffffffffffffffffffffff1681526020018281526020019350505050600060405180830381600087803b15801561149b57600080fd5b505af11580156114af573d6000803e3d6000fd5b50505050611508565b6000816040019015159081151581525050600460058111156114d657fe5b600a600085815260200190815260200160002060000160149054906101000a900460ff16600581111561150557fe5b50505b505050565b60135481565b60095481565b600e5481565b61154a600554600a6000848152602001908152602001600020600101546133c390919063ffffffff16565b4210156115bf576040517f08c379a000000000000000000000000000000000000000000000000000000000815260040180806020018281038252600d8152602001807f4e46543a4e4f542052454144590000000000000000000000000000000000000081525060200191505060405180910390fd5b600060058111156115cc57fe5b600a600083815260200190815260200160002060000160149054906101000a900460ff1660058111156115fb57fe5b1461166e576040517f08c379a000000000000000000000000000000000000000000000000000000000815260040180806020018281038252601a8152602001807f4e46543a4c49564520535441544520495320524551554952454400000000000081525060200191505060405180910390fd5b600a600082815260200190815260200160002060060154600a60008381526020019081526020016000206003015410156116b0576116ab8161344b565b61174c565b6116b98161348b565b600a600083815260200190815260200160002060020160006101000a81548173ffffffffffffffffffffffffffffffffffffffff021916908373ffffffffffffffffffffffffffffffffffffffff1602179055506001600581111561171a57fe5b600a600083815260200190815260200160002060000160149054906101000a900460ff16600581111561174957fe5b50505b50565b60116020528160005260406000206020528060005260406000206000915091509054906101000a900460ff1681565b600d5481565b606481565b600c6020528060005260406000206000915054906101000a900473ffffffffffffffffffffffffffffffffffffffff1681565b6000600a600084815260200190815260200160002060020160009054906101000a900473ffffffffffffffffffffffffffffffffffffffff1673ffffffffffffffffffffffffffffffffffffffff166370a08231336040518263ffffffff1660e01b8152600401808273ffffffffffffffffffffffffffffffffffffffff16815260200191505060206040518083038186803b15801561185b57600080fd5b505afa15801561186f573d6000803e3d6000fd5b505050506040513d602081101561188557600080fd5b81019080805190602001909291905050509050600081101561190f576040517f08c379a00000000000000000000000000000000000000000000000000000000081526004018080602001828103825260168152602001807f494e53554646494349454e545f564f544552494748540000000000000000000081525060200191505060405180910390fd5b6002600581111561191c57fe5b600a600085815260200190815260200160002060000160149054906101000a900460ff16600581111561194b57fe5b146119be576040517f08c379a000000000000000000000000000000000000000000000000000000000815260040180806020018281038252600b8152602001807f57524f4e475f535441544500000000000000000000000000000000000000000081525060200191505060405180910390fd5b6000600f60008581526020019081526020016000205490506119de613c07565b601060008381526020019081526020016000206040518060e001604052908160008201548152602001600182015481526020016002820160009054906101000a900460ff161515151581526020016002820160019054906101000a900473ffffffffffffffffffffffffffffffffffffffff1673ffffffffffffffffffffffffffffffffffffffff1673ffffffffffffffffffffffffffffffffffffffff168152602001600382015481526020016004820154815260200160058201548152505090508060800151421115611b1b576040517f08c379a00000000000000000000000000000000000000000000000000000000081526004018080602001828103825260078152602001807f455850495245440000000000000000000000000000000000000000000000000081525060200191505060405180910390fd5b600015156011600084815260200190815260200160002060003373ffffffffffffffffffffffffffffffffffffffff1673ffffffffffffffffffffffffffffffffffffffff16815260200190815260200160002060009054906101000a900460ff16151514611b8957600080fd5b8160126000600a600089815260200190815260200160002060020160009054906101000a900473ffffffffffffffffffffffffffffffffffffffff1673ffffffffffffffffffffffffffffffffffffffff1673ffffffffffffffffffffffffffffffffffffffff16815260200190815260200160002060003373ffffffffffffffffffffffffffffffffffffffff1673ffffffffffffffffffffffffffffffffffffffff16815260200190815260200160002081905550600115156011600084815260200190815260200160002060003373ffffffffffffffffffffffffffffffffffffffff1673ffffffffffffffffffffffffffffffffffffffff16815260200190815260200160002060009054906101000a905050508315611cec57611cbe8382600001516133c390919063ffffffff16565b816000018181525050611cde8382602001516133c390919063ffffffff16565b816020018181525050611d0d565b611d038382602001516133c390919063ffffffff16565b8160200181815250505b5050505050565b600b602052816000526040600020602052806000526040600020600091509150508060000154905081565b600080600f6000858152602001908152602001600020549050611d60613c07565b601060008381526020019081526020016000206040518060e001604052908160008201548152602001600182015481526020016002820160009054906101000a900460ff161515151581526020016002820160019054906101000a900473ffffffffffffffffffffffffffffffffffffffff1673ffffffffffffffffffffffffffffffffffffffff1673ffffffffffffffffffffffffffffffffffffffff1681526020016003820154815260200160048201548152602001600582015481525050905060036005811115611e3057fe5b600a600087815260200190815260200160002060000160149054906101000a900460ff166005811115611e5f57fe5b14611ed2576040517f08c379a000000000000000000000000000000000000000000000000000000000815260040180806020018281038252600b8152602001807f57524f4e475f535441544500000000000000000000000000000000000000000081525060200191505060405180910390fd5b600a600086815260200190815260200160002060020160009054906101000a900473ffffffffffffffffffffffffffffffffffffffff1673ffffffffffffffffffffffffffffffffffffffff16639dc29fac33866040518363ffffffff1660e01b8152600401808373ffffffffffffffffffffffffffffffffffffffff16815260200182815260200192505050600060405180830381600087803b158015611f7957600080fd5b505af1158015611f8d573d6000803e3d6000fd5b505050506000611fd4611faf8360a0015160025461355e90919063ffffffff16565b611fc68460c00151886132f390919063ffffffff16565b61337990919063ffffffff16565b9050611fe03382613194565b50505092915050565b7f000000000000000000000000000000000000000000000000000000000000000081565b600f6020528060005260406000206000915090505481565b612050600454600a6000858152602001908152602001600020600101546133c390919063ffffffff16565b4211156120c5576040517f08c379a000000000000000000000000000000000000000000000000000000000815260040180806020018281038252600b8152602001807f4e46543a4558504952454400000000000000000000000000000000000000000081525060200191505060405180910390fd5b600060058111156120d257fe5b600a600084815260200190815260200160002060000160149054906101000a900460ff16600581111561210157fe5b14612174576040517f08c379a000000000000000000000000000000000000000000000000000000000815260040180806020018281038252601a8152602001807f4e46543a4c49564520535441544520495320524551554952454400000000000081525060200191505060405180910390fd5b7f000000000000000000000000000000000000000000000000000000000000000073ffffffffffffffffffffffffffffffffffffffff1663d0e30db0826040518263ffffffff1660e01b81526004016000604051808303818588803b1580156121dc57600080fd5b505af11580156121f0573d6000803e3d6000fd5b50505050507f000000000000000000000000000000000000000000000000000000000000000073ffffffffffffffffffffffffffffffffffffffff1663a9059cbb30836040518363ffffffff1660e01b8152600401808373ffffffffffffffffffffffffffffffffffffffff16815260200182815260200192505050602060405180830381600087803b15801561228657600080fd5b505af115801561229a573d6000803e3d6000fd5b505050506040513d60208110156122b057600080fd5b81019080805190602001909291905050506122c757fe5b61232d81600b600085815260200190815260200160002060003373ffffffffffffffffffffffffffffffffffffffff1673ffffffffffffffffffffffffffffffffffffffff168152602001908152602001600020600001546133c390919063ffffffff16565b5061235781600a6000858152602001908152602001600020600301546133c390919063ffffffff16565b505050565b612387600554600a6000858152602001908152602001600020600101546133c390919063ffffffff16565b4211156123fc576040517f08c379a000000000000000000000000000000000000000000000000000000000815260040180806020018281038252600b8152602001807f4e46543a4558504952454400000000000000000000000000000000000000000081525060200191505060405180910390fd5b6000600581111561240957fe5b600a600084815260200190815260200160002060000160149054906101000a900460ff16600581111561243857fe5b146124ab576040517f08c379a000000000000000000000000000000000000000000000000000000000815260040180806020018281038252601a8152602001807f4e46543a4c49564520535441544520495320524551554952454400000000000081525060200191505060405180910390fd5b7f000000000000000000000000000000000000000000000000000000000000000073ffffffffffffffffffffffffffffffffffffffff16632e1a7d4d826040518263ffffffff1660e01b815260040180828152602001915050600060405180830381600087803b15801561251e57600080fd5b505af1158015612532573d6000803e3d6000fd5b505050506125403382613194565b6125a681600b600085815260200190815260200160002060003373ffffffffffffffffffffffffffffffffffffffff1673ffffffffffffffffffffffffffffffffffffffff1681526020019081526020016000206000015461355e90919063ffffffff16565b506125d081600a60008581526020019081526020016000206003015461355e90919063ffffffff16565b505050565b3373ffffffffffffffffffffffffffffffffffffffff168573ffffffffffffffffffffffffffffffffffffffff16636352211e866040518263ffffffff1660e01b81526004018082815260200191505060206040518083038186803b15801561263d57600080fd5b505afa158015612651573d6000803e3d6000fd5b505050506040513d602081101561266757600080fd5b810190808051906020019092919050505073ffffffffffffffffffffffffffffffffffffffff1614612701576040517f08c379a000000000000000000000000000000000000000000000000000000000815260040180806020018281038252600c8152602001807f554e415554484f52495a4544000000000000000000000000000000000000000081525060200191505060405180910390fd5b8473ffffffffffffffffffffffffffffffffffffffff166342842e0e3330876040518463ffffffff1660e01b8152600401808473ffffffffffffffffffffffffffffffffffffffff1681526020018373ffffffffffffffffffffffffffffffffffffffff1681526020018281526020019350505050600060405180830381600087803b15801561279057600080fd5b505af11580156127a4573d6000803e3d6000fd5b505050506040518061012001604052803373ffffffffffffffffffffffffffffffffffffffff168152602001600060058111156127dd57fe5b8152602001428152602001600073ffffffffffffffffffffffffffffffffffffffff168152602001600081526020018481526020018381526020018281526020018673ffffffffffffffffffffffffffffffffffffffff16815250600a600086815260200190815260200160002060008201518160000160006101000a81548173ffffffffffffffffffffffffffffffffffffffff021916908373ffffffffffffffffffffffffffffffffffffffff16021790555060208201518160000160146101000a81548160ff021916908360058111156128b657fe5b02179055506040820151816001015560608201518160020160006101000a81548173ffffffffffffffffffffffffffffffffffffffff021916908373ffffffffffffffffffffffffffffffffffffffff1602179055506080820151816003015560a0820151816004019080519060200190612932929190613c5c565b5060c082015181600501908051906020019061294f929190613c5c565b5060e082015181600601556101008201518160070160006101000a81548173ffffffffffffffffffffffffffffffffffffffff021916908373ffffffffffffffffffffffffffffffffffffffff1602179055509050505050505050565b600080600a600085815260200190815260200160002060020160009054906101000a900473ffffffffffffffffffffffffffffffffffffffff1673ffffffffffffffffffffffffffffffffffffffff166370a08231336040518263ffffffff1660e01b8152600401808273ffffffffffffffffffffffffffffffffffffffff16815260200191505060206040518083038186803b158015612a4c57600080fd5b505afa158015612a60573d6000803e3d6000fd5b505050506040513d6020811015612a7657600080fd5b81019080805190602001909291905050509050612ab36064612aa56008546002546132f390919063ffffffff16565b61337990919063ffffffff16565b811015612b28576040517f08c379a00000000000000000000000000000000000000000000000000000000081526004018080602001828103825260158152602001807f496e7375666669656e74207368617264546f6b656e000000000000000000000081525060200191505060405180910390fd5b60006005811115612b3557fe5b600a600086815260200190815260200160002060000160149054906101000a900460ff166005811115612b6457fe5b14612bd7576040517f08c379a00000000000000000000000000000000000000000000000000000000081526004018080602001828103825260148152602001807f53746174652073686f756c64206265204c69766500000000000000000000000081525060200191505060405180910390fd5b6000612be2856135a8565b9050612c2081612c12600254612c04600854606461355e90919063ffffffff16565b6132f390919063ffffffff16565b6132f390919063ffffffff16565b841015612c95576040517f08c379a00000000000000000000000000000000000000000000000000000000081526004018080602001828103825260168152602001807f494e53554646494349454e545f455448414d4f554e540000000000000000000081525060200191505060405180910390fd5b612cc17f00000000000000000000000000000000000000000000000000000000000000003330876137b8565b612d03600a600087815260200190815260200160002060020160009054906101000a900473ffffffffffffffffffffffffffffffffffffffff163330856137b8565b6000600d541415612d17576001600d819055505b600d5492506040518060e0016040528060008152602001600081526020016000151581526020013373ffffffffffffffffffffffffffffffffffffffff168152602001612d6f600e54426133c390919063ffffffff16565b81526020018381526020018581525060106000600d548152602001908152602001600020600082015181600001556020820151816001015560408201518160020160006101000a81548160ff02191690831515021790555060608201518160020160016101000a81548173ffffffffffffffffffffffffffffffffffffffff021916908373ffffffffffffffffffffffffffffffffffffffff1602179055506080820151816003015560a0820151816004015560c082015181600501559050508260126000600a600089815260200190815260200160002060020160009054906101000a900473ffffffffffffffffffffffffffffffffffffffff1673ffffffffffffffffffffffffffffffffffffffff1673ffffffffffffffffffffffffffffffffffffffff16815260200190815260200160002060003373ffffffffffffffffffffffffffffffffffffffff1673ffffffffffffffffffffffffffffffffffffffff1681526020019081526020016000208190555060016011600085815260200190815260200160002060003373ffffffffffffffffffffffffffffffffffffffff1673ffffffffffffffffffffffffffffffffffffffff16815260200190815260200160002060006101000a81548160ff021916908315150217905550612f656001600d546133c390919063ffffffff16565b600d8190555060026005811115612f7857fe5b600a600087815260200190815260200160002060000160149054906101000a900460ff166005811115612fa757fe5b5050505092915050565b600060608473ffffffffffffffffffffffffffffffffffffffff1663a9059cbb8585604051602401808373ffffffffffffffffffffffffffffffffffffffff168152602001828152602001925050506040516020818303038152906040529060e01b6020820180517bffffffffffffffffffffffffffffffffffffffffffffffffffffffff83818316178352505050506040518082805190602001908083835b602083106130745780518252602082019150602081019050602083039250613051565b6001836020036101000a0380198251168184511680821785525050505050509050019150506000604051808303816000865af19150503d80600081146130d6576040519150601f19603f3d011682016040523d82523d6000602084013e6130db565b606091505b509150915081801561311b575060008151148061311a575080806020019051602081101561310857600080fd5b81019080805190602001909291905050505b5b61318d576040517f08c379a000000000000000000000000000000000000000000000000000000000815260040180806020018281038252601f8152602001807f5472616e7366657248656c7065723a205452414e534645525f4641494c45440081525060200191505060405180910390fd5b5050505050565b60008273ffffffffffffffffffffffffffffffffffffffff1682600067ffffffffffffffff811180156131c657600080fd5b506040519080825280601f01601f1916602001820160405280156131f95781602001600182028036833780820191505090505b506040518082805190602001908083835b6020831061322d578051825260208201915060208101905060208303925061320a565b6001836020036101000a03801982511681845116808217855250505050505090500191505060006040518083038185875af1925050503d806000811461328f576040519150601f19603f3d011682016040523d82523d6000602084013e613294565b606091505b50509050806132ee576040517f08c379a0000000000000000000000000000000000000000000000000000000008152600401808060200182810382526023815260200180614bf46023913960400191505060405180910390fd5b505050565b6000808314156133065760009050613373565b600082840290508284828161331757fe5b041461336e576040517f08c379a0000000000000000000000000000000000000000000000000000000008152600401808060200182810382526021815260200180614bae6021913960400191505060405180910390fd5b809150505b92915050565b60006133bb83836040518060400160405280601a81526020017f536166654d6174683a206469766973696f6e206279207a65726f00000000000081525061399d565b905092915050565b600080828401905083811015613441576040517f08c379a000000000000000000000000000000000000000000000000000000000815260040180806020018281038252601b8152602001807f536166654d6174683a206164646974696f6e206f766572666c6f77000000000081525060200191505060405180910390fd5b8091505092915050565b60058081111561345757fe5b600a600083815260200190815260200160002060000160149054906101000a900460ff16600581111561348657fe5b505050565b600060606040518060200161349f90613cdc565b6020820181038252601f19601f82011660405250905060008360405160200180828152602001915050604051602081830303815290604052805190602001209050808251602084016000f592508273ffffffffffffffffffffffffffffffffffffffff1663fe4b84df856040518263ffffffff1660e01b815260040180828152602001915050600060405180830381600087803b15801561353f57600080fd5b505af1158015613553573d6000803e3d6000fd5b505050505050919050565b60006135a083836040518060400160405280601e81526020017f536166654d6174683a207375627472616374696f6e206f766572666c6f770000815250613a63565b905092915050565b600080600160009054906101000a900473ffffffffffffffffffffffffffffffffffffffff1673ffffffffffffffffffffffffffffffffffffffff1663e6a43905600a600086815260200190815260200160002060020160009054906101000a900473ffffffffffffffffffffffffffffffffffffffff167f00000000000000000000000000000000000000000000000000000000000000006040518363ffffffff1660e01b8152600401808373ffffffffffffffffffffffffffffffffffffffff1681526020018273ffffffffffffffffffffffffffffffffffffffff1681526020019250505060206040518083038186803b1580156136a857600080fd5b505afa1580156136bc573d6000803e3d6000fd5b505050506040513d60208110156136d257600080fd5b810190808051906020019092919050505090506000808273ffffffffffffffffffffffffffffffffffffffff16630902f1ac6040518163ffffffff1660e01b815260040160606040518083038186803b15801561372e57600080fd5b505afa158015613742573d6000803e3d6000fd5b505050506040513d606081101561375857600080fd5b8101908080519060200190929190805190602001909291908051906020019092919050505050915091506137ae6001826dffffffffffffffffffffffffffff16846dffffffffffffffffffffffffffff16613b23565b9350505050919050565b600060608573ffffffffffffffffffffffffffffffffffffffff166323b872dd868686604051602401808473ffffffffffffffffffffffffffffffffffffffff1681526020018373ffffffffffffffffffffffffffffffffffffffff16815260200182815260200193505050506040516020818303038152906040529060e01b6020820180517bffffffffffffffffffffffffffffffffffffffffffffffffffffffff83818316178352505050506040518082805190602001908083835b602083106138995780518252602082019150602081019050602083039250613876565b6001836020036101000a0380198251168184511680821785525050505050509050019150506000604051808303816000865af19150503d80600081146138fb576040519150601f19603f3d011682016040523d82523d6000602084013e613900565b606091505b5091509150818015613940575060008151148061393f575080806020019051602081101561392d57600080fd5b81019080805190602001909291905050505b5b613995576040517f08c379a0000000000000000000000000000000000000000000000000000000008152600401808060200182810382526024815260200180614c176024913960400191505060405180910390fd5b505050505050565b60008083118290613a49576040517f08c379a00000000000000000000000000000000000000000000000000000000081526004018080602001828103825283818151815260200191508051906020019080838360005b83811015613a0e5780820151818401526020810190506139f3565b50505050905090810190601f168015613a3b5780820380516001836020036101000a031916815260200191505b509250505060405180910390fd5b506000838581613a5557fe5b049050809150509392505050565b6000838311158290613b10576040517f08c379a00000000000000000000000000000000000000000000000000000000081526004018080602001828103825283818151815260200191508051906020019080838360005b83811015613ad5578082015181840152602081019050613aba565b50505050905090810190601f168015613b025780820380516001836020036101000a031916815260200191505b509250505060405180910390fd5b5060008385039050809150509392505050565b6000808411613b7d576040517f08c379a0000000000000000000000000000000000000000000000000000000008152600401808060200182810382526025815260200180614bcf6025913960400191505060405180910390fd5b600083118015613b8d5750600082115b613be2576040517f08c379a0000000000000000000000000000000000000000000000000000000008152600401808060200182810382526028815260200180614b866028913960400191505060405180910390fd5b82613bf683866132f390919063ffffffff16565b81613bfd57fe5b0490509392505050565b6040518060e001604052806000815260200160008152602001600015158152602001600073ffffffffffffffffffffffffffffffffffffffff1681526020016000815260200160008152602001600081525090565b828054600181600116156101000203166002900490600052602060002090601f016020900481019282601f10613c9d57805160ff1916838001178555613ccb565b82800160010185558215613ccb579182015b82811115613cca578251825591602001919060010190613caf565b5b509050613cd89190613ce9565b5090565b610e7f80613d0783390190565b5b80821115613d02576000816000905550600101613cea565b509056fe608060405234801561001057600080fd5b5033600460006101000a81548173ffffffffffffffffffffffffffffffffffffffff021916908373ffffffffffffffffffffffffffffffffffffffff160217905550610e1e806100616000396000f3fe608060405234801561001057600080fd5b50600436106100cf5760003560e01c806370a082311161008c5780639dc29fac116100665780639dc29fac146103ab578063a9059cbb146103f9578063dd62ed3e1461045d578063fe4b84df146104d5576100cf565b806370a082311461029c57806380f55605146102f457806395d89b4114610328576100cf565b806306fdde03146100d4578063095ea7b31461015757806317d70f7c146101bb57806318160ddd146101d957806323b872dd146101f7578063313ce5671461027b575b600080fd5b6100dc610503565b6040518080602001828103825283818151815260200191508051906020019080838360005b8381101561011c578082015181840152602081019050610101565b50505050905090810190601f1680156101495780820380516001836020036101000a031916815260200191505b509250505060405180910390f35b6101a36004803603604081101561016d57600080fd5b81019080803573ffffffffffffffffffffffffffffffffffffffff1690602001909291908035906020019092919050505061053c565b60405180821515815260200191505060405180910390f35b6101c3610553565b6040518082815260200191505060405180910390f35b6101e1610559565b6040518082815260200191505060405180910390f35b6102636004803603606081101561020d57600080fd5b81019080803573ffffffffffffffffffffffffffffffffffffffff169060200190929190803573ffffffffffffffffffffffffffffffffffffffff1690602001909291908035906020019092919050505061055f565b60405180821515815260200191505060405180910390f35b61028361072a565b604051808260ff16815260200191505060405180910390f35b6102de600480360360208110156102b257600080fd5b81019080803573ffffffffffffffffffffffffffffffffffffffff16906020019092919050505061072f565b6040518082815260200191505060405180910390f35b6102fc610747565b604051808273ffffffffffffffffffffffffffffffffffffffff16815260200191505060405180910390f35b61033061076d565b6040518080602001828103825283818151815260200191508051906020019080838360005b83811015610370578082015181840152602081019050610355565b50505050905090810190601f16801561039d5780820380516001836020036101000a031916815260200191505b509250505060405180910390f35b6103f7600480360360408110156103c157600080fd5b81019080803573ffffffffffffffffffffffffffffffffffffffff169060200190929190803590602001909291905050506107a6565b005b6104456004803603604081101561040f57600080fd5b81019080803573ffffffffffffffffffffffffffffffffffffffff169060200190929190803590602001909291905050506107b4565b60405180821515815260200191505060405180910390f35b6104bf6004803603604081101561047357600080fd5b81019080803573ffffffffffffffffffffffffffffffffffffffff169060200190929190803573ffffffffffffffffffffffffffffffffffffffff1690602001909291905050506107cb565b6040518082815260200191505060405180910390f35b610501600480360360208110156104eb57600080fd5b81019080803590602001909291905050506107f0565b005b6040518060400160405280600681526020017f4e4654205631000000000000000000000000000000000000000000000000000081525081565b60006105493384846108bd565b6001905092915050565b60035481565b60005481565b60007fffffffffffffffffffffffffffffffffffffffffffffffffffffffffffffffff600260008673ffffffffffffffffffffffffffffffffffffffff1673ffffffffffffffffffffffffffffffffffffffff16815260200190815260200160002060003373ffffffffffffffffffffffffffffffffffffffff1673ffffffffffffffffffffffffffffffffffffffff16815260200190815260200160002054146107145761069382600260008773ffffffffffffffffffffffffffffffffffffffff1673ffffffffffffffffffffffffffffffffffffffff16815260200190815260200160002060003373ffffffffffffffffffffffffffffffffffffffff1673ffffffffffffffffffffffffffffffffffffffff168152602001908152602001600020546109a890919063ffffffff16565b600260008673ffffffffffffffffffffffffffffffffffffffff1673ffffffffffffffffffffffffffffffffffffffff16815260200190815260200160002060003373ffffffffffffffffffffffffffffffffffffffff1673ffffffffffffffffffffffffffffffffffffffff168152602001908152602001600020819055505b61071f8484846109f2565b600190509392505050565b601281565b60016020528060005260406000206000915090505481565b600460009054906101000a900473ffffffffffffffffffffffffffffffffffffffff1681565b6040518060400160405280600681526020017f4e46542d5631000000000000000000000000000000000000000000000000000081525081565b6107b08282610b86565b5050565b60006107c13384846109f2565b6001905092915050565b6002602052816000526040600020602052806000526040600020600091509150505481565b600460009054906101000a900473ffffffffffffffffffffffffffffffffffffffff1673ffffffffffffffffffffffffffffffffffffffff163373ffffffffffffffffffffffffffffffffffffffff16146108b3576040517f08c379a00000000000000000000000000000000000000000000000000000000081526004018080602001828103825260098152602001807f464f5242494444454e000000000000000000000000000000000000000000000081525060200191505060405180910390fd5b8060038190555050565b80600260008573ffffffffffffffffffffffffffffffffffffffff1673ffffffffffffffffffffffffffffffffffffffff16815260200190815260200160002060008473ffffffffffffffffffffffffffffffffffffffff1673ffffffffffffffffffffffffffffffffffffffff168152602001908152602001600020819055508173ffffffffffffffffffffffffffffffffffffffff168373ffffffffffffffffffffffffffffffffffffffff167f8c5be1e5ebec7d5bd14f71427d1e84f3dd0314c0f7b2291e5b200ac8c7c3b925836040518082815260200191505060405180910390a3505050565b60006109ea83836040518060400160405280601e81526020017f536166654d6174683a207375627472616374696f6e206f766572666c6f770000815250610ca0565b905092915050565b610a4481600160008673ffffffffffffffffffffffffffffffffffffffff1673ffffffffffffffffffffffffffffffffffffffff168152602001908152602001600020546109a890919063ffffffff16565b600160008573ffffffffffffffffffffffffffffffffffffffff1673ffffffffffffffffffffffffffffffffffffffff16815260200190815260200160002081905550610ad981600160008573ffffffffffffffffffffffffffffffffffffffff1673ffffffffffffffffffffffffffffffffffffffff16815260200190815260200160002054610d6090919063ffffffff16565b600160008473ffffffffffffffffffffffffffffffffffffffff1673ffffffffffffffffffffffffffffffffffffffff168152602001908152602001600020819055508173ffffffffffffffffffffffffffffffffffffffff168373ffffffffffffffffffffffffffffffffffffffff167fddf252ad1be2c89b69c2b068fc378daa952ba7f163c4a11628f55a4df523b3ef836040518082815260200191505060405180910390a3505050565b610bd881600160008573ffffffffffffffffffffffffffffffffffffffff1673ffffffffffffffffffffffffffffffffffffffff168152602001908152602001600020546109a890919063ffffffff16565b600160008473ffffffffffffffffffffffffffffffffffffffff1673ffffffffffffffffffffffffffffffffffffffff16815260200190815260200160002081905550610c30816000546109a890919063ffffffff16565b600081905550600073ffffffffffffffffffffffffffffffffffffffff168273ffffffffffffffffffffffffffffffffffffffff167fddf252ad1be2c89b69c2b068fc378daa952ba7f163c4a11628f55a4df523b3ef836040518082815260200191505060405180910390a35050565b6000838311158290610d4d576040517f08c379a00000000000000000000000000000000000000000000000000000000081526004018080602001828103825283818151815260200191508051906020019080838360005b83811015610d12578082015181840152602081019050610cf7565b50505050905090810190601f168015610d3f5780820380516001836020036101000a031916815260200191505b509250505060405180910390fd5b5060008385039050809150509392505050565b600080828401905083811015610dde576040517f08c379a000000000000000000000000000000000000000000000000000000000815260040180806020018281038252601b8152602001807f536166654d6174683a206164646974696f6e206f766572666c6f77000000000081525060200191505060405180910390fd5b809150509291505056fea2646970667358221220dd0604e97a38b075161cdaf6fec240eb06a5e0ab9b00d64206fc5ce25dd47cf864736f6c634300060c0033556e697377617056324c6962726172793a20494e53554646494349454e545f4c4951554944495459536166654d6174683a206d756c7469706c69636174696f6e206f766572666c6f77556e697377617056324c6962726172793a20494e53554646494349454e545f414d4f554e545472616e7366657248656c7065723a204554485f5452414e534645525f4641494c45445472616e7366657248656c7065723a205452414e534645525f46524f4d5f4641494c4544a2646970667358221220ba583b49b07cd6a31352fed37bf98cf568b3e636f21e501608c00520caff94d564736f6c634300060c0033",
  "immutableReferences": {
    "154": [
      {
        "length": 32,
        "start": 8171
      },
      {
        "length": 32,
        "start": 8566
      },
      {
        "length": 32,
        "start": 8695
      },
      {
        "length": 32,
        "start": 9389
      },
      {
        "length": 32,
        "start": 11418
      },
      {
        "length": 32,
        "start": 13858
      }
    ]
  },
  "source": "pragma solidity 0.6.12;\n\nimport \"./interface/IShardsMarket.sol\";\nimport \"./interface/IWETH.sol\";\nimport \"./interface/ISharedToken.sol\";\nimport \"./interface/IUniswapV2Pair.sol\";\nimport \"./interface/ERC721.sol\";\nimport \"./interface/IUniswapV2Factory.sol\";\nimport \"./SharedToken.sol\";\nimport \"./libraries/TransferHelper.sol\";\nimport \"openzeppelin-solidity/contracts/math/SafeMath.sol\";\n\ncontract ShardsMarket {\n    using SafeMath for uint256;\n    //NFT _tokenId\n    uint256[] tokenIds;\n\n    enum ShardsState {\n        Live,\n        Listed,\n        ApplyforBuyout,\n        Buyout,\n        BuyoutFailed,\n        SubscriptionFailed\n    }\n    address factory;\n    //\n    uint256 totalSupply = 10000;\n\n    address public immutable WETH;\n    //token\n    uint256 price;\n    //\n    uint256 deadlineForStaking;\n    //\n    uint256 deadlineForRedeem;\n    //\n    uint256 shardsCreatorProportion;\n    //\n    uint256 platformProportion;\n\n    //\n    uint256 buyOutProportion = 15;\n    //max\n    uint256 public constant max = 100;\n    //\n    uint256 public buyOutTimes = 2;\n    // Info of each pool.\n    mapping(uint256 => shardPool) public poolInfo;\n    //\n    struct shardPool {\n        address creator; //shard\n        ShardsState state; //shared\n        uint256 createTime; //\n        address shardToken; //token\n        uint256 balanceOfETH; //pool\n        string shardName;\n        string shardSymbol;\n        uint256 minPrice;\n        address nft;\n    }\n\n    mapping(uint256 => mapping(address => UserInfo)) public userInfo;\n    struct UserInfo {\n        uint256 amount;\n    }\n\n    mapping(address => address) public LPToken;\n    //id\n    uint256 public proposolIdCount = 0;\n    //\n    uint256 public voteLenth;\n    //NFTid\n    mapping(uint256 => uint256) public proposalID;\n    //\n    mapping(uint256 => Proposal) public proposals;\n    //\n    mapping(uint256 => mapping(address => bool)) public voted;\n    //\n    mapping(address => mapping(address => uint256)) public blocked;\n    //\n    uint256 public passNeeded = 75;\n\n    struct Proposal {\n        uint256 votesReceived;\n        uint256 voteTotal;\n        bool passed;\n        address submitter;\n        uint256 voteDeadline;\n        uint256 shardAmount;\n        uint256 ETHAmount;\n    }\n\n    constructor(address _WETH, address _factory) public {\n        WETH = _WETH;\n        factory = _factory;\n    }\n\n    function CreateShareds(\n        address nft,\n        uint256 _tokenId,\n        string memory shardName,\n        string memory shardSymbol,\n        uint256 minPrice\n    ) external {\n        require(ERC721(nft).ownerOf(_tokenId) == msg.sender, \"UNAUTHORIZED\");\n        ERC721(nft).safeTransferFrom(msg.sender, address(this), _tokenId);\n        poolInfo[_tokenId] = shardPool({\n            creator: msg.sender,\n            state: ShardsState.Live,\n            createTime: block.timestamp,\n            shardToken: address(0),\n            balanceOfETH: 0,\n            shardName: shardName,\n            shardSymbol: shardSymbol,\n            minPrice: minPrice,\n            nft: nft\n        });\n    }\n\n    function Stake(uint256 _tokenId, uint256 amount) external payable {\n        require(\n            block.timestamp <=\n                poolInfo[_tokenId].createTime.add(deadlineForStaking),\n            \"NFT:EXPIRED\"\n        );\n        require(\n            poolInfo[_tokenId].state == ShardsState.Live,\n            \"NFT:LIVE STATE IS REQUIRED\"\n        );\n        IWETH(WETH).deposit{value: amount}();\n        assert(IWETH(WETH).transfer(address(this), amount));\n        userInfo[_tokenId][msg.sender].amount.add(amount);\n        poolInfo[_tokenId].balanceOfETH.add(amount);\n    }\n\n    function Redeem(uint256 _tokenId, uint256 amount) external payable {\n        require(\n            block.timestamp <=\n                poolInfo[_tokenId].createTime.add(deadlineForRedeem),\n            \"NFT:EXPIRED\"\n        );\n        require(\n            poolInfo[_tokenId].state == ShardsState.Live,\n            \"NFT:LIVE STATE IS REQUIRED\"\n        );\n        IWETH(WETH).withdraw(amount);\n        TransferHelper.safeTransferETH(msg.sender, amount);\n        userInfo[_tokenId][msg.sender].amount.sub(amount);\n        poolInfo[_tokenId].balanceOfETH.sub(amount);\n    }\n\n    function SetPrice(uint256 _tokenId) external {\n        require(\n            block.timestamp >=\n                poolInfo[_tokenId].createTime.add(deadlineForRedeem),\n            \"NFT:NOT READY\"\n        );\n        require(\n            poolInfo[_tokenId].state == ShardsState.Live,\n            \"NFT:LIVE STATE IS REQUIRED\"\n        );\n        if (poolInfo[_tokenId].balanceOfETH < poolInfo[_tokenId].minPrice) {\n            _failToSetPrice(_tokenId);\n        } else {\n            poolInfo[_tokenId].shardToken = _deployShardsToken(_tokenId);\n            poolInfo[_tokenId].state == ShardsState.Listed;\n        }\n    }\n\n    function _failToSetPrice(uint256 _tokenId) private {\n        poolInfo[_tokenId].state == ShardsState.SubscriptionFailed;\n    }\n\n    function _deployShardsToken(uint256 _tokenId)\n        private\n        returns (address token)\n    {\n        bytes memory bytecode = type(ShardToken).creationCode;\n        bytes32 salt = keccak256(abi.encodePacked(_tokenId));\n        assembly {\n            token := create2(0, add(bytecode, 32), mload(bytecode), salt)\n        }\n        ISharedToken(token).initialize(_tokenId);\n    }\n\n    function BuyOut(uint256 _tokenId, uint256 ETHAmount)\n        external\n        returns (uint256 proposalId)\n    {\n        uint256 shardBalance = ISharedToken(poolInfo[_tokenId].shardToken)\n            .balanceOf(msg.sender);\n        require(\n            shardBalance >= totalSupply.mul(buyOutProportion).div(max),\n            \"Insuffient shardToken\"\n        );\n        require(\n            poolInfo[_tokenId].state == ShardsState.Live,\n            \"State should be Live\"\n        );\n        uint256 currentPrice = getPrice(_tokenId);\n        require(\n            ETHAmount >=\n                max.sub(buyOutProportion).mul(totalSupply).mul(currentPrice),\n            \"INSUFFICIENT_ETHAMOUNT\"\n        );\n\n        TransferHelper.safeTransferFrom(\n            WETH,\n            msg.sender,\n            address(this),\n            ETHAmount\n        );\n        TransferHelper.safeTransferFrom(\n            poolInfo[_tokenId].shardToken,\n            msg.sender,\n            address(this),\n            shardBalance\n        );\n        if (proposolIdCount == 0) {\n            proposolIdCount = 1;\n        }\n        proposalId = proposolIdCount;\n        proposals[proposolIdCount] = Proposal({\n            votesReceived: 0,\n            voteTotal: 0,\n            passed: false,\n            submitter: msg.sender,\n            voteDeadline: block.timestamp.add(voteLenth),\n            shardAmount: shardBalance,\n            ETHAmount: ETHAmount\n        });\n\n        blocked[poolInfo[_tokenId].shardToken][msg.sender] = proposalId;\n        voted[proposalId][msg.sender] = true;\n        proposolIdCount = proposolIdCount.add(1);\n        poolInfo[_tokenId].state == ShardsState.ApplyforBuyout;\n    }\n\n    function Vote(uint256 _tokenId, bool isAgree) external {\n        uint256 balance = ISharedToken(poolInfo[_tokenId].shardToken).balanceOf(\n            msg.sender\n        );\n        require(balance >= 0, \"INSUFFICIENT_VOTERIGHT\");\n        require(\n            poolInfo[_tokenId].state == ShardsState.ApplyforBuyout,\n            \"WRONG_STATE\"\n        );\n        uint256 id = proposalID[_tokenId];\n        Proposal memory p = proposals[id];\n        require(block.timestamp <= p.voteDeadline, \"EXPIRED\");\n        require(voted[id][msg.sender] == false);\n        blocked[poolInfo[_tokenId].shardToken][msg.sender] = id;\n        voted[id][msg.sender] == true;\n        if (isAgree) {\n            p.votesReceived = p.votesReceived.add(balance);\n            p.voteTotal = p.voteTotal.add(balance);\n        } else {\n            p.voteTotal = p.voteTotal.add(balance);\n        }\n    }\n\n    function VoteResultComfirm(uint256 _tokenId) external {\n        uint256 id = proposalID[_tokenId];\n        Proposal memory p = proposals[id];\n        require(msg.sender == p.submitter, \"UNAUTHORIZED\");\n        require(block.timestamp >= p.voteDeadline, \"NOT READY\");\n        require(\n            poolInfo[_tokenId].state == ShardsState.ApplyforBuyout,\n            \"WRONG_STATE\"\n        );\n        if (p.votesReceived >= p.voteTotal.mul(passNeeded).div(max)) {\n            p.passed = true;\n            poolInfo[_tokenId].state == ShardsState.Buyout;\n            ShardToken(poolInfo[_tokenId].shardToken).burn(\n                msg.sender,\n                p.shardAmount\n            );\n            ERC721(poolInfo[_tokenId].nft).safeTransferFrom(\n                address(this),\n                msg.sender,\n                _tokenId\n            );\n        } else {\n            p.passed = false;\n            poolInfo[_tokenId].state == ShardsState.BuyoutFailed;\n        }\n    }\n\n    function ExchangeForETH(uint256 _tokenId, uint256 shardAmount)\n        external\n        returns (uint256 ETHAmount)\n    {\n        uint256 id = proposalID[_tokenId];\n        Proposal memory p = proposals[id];\n        require(poolInfo[_tokenId].state == ShardsState.Buyout, \"WRONG_STATE\");\n\n        ShardToken(poolInfo[_tokenId].shardToken).burn(msg.sender, shardAmount);\n\n        uint256 amount = shardAmount.mul(p.ETHAmount).div(\n            totalSupply.sub(p.shardAmount)\n        );\n        TransferHelper.safeTransferETH(msg.sender, amount);\n    }\n\n    function RedeemForBuyoutFailed(uint256 _tokenId)\n        external\n        returns (uint256 shardTokenAmount, uint256 ETHAmount)\n    {\n        uint256 id = proposalID[_tokenId];\n        Proposal memory p = proposals[id];\n        require(msg.sender == p.submitter, \"UNAUTHORIZED\");\n        require(\n            poolInfo[_tokenId].state == ShardsState.BuyoutFailed &&\n                p.passed == false,\n            \"WRONG_STATE\"\n        );\n        TransferHelper.safeTransfer(\n            poolInfo[_tokenId].shardToken,\n            msg.sender,\n            p.shardAmount\n        );\n        TransferHelper.safeTransferETH(msg.sender, p.ETHAmount);\n\n        poolInfo[_tokenId].state == ShardsState.Live;\n    }\n\n    function quote(\n        uint256 amountA,\n        uint256 reserveA,\n        uint256 reserveB\n    ) internal pure returns (uint256 amountB) {\n        require(amountA > 0, \"UniswapV2Library: INSUFFICIENT_AMOUNT\");\n        require(\n            reserveA > 0 && reserveB > 0,\n            \"UniswapV2Library: INSUFFICIENT_LIQUIDITY\"\n        );\n        amountB = amountA.mul(reserveB) / reserveA;\n    }\n\n    function getPrice(uint256 _tokenId)\n        internal\n        returns (uint256 currentPrice)\n    {\n        address lPTokenAddress = IUniswapV2Factory(factory).getPair(\n            poolInfo[_tokenId].shardToken,\n            WETH\n        );\n        (uint112 _reserve0, uint112 _reserve1, ) = IUniswapV2Pair(\n            lPTokenAddress\n        )\n            .getReserves();\n        currentPrice = quote(1, _reserve1, _reserve0);\n    }\n}\n",
  "sourcePath": "/Users/admin/myproject/NFT/contracts/ShardsMarket.sol",
  "compiler": {
    "name": "solc",
    "version": "0.6.12+commit.27d51765.Emscripten.clang"
  },
  "schemaVersion": "3.2.5",
  "updatedAt": "2020-10-27T14:23:52.501Z",
  "devdoc": {
    "kind": "dev",
    "methods": {},
    "version": 1
  },
  "userdoc": {
    "kind": "user",
    "methods": {},
    "version": 1
  }
}