{
  "contractName": "ShardsMarket",
  "abi": [
    {
      "inputs": [
        {
          "internalType": "address",
          "name": "_WETH",
          "type": "address"
        },
        {
          "internalType": "address",
          "name": "_factory",
          "type": "address"
        }
      ],
      "stateMutability": "nonpayable",
      "type": "constructor"
    },
    {
      "inputs": [
        {
          "internalType": "address",
          "name": "",
          "type": "address"
        }
      ],
      "name": "LPToken",
      "outputs": [
        {
          "internalType": "address",
          "name": "",
          "type": "address"
        }
      ],
      "stateMutability": "view",
      "type": "function"
    },
    {
      "inputs": [],
      "name": "WETH",
      "outputs": [
        {
          "internalType": "address",
          "name": "",
          "type": "address"
        }
      ],
      "stateMutability": "view",
      "type": "function"
    },
    {
      "inputs": [
        {
          "internalType": "address",
          "name": "",
          "type": "address"
        },
        {
          "internalType": "address",
          "name": "",
          "type": "address"
        }
      ],
      "name": "blocked",
      "outputs": [
        {
          "internalType": "bool",
          "name": "",
          "type": "bool"
        }
      ],
      "stateMutability": "view",
      "type": "function"
    },
    {
      "inputs": [],
      "name": "buyOutTimes",
      "outputs": [
        {
          "internalType": "uint256",
          "name": "",
          "type": "uint256"
        }
      ],
      "stateMutability": "view",
      "type": "function"
    },
    {
      "inputs": [],
      "name": "max",
      "outputs": [
        {
          "internalType": "uint256",
          "name": "",
          "type": "uint256"
        }
      ],
      "stateMutability": "view",
      "type": "function"
    },
    {
      "inputs": [
        {
          "internalType": "string",
          "name": "",
          "type": "string"
        }
      ],
      "name": "poolInfo",
      "outputs": [
        {
          "internalType": "address",
          "name": "creator",
          "type": "address"
        },
        {
          "internalType": "enum ShardsMarket.ShardsState",
          "name": "state",
          "type": "uint8"
        },
        {
          "internalType": "uint256",
          "name": "createTime",
          "type": "uint256"
        },
        {
          "internalType": "address",
          "name": "shardToken",
          "type": "address"
        },
        {
          "internalType": "uint256",
          "name": "balanceOfETH",
          "type": "uint256"
        }
      ],
      "stateMutability": "view",
      "type": "function"
    },
    {
      "inputs": [
        {
          "internalType": "string",
          "name": "",
          "type": "string"
        }
      ],
      "name": "proposalID",
      "outputs": [
        {
          "internalType": "uint256",
          "name": "",
          "type": "uint256"
        }
      ],
      "stateMutability": "view",
      "type": "function"
    },
    {
      "inputs": [
        {
          "internalType": "uint256",
          "name": "",
          "type": "uint256"
        }
      ],
      "name": "proposals",
      "outputs": [
        {
          "internalType": "uint256",
          "name": "votesReceived",
          "type": "uint256"
        },
        {
          "internalType": "uint256",
          "name": "voteTotal",
          "type": "uint256"
        },
        {
          "internalType": "bool",
          "name": "passed",
          "type": "bool"
        },
        {
          "internalType": "address",
          "name": "submitter",
          "type": "address"
        },
        {
          "internalType": "uint256",
          "name": "voteDeadline",
          "type": "uint256"
        }
      ],
      "stateMutability": "view",
      "type": "function"
    },
    {
      "inputs": [
        {
          "internalType": "string",
          "name": "",
          "type": "string"
        },
        {
          "internalType": "address",
          "name": "",
          "type": "address"
        }
      ],
      "name": "userInfo",
      "outputs": [
        {
          "internalType": "uint256",
          "name": "amount",
          "type": "uint256"
        }
      ],
      "stateMutability": "view",
      "type": "function"
    },
    {
      "inputs": [
        {
          "internalType": "uint256",
          "name": "",
          "type": "uint256"
        },
        {
          "internalType": "address",
          "name": "",
          "type": "address"
        }
      ],
      "name": "voted",
      "outputs": [
        {
          "internalType": "bool",
          "name": "",
          "type": "bool"
        }
      ],
      "stateMutability": "view",
      "type": "function"
    },
    {
      "inputs": [
        {
          "internalType": "string",
          "name": "url",
          "type": "string"
        }
      ],
      "name": "CreateShareds",
      "outputs": [],
      "stateMutability": "nonpayable",
      "type": "function"
    },
    {
      "inputs": [
        {
          "internalType": "string",
          "name": "url",
          "type": "string"
        },
        {
          "internalType": "uint256",
          "name": "amount",
          "type": "uint256"
        }
      ],
      "name": "Stake",
      "outputs": [],
      "stateMutability": "payable",
      "type": "function"
    },
    {
      "inputs": [
        {
          "internalType": "string",
          "name": "url",
          "type": "string"
        },
        {
          "internalType": "uint256",
          "name": "amount",
          "type": "uint256"
        }
      ],
      "name": "Redeem",
      "outputs": [],
      "stateMutability": "payable",
      "type": "function"
    },
    {
      "inputs": [
        {
          "internalType": "string",
          "name": "url",
          "type": "string"
        }
      ],
      "name": "SetPrice",
      "outputs": [],
      "stateMutability": "nonpayable",
      "type": "function"
    },
    {
      "inputs": [
        {
          "internalType": "string",
          "name": "url",
          "type": "string"
        },
        {
          "internalType": "uint256",
          "name": "ETHAmount",
          "type": "uint256"
        }
      ],
      "name": "BuyOut",
      "outputs": [],
      "stateMutability": "nonpayable",
      "type": "function"
    }
  ],
  "bytecode": "0x60a0604052612710600255600f600855600260095534801561002057600080fd5b50604051613a0a380380613a0a8339818101604052604081101561004357600080fd5b8101908080519060200190929190805190602001909291905050508173ffffffffffffffffffffffffffffffffffffffff1660808173ffffffffffffffffffffffffffffffffffffffff1660601b8152505080600160006101000a81548173ffffffffffffffffffffffffffffffffffffffff021916908373ffffffffffffffffffffffffffffffffffffffff160217905550505060805160601c61390161010960003980610ccd5280610d4e528061185e5280611a9a528061214652506139016000f3fe6080604052600436106100e85760003560e01c80635a0398ac1161008a5780637e04c694116100595780637e04c69414610759578063ad5c464814610835578063e6b94edd14610876578063ff7ca16f1461093e576100e8565b80635a0398ac1461051c578063603e4c2c146105ee5780636ac5db19146106b357806373de1367146106de576100e8565b806333527c7f116100c657806333527c7f146102bc57806341a673b31461038457806348be1535146104805780635277b4ae146104ab576100e8565b8063013cf08b146100ed5780630cb428e8146101705780631d67ef2514610235575b600080fd5b3480156100f957600080fd5b506101266004803603602081101561011057600080fd5b8101908080359060200190929190505050610a6d565b6040518086815260200185815260200184151581526020018373ffffffffffffffffffffffffffffffffffffffff1681526020018281526020019550505050505060405180910390f35b6102336004803603604081101561018657600080fd5b81019080803590602001906401000000008111156101a357600080fd5b8201836020820111156101b557600080fd5b803590602001918460018302840111640100000000831117156101d757600080fd5b91908080601f016020809104026020016040519081016040528093929190818152602001838380828437600081840152601f19601f82011690508083019250505050505050919291929080359060200190929190505050610ad0565b005b34801561024157600080fd5b506102a46004803603604081101561025857600080fd5b81019080803573ffffffffffffffffffffffffffffffffffffffff169060200190929190803573ffffffffffffffffffffffffffffffffffffffff169060200190929190505050610f5f565b60405180821515815260200191505060405180910390f35b3480156102c857600080fd5b50610382600480360360208110156102df57600080fd5b81019080803590602001906401000000008111156102fc57600080fd5b82018360208201111561030e57600080fd5b8035906020019184600183028401116401000000008311171561033057600080fd5b91908080601f016020809104026020016040519081016040528093929190818152602001838380828437600081840152601f19601f820116905080830192505050505050509192919290505050610f8e565b005b34801561039057600080fd5b5061046a600480360360408110156103a757600080fd5b81019080803590602001906401000000008111156103c457600080fd5b8201836020820111156103d657600080fd5b803590602001918460018302840111640100000000831117156103f857600080fd5b91908080601f016020809104026020016040519081016040528093929190818152602001838380828437600081840152601f19601f820116905080830192505050505050509192919290803573ffffffffffffffffffffffffffffffffffffffff169060200190929190505050611129565b6040518082815260200191505060405180910390f35b34801561048c57600080fd5b5061049561116a565b6040518082815260200191505060405180910390f35b3480156104b757600080fd5b50610504600480360360408110156104ce57600080fd5b8101908080359060200190929190803573ffffffffffffffffffffffffffffffffffffffff169060200190929190505050611170565b60405180821515815260200191505060405180910390f35b34801561052857600080fd5b506105ec6004803603604081101561053f57600080fd5b810190808035906020019064010000000081111561055c57600080fd5b82018360208201111561056e57600080fd5b8035906020019184600183028401116401000000008311171561059057600080fd5b91908080601f016020809104026020016040519081016040528093929190818152602001838380828437600081840152601f19601f8201169050808301925050505050505091929192908035906020019092919050505061119f565b005b6106b16004803603604081101561060457600080fd5b810190808035906020019064010000000081111561062157600080fd5b82018360208201111561063357600080fd5b8035906020019184600183028401116401000000008311171561065557600080fd5b91908080601f016020809104026020016040519081016040528093929190818152602001838380828437600081840152601f19601f82011690508083019250505050505050919291929080359060200190929190505050611661565b005b3480156106bf57600080fd5b506106c8611a32565b6040518082815260200191505060405180910390f35b3480156106ea57600080fd5b5061072d6004803603602081101561070157600080fd5b81019080803573ffffffffffffffffffffffffffffffffffffffff169060200190929190505050611a37565b604051808273ffffffffffffffffffffffffffffffffffffffff16815260200191505060405180910390f35b34801561076557600080fd5b5061081f6004803603602081101561077c57600080fd5b810190808035906020019064010000000081111561079957600080fd5b8201836020820111156107ab57600080fd5b803590602001918460018302840111640100000000831117156107cd57600080fd5b91908080601f016020809104026020016040519081016040528093929190818152602001838380828437600081840152601f19601f820116905080830192505050505050509192919290505050611a6a565b6040518082815260200191505060405180910390f35b34801561084157600080fd5b5061084a611a98565b604051808273ffffffffffffffffffffffffffffffffffffffff16815260200191505060405180910390f35b34801561088257600080fd5b5061093c6004803603602081101561089957600080fd5b81019080803590602001906401000000008111156108b657600080fd5b8201836020820111156108c857600080fd5b803590602001918460018302840111640100000000831117156108ea57600080fd5b91908080601f016020809104026020016040519081016040528093929190818152602001838380828437600081840152601f19601f820116905080830192505050505050509192919290505050611abc565b005b34801561094a57600080fd5b50610a046004803603602081101561096157600080fd5b810190808035906020019064010000000081111561097e57600080fd5b82018360208201111561099057600080fd5b803590602001918460018302840111640100000000831117156109b257600080fd5b91908080601f016020809104026020016040519081016040528093929190818152602001838380828437600081840152601f19601f820116905080830192505050505050509192919290505050611e85565b604051808673ffffffffffffffffffffffffffffffffffffffff168152602001856005811115610a3057fe5b81526020018481526020018373ffffffffffffffffffffffffffffffffffffffff1681526020018281526020019550505050505060405180910390f35b600e6020528060005260406000206000915090508060000154908060010154908060020160009054906101000a900460ff16908060020160019054906101000a900473ffffffffffffffffffffffffffffffffffffffff16908060030154905085565b610b51600454600a846040518082805190602001908083835b60208310610b0c5780518252602082019150602081019050602083039250610ae9565b6001836020036101000a038019825116818451168082178552505050505050905001915050908152602001604051809103902060010154611f1e90919063ffffffff16565b421115610bc6576040517f08c379a000000000000000000000000000000000000000000000000000000000815260040180806020018281038252600b8152602001807f4e46543a4558504952454400000000000000000000000000000000000000000081525060200191505060405180910390fd5b60006005811115610bd357fe5b600a836040518082805190602001908083835b60208310610c095780518252602082019150602081019050602083039250610be6565b6001836020036101000a038019825116818451168082178552505050505050905001915050908152602001604051809103902060000160149054906101000a900460ff166005811115610c5857fe5b14610ccb576040517f08c379a000000000000000000000000000000000000000000000000000000000815260040180806020018281038252601a8152602001807f4e46543a4c49564520535441544520495320524551554952454400000000000081525060200191505060405180910390fd5b7f000000000000000000000000000000000000000000000000000000000000000073ffffffffffffffffffffffffffffffffffffffff1663d0e30db0826040518263ffffffff1660e01b81526004016000604051808303818588803b158015610d3357600080fd5b505af1158015610d47573d6000803e3d6000fd5b50505050507f000000000000000000000000000000000000000000000000000000000000000073ffffffffffffffffffffffffffffffffffffffff1663a9059cbb30836040518363ffffffff1660e01b8152600401808373ffffffffffffffffffffffffffffffffffffffff16815260200182815260200192505050602060405180830381600087803b158015610ddd57600080fd5b505af1158015610df1573d6000803e3d6000fd5b505050506040513d6020811015610e0757600080fd5b8101908080519060200190929190505050610e1e57fe5b610eda81600b846040518082805190602001908083835b60208310610e585780518252602082019150602081019050602083039250610e35565b6001836020036101000a038019825116818451168082178552505050505050905001915050908152602001604051809103902060003373ffffffffffffffffffffffffffffffffffffffff1673ffffffffffffffffffffffffffffffffffffffff16815260200190815260200160002060000154611f1e90919063ffffffff16565b50610f5a81600a846040518082805190602001908083835b60208310610f155780518252602082019150602081019050602083039250610ef2565b6001836020036101000a038019825116818451168082178552505050505050905001915050908152602001604051809103902060030154611f1e90919063ffffffff16565b505050565b60106020528160005260406000206020528060005260406000206000915091509054906101000a900460ff1681565b6040518060a001604052803373ffffffffffffffffffffffffffffffffffffffff16815260200160006005811115610fc257fe5b8152602001428152602001600073ffffffffffffffffffffffffffffffffffffffff1681526020016000815250600a826040518082805190602001908083835b602083106110255780518252602082019150602081019050602083039250611002565b6001836020036101000a038019825116818451168082178552505050505050905001915050908152602001604051809103902060008201518160000160006101000a81548173ffffffffffffffffffffffffffffffffffffffff021916908373ffffffffffffffffffffffffffffffffffffffff16021790555060208201518160000160146101000a81548160ff021916908360058111156110c357fe5b02179055506040820151816001015560608201518160020160006101000a81548173ffffffffffffffffffffffffffffffffffffffff021916908373ffffffffffffffffffffffffffffffffffffffff1602179055506080820151816003015590505050565b600b82805160208101820180518482526020830160208501208183528095505050505050602052806000526040600020600091509150508060000154905081565b60095481565b600f6020528160005260406000206020528060005260406000206000915091509054906101000a900460ff1681565b6111c960646111bb600854600254611fa690919063ffffffff16565b61202c90919063ffffffff16565b600a836040518082805190602001908083835b602083106111ff57805182526020820191506020810190506020830392506111dc565b6001836020036101000a038019825116818451168082178552505050505050905001915050908152602001604051809103902060020160009054906101000a900473ffffffffffffffffffffffffffffffffffffffff1673ffffffffffffffffffffffffffffffffffffffff166370a08231336040518263ffffffff1660e01b8152600401808273ffffffffffffffffffffffffffffffffffffffff16815260200191505060206040518083038186803b1580156112bc57600080fd5b505afa1580156112d0573d6000803e3d6000fd5b505050506040513d60208110156112e657600080fd5b8101908080519060200190929190505050101561136b576040517f08c379a00000000000000000000000000000000000000000000000000000000081526004018080602001828103825260158152602001807f496e7375666669656e74207368617264546f6b656e000000000000000000000081525060200191505060405180910390fd5b6000600581111561137857fe5b600a836040518082805190602001908083835b602083106113ae578051825260208201915060208101905060208303925061138b565b6001836020036101000a038019825116818451168082178552505050505050905001915050908152602001604051809103902060000160149054906101000a900460ff1660058111156113fd57fe5b148061149857506004600581111561141157fe5b600a836040518082805190602001908083835b602083106114475780518252602082019150602081019050602083039250611424565b6001836020036101000a038019825116818451168082178552505050505050905001915050908152602001604051809103902060000160149054906101000a900460ff16600581111561149657fe5b145b61150a576040517f08c379a00000000000000000000000000000000000000000000000000000000081526004018080602001828103825260148152602001807f53746174652073686f756c64206265204c69766500000000000000000000000081525060200191505060405180910390fd5b600061151583612076565b90506115538161154560025461153760085460646122dc90919063ffffffff16565b611fa690919063ffffffff16565b611fa690919063ffffffff16565b8210156115c8576040517f08c379a00000000000000000000000000000000000000000000000000000000081526004018080602001828103825260158152602001807f496e737566666963656e7420455448416d6f756e74000000000000000000000081525060200191505060405180910390fd5b600260058111156115d557fe5b600a846040518082805190602001908083835b6020831061160b57805182526020820191506020810190506020830392506115e8565b6001836020036101000a038019825116818451168082178552505050505050905001915050908152602001604051809103902060000160149054906101000a900460ff16600581111561165a57fe5b5050505050565b6116e2600554600a846040518082805190602001908083835b6020831061169d578051825260208201915060208101905060208303925061167a565b6001836020036101000a038019825116818451168082178552505050505050905001915050908152602001604051809103902060010154611f1e90919063ffffffff16565b421115611757576040517f08c379a000000000000000000000000000000000000000000000000000000000815260040180806020018281038252600b8152602001807f4e46543a4558504952454400000000000000000000000000000000000000000081525060200191505060405180910390fd5b6000600581111561176457fe5b600a836040518082805190602001908083835b6020831061179a5780518252602082019150602081019050602083039250611777565b6001836020036101000a038019825116818451168082178552505050505050905001915050908152602001604051809103902060000160149054906101000a900460ff1660058111156117e957fe5b1461185c576040517f08c379a000000000000000000000000000000000000000000000000000000000815260040180806020018281038252601a8152602001807f4e46543a4c49564520535441544520495320524551554952454400000000000081525060200191505060405180910390fd5b7f000000000000000000000000000000000000000000000000000000000000000073ffffffffffffffffffffffffffffffffffffffff16632e1a7d4d826040518263ffffffff1660e01b815260040180828152602001915050600060405180830381600087803b1580156118cf57600080fd5b505af11580156118e3573d6000803e3d6000fd5b505050506118f13382612326565b6119ad81600b846040518082805190602001908083835b6020831061192b5780518252602082019150602081019050602083039250611908565b6001836020036101000a038019825116818451168082178552505050505050905001915050908152602001604051809103902060003373ffffffffffffffffffffffffffffffffffffffff1673ffffffffffffffffffffffffffffffffffffffff168152602001908152602001600020600001546122dc90919063ffffffff16565b50611a2d81600a846040518082805190602001908083835b602083106119e857805182526020820191506020810190506020830392506119c5565b6001836020036101000a0380198251168184511680821785525050505050509050019150509081526020016040518091039020600301546122dc90919063ffffffff16565b505050565b606481565b600c6020528060005260406000206000915054906101000a900473ffffffffffffffffffffffffffffffffffffffff1681565b600d818051602081018201805184825260208301602085012081835280955050505050506000915090505481565b7f000000000000000000000000000000000000000000000000000000000000000081565b611b3d600554600a836040518082805190602001908083835b60208310611af85780518252602082019150602081019050602083039250611ad5565b6001836020036101000a038019825116818451168082178552505050505050905001915050908152602001604051809103902060010154611f1e90919063ffffffff16565b421015611bb2576040517f08c379a000000000000000000000000000000000000000000000000000000000815260040180806020018281038252600d8152602001807f4e46543a4e4f542052454144590000000000000000000000000000000000000081525060200191505060405180910390fd5b60006005811115611bbf57fe5b600a826040518082805190602001908083835b60208310611bf55780518252602082019150602081019050602083039250611bd2565b6001836020036101000a038019825116818451168082178552505050505050905001915050908152602001604051809103902060000160149054906101000a900460ff166005811115611c4457fe5b14611cb7576040517f08c379a000000000000000000000000000000000000000000000000000000000815260040180806020018281038252601a8152602001807f4e46543a4c49564520535441544520495320524551554952454400000000000081525060200191505060405180910390fd5b6000600a826040518082805190602001908083835b60208310611cef5780518252602082019150602081019050602083039250611ccc565b6001836020036101000a0380198251168184511680821785525050505050509050019150509081526020016040518091039020600301541415611d3a57611d3581612485565b611e82565b611d438161251b565b600a826040518082805190602001908083835b60208310611d795780518252602082019150602081019050602083039250611d56565b6001836020036101000a038019825116818451168082178552505050505050905001915050908152602001604051809103902060020160006101000a81548173ffffffffffffffffffffffffffffffffffffffff021916908373ffffffffffffffffffffffffffffffffffffffff16021790555060016005811115611dfa57fe5b600a826040518082805190602001908083835b60208310611e305780518252602082019150602081019050602083039250611e0d565b6001836020036101000a038019825116818451168082178552505050505050905001915050908152602001604051809103902060000160149054906101000a900460ff166005811115611e7f57fe5b50505b50565b600a818051602081018201805184825260208301602085012081835280955050505050506000915090508060000160009054906101000a900473ffffffffffffffffffffffffffffffffffffffff16908060000160149054906101000a900460ff16908060010154908060020160009054906101000a900473ffffffffffffffffffffffffffffffffffffffff16908060030154905085565b600080828401905083811015611f9c576040517f08c379a000000000000000000000000000000000000000000000000000000000815260040180806020018281038252601b8152602001807f536166654d6174683a206164646974696f6e206f766572666c6f77000000000081525060200191505060405180910390fd5b8091505092915050565b600080831415611fb95760009050612026565b6000828402905082848281611fca57fe5b0414612021576040517f08c379a00000000000000000000000000000000000000000000000000000000081526004018080602001828103825260218152602001806138636021913960400191505060405180910390fd5b809150505b92915050565b600061206e83836040518060400160405280601a81526020017f536166654d6174683a206469766973696f6e206279207a65726f00000000000081525061269e565b905092915050565b600080600160009054906101000a900473ffffffffffffffffffffffffffffffffffffffff1673ffffffffffffffffffffffffffffffffffffffff1663e6a43905600a856040518082805190602001908083835b602083106120ed57805182526020820191506020810190506020830392506120ca565b6001836020036101000a038019825116818451168082178552505050505050905001915050908152602001604051809103902060020160009054906101000a900473ffffffffffffffffffffffffffffffffffffffff167f00000000000000000000000000000000000000000000000000000000000000006040518363ffffffff1660e01b8152600401808373ffffffffffffffffffffffffffffffffffffffff1681526020018273ffffffffffffffffffffffffffffffffffffffff1681526020019250505060206040518083038186803b1580156121cc57600080fd5b505afa1580156121e0573d6000803e3d6000fd5b505050506040513d60208110156121f657600080fd5b810190808051906020019092919050505090506000808273ffffffffffffffffffffffffffffffffffffffff16630902f1ac6040518163ffffffff1660e01b815260040160606040518083038186803b15801561225257600080fd5b505afa158015612266573d6000803e3d6000fd5b505050506040513d606081101561227c57600080fd5b8101908080519060200190929190805190602001909291908051906020019092919050505050915091506122d26001826dffffffffffffffffffffffffffff16846dffffffffffffffffffffffffffff16612764565b9350505050919050565b600061231e83836040518060400160405280601e81526020017f536166654d6174683a207375627472616374696f6e206f766572666c6f770000815250612848565b905092915050565b60008273ffffffffffffffffffffffffffffffffffffffff1682600067ffffffffffffffff8111801561235857600080fd5b506040519080825280601f01601f19166020018201604052801561238b5781602001600182028036833780820191505090505b506040518082805190602001908083835b602083106123bf578051825260208201915060208101905060208303925061239c565b6001836020036101000a03801982511681845116808217855250505050505090500191505060006040518083038185875af1925050503d8060008114612421576040519150601f19603f3d011682016040523d82523d6000602084013e612426565b606091505b5050905080612480576040517f08c379a00000000000000000000000000000000000000000000000000000000081526004018080602001828103825260238152602001806138a96023913960400191505060405180910390fd5b505050565b60058081111561249157fe5b600a826040518082805190602001908083835b602083106124c757805182526020820191506020810190506020830392506124a4565b6001836020036101000a038019825116818451168082178552505050505050905001915050908152602001604051809103902060000160149054906101000a900460ff16600581111561251657fe5b505050565b600060606040518060200161252f90612908565b6020820181038252601f19601f8201166040525090506000836040516020018082805190602001908083835b6020831061257e578051825260208201915060208101905060208303925061255b565b6001836020036101000a038019825116818451168082178552505050505050905001915050604051602081830303815290604052805190602001209050808251602084016000f592508273ffffffffffffffffffffffffffffffffffffffff1663f62d1888856040518263ffffffff1660e01b81526004018080602001828103825283818151815260200191508051906020019080838360005b83811015612633578082015181840152602081019050612618565b50505050905090810190601f1680156126605780820380516001836020036101000a031916815260200191505b5092505050600060405180830381600087803b15801561267f57600080fd5b505af1158015612693573d6000803e3d6000fd5b505050505050919050565b6000808311829061274a576040517f08c379a00000000000000000000000000000000000000000000000000000000081526004018080602001828103825283818151815260200191508051906020019080838360005b8381101561270f5780820151818401526020810190506126f4565b50505050905090810190601f16801561273c5780820380516001836020036101000a031916815260200191505b509250505060405180910390fd5b50600083858161275657fe5b049050809150509392505050565b60008084116127be576040517f08c379a00000000000000000000000000000000000000000000000000000000081526004018080602001828103825260258152602001806138846025913960400191505060405180910390fd5b6000831180156127ce5750600082115b612823576040517f08c379a000000000000000000000000000000000000000000000000000000000815260040180806020018281038252602881526020018061383b6028913960400191505060405180910390fd5b826128378386611fa690919063ffffffff16565b8161283e57fe5b0490509392505050565b60008383111582906128f5576040517f08c379a00000000000000000000000000000000000000000000000000000000081526004018080602001828103825283818151815260200191508051906020019080838360005b838110156128ba57808201518184015260208101905061289f565b50505050905090810190601f1680156128e75780820380516001836020036101000a031916815260200191505b509250505060405180910390fd5b5060008385039050809150509392505050565b610f25806129168339019056fe608060405234801561001057600080fd5b5033600460006101000a81548173ffffffffffffffffffffffffffffffffffffffff021916908373ffffffffffffffffffffffffffffffffffffffff160217905550610ec4806100616000396000f3fe608060405234801561001057600080fd5b50600436106100b45760003560e01c806370a082311161007157806370a08231146102e657806380f556051461033e57806395d89b4114610372578063a9059cbb146103f5578063dd62ed3e14610459578063f62d1888146104d1576100b4565b806306fdde03146100b9578063095ea7b31461013c57806318160ddd146101a057806323b872dd146101be578063313ce567146102425780635600f04f14610263575b600080fd5b6100c161058c565b6040518080602001828103825283818151815260200191508051906020019080838360005b838110156101015780820151818401526020810190506100e6565b50505050905090810190601f16801561012e5780820380516001836020036101000a031916815260200191505b509250505060405180910390f35b6101886004803603604081101561015257600080fd5b81019080803573ffffffffffffffffffffffffffffffffffffffff169060200190929190803590602001909291905050506105c5565b60405180821515815260200191505060405180910390f35b6101a86105dc565b6040518082815260200191505060405180910390f35b61022a600480360360608110156101d457600080fd5b81019080803573ffffffffffffffffffffffffffffffffffffffff169060200190929190803573ffffffffffffffffffffffffffffffffffffffff169060200190929190803590602001909291905050506105e2565b60405180821515815260200191505060405180910390f35b61024a6107ad565b604051808260ff16815260200191505060405180910390f35b61026b6107b2565b6040518080602001828103825283818151815260200191508051906020019080838360005b838110156102ab578082015181840152602081019050610290565b50505050905090810190601f1680156102d85780820380516001836020036101000a031916815260200191505b509250505060405180910390f35b610328600480360360208110156102fc57600080fd5b81019080803573ffffffffffffffffffffffffffffffffffffffff169060200190929190505050610850565b6040518082815260200191505060405180910390f35b610346610868565b604051808273ffffffffffffffffffffffffffffffffffffffff16815260200191505060405180910390f35b61037a61088e565b6040518080602001828103825283818151815260200191508051906020019080838360005b838110156103ba57808201518184015260208101905061039f565b50505050905090810190601f1680156103e75780820380516001836020036101000a031916815260200191505b509250505060405180910390f35b6104416004803603604081101561040b57600080fd5b81019080803573ffffffffffffffffffffffffffffffffffffffff169060200190929190803590602001909291905050506108c7565b60405180821515815260200191505060405180910390f35b6104bb6004803603604081101561046f57600080fd5b81019080803573ffffffffffffffffffffffffffffffffffffffff169060200190929190803573ffffffffffffffffffffffffffffffffffffffff1690602001909291905050506108de565b6040518082815260200191505060405180910390f35b61058a600480360360208110156104e757600080fd5b810190808035906020019064010000000081111561050457600080fd5b82018360208201111561051657600080fd5b8035906020019184600183028401116401000000008311171561053857600080fd5b91908080601f016020809104026020016040519081016040528093929190818152602001838380828437600081840152601f19601f820116905080830192505050505050509192919290505050610903565b005b6040518060400160405280600681526020017f4e4654205631000000000000000000000000000000000000000000000000000081525081565b60006105d23384846109e0565b6001905092915050565b60005481565b60007fffffffffffffffffffffffffffffffffffffffffffffffffffffffffffffffff600260008673ffffffffffffffffffffffffffffffffffffffff1673ffffffffffffffffffffffffffffffffffffffff16815260200190815260200160002060003373ffffffffffffffffffffffffffffffffffffffff1673ffffffffffffffffffffffffffffffffffffffff16815260200190815260200160002054146107975761071682600260008773ffffffffffffffffffffffffffffffffffffffff1673ffffffffffffffffffffffffffffffffffffffff16815260200190815260200160002060003373ffffffffffffffffffffffffffffffffffffffff1673ffffffffffffffffffffffffffffffffffffffff16815260200190815260200160002054610acb90919063ffffffff16565b600260008673ffffffffffffffffffffffffffffffffffffffff1673ffffffffffffffffffffffffffffffffffffffff16815260200190815260200160002060003373ffffffffffffffffffffffffffffffffffffffff1673ffffffffffffffffffffffffffffffffffffffff168152602001908152602001600020819055505b6107a2848484610b15565b600190509392505050565b601281565b60038054600181600116156101000203166002900480601f0160208091040260200160405190810160405280929190818152602001828054600181600116156101000203166002900480156108485780601f1061081d57610100808354040283529160200191610848565b820191906000526020600020905b81548152906001019060200180831161082b57829003601f168201915b505050505081565b60016020528060005260406000206000915090505481565b600460009054906101000a900473ffffffffffffffffffffffffffffffffffffffff1681565b6040518060400160405280600681526020017f4e46542d5631000000000000000000000000000000000000000000000000000081525081565b60006108d4338484610b15565b6001905092915050565b6002602052816000526040600020602052806000526040600020600091509150505481565b600460009054906101000a900473ffffffffffffffffffffffffffffffffffffffff1673ffffffffffffffffffffffffffffffffffffffff163373ffffffffffffffffffffffffffffffffffffffff16146109c6576040517f08c379a00000000000000000000000000000000000000000000000000000000081526004018080602001828103825260098152602001807f464f5242494444454e000000000000000000000000000000000000000000000081525060200191505060405180910390fd5b80600390805190602001906109dc929190610df1565b5050565b80600260008573ffffffffffffffffffffffffffffffffffffffff1673ffffffffffffffffffffffffffffffffffffffff16815260200190815260200160002060008473ffffffffffffffffffffffffffffffffffffffff1673ffffffffffffffffffffffffffffffffffffffff168152602001908152602001600020819055508173ffffffffffffffffffffffffffffffffffffffff168373ffffffffffffffffffffffffffffffffffffffff167f8c5be1e5ebec7d5bd14f71427d1e84f3dd0314c0f7b2291e5b200ac8c7c3b925836040518082815260200191505060405180910390a3505050565b6000610b0d83836040518060400160405280601e81526020017f536166654d6174683a207375627472616374696f6e206f766572666c6f770000815250610ca9565b905092915050565b610b6781600160008673ffffffffffffffffffffffffffffffffffffffff1673ffffffffffffffffffffffffffffffffffffffff16815260200190815260200160002054610acb90919063ffffffff16565b600160008573ffffffffffffffffffffffffffffffffffffffff1673ffffffffffffffffffffffffffffffffffffffff16815260200190815260200160002081905550610bfc81600160008573ffffffffffffffffffffffffffffffffffffffff1673ffffffffffffffffffffffffffffffffffffffff16815260200190815260200160002054610d6990919063ffffffff16565b600160008473ffffffffffffffffffffffffffffffffffffffff1673ffffffffffffffffffffffffffffffffffffffff168152602001908152602001600020819055508173ffffffffffffffffffffffffffffffffffffffff168373ffffffffffffffffffffffffffffffffffffffff167fddf252ad1be2c89b69c2b068fc378daa952ba7f163c4a11628f55a4df523b3ef836040518082815260200191505060405180910390a3505050565b6000838311158290610d56576040517f08c379a00000000000000000000000000000000000000000000000000000000081526004018080602001828103825283818151815260200191508051906020019080838360005b83811015610d1b578082015181840152602081019050610d00565b50505050905090810190601f168015610d485780820380516001836020036101000a031916815260200191505b509250505060405180910390fd5b5060008385039050809150509392505050565b600080828401905083811015610de7576040517f08c379a000000000000000000000000000000000000000000000000000000000815260040180806020018281038252601b8152602001807f536166654d6174683a206164646974696f6e206f766572666c6f77000000000081525060200191505060405180910390fd5b8091505092915050565b828054600181600116156101000203166002900490600052602060002090601f016020900481019282601f10610e3257805160ff1916838001178555610e60565b82800160010185558215610e60579182015b82811115610e5f578251825591602001919060010190610e44565b5b509050610e6d9190610e71565b5090565b5b80821115610e8a576000816000905550600101610e72565b509056fea26469706673582212203ded1aabbbb2242c0dd483c684fa591a6bff07d12630b5bbc96b4970df75184e64736f6c634300060c0033556e697377617056324c6962726172793a20494e53554646494349454e545f4c4951554944495459536166654d6174683a206d756c7469706c69636174696f6e206f766572666c6f77556e697377617056324c6962726172793a20494e53554646494349454e545f414d4f554e545472616e7366657248656c7065723a204554485f5452414e534645525f4641494c4544a26469706673582212209d5856d177def9db6ad7fff09c4cf7d8e833fe76dc96557a427232ed315d89d064736f6c634300060c0033",
  "immutableReferences": {
    "153": [
      {
        "length": 32,
        "start": 3277
      },
      {
        "length": 32,
        "start": 3406
      },
      {
        "length": 32,
        "start": 6238
      },
      {
        "length": 32,
        "start": 6810
      },
      {
        "length": 32,
        "start": 8518
      }
    ]
  },
  "source": "pragma solidity 0.6.12;\n\nimport \"./interface/IShardsMarket.sol\";\nimport \"./interface/IWETH.sol\";\nimport \"./interface/ISharedToken.sol\";\nimport \"./interface/IUniswapV2Pair.sol\";\nimport \"./interface/IUniswapV2Factory.sol\";\nimport \"./SharedToken.sol\";\nimport \"./libraries/TransferHelper.sol\";\nimport \"openzeppelin-solidity/contracts/math/SafeMath.sol\";\n\ncontract ShardsMarket {\n    using SafeMath for uint256;\n    //NFT url\n    string[] urls;\n\n    enum ShardsState {\n        Live,\n        Listed,\n        ApplyforBuyout,\n        Buyout,\n        BuyoutFailed,\n        SubscriptionFailed\n    }\n    address factory;\n    //\n    uint256 totalSupply = 10000;\n\n    address public immutable WETH;\n    //token\n    uint256 price;\n    //\n    uint256 deadlineForStaking;\n    //\n    uint256 deadlineForRedeem;\n    //\n    uint256 shardsCreatorProportion;\n    //\n    uint256 platformProportion;\n\n    //\n    uint256 buyOutProportion = 15;\n    //max\n    uint256 public constant max = 100;\n    //\n    uint256 public buyOutTimes = 2;\n    // Info of each pool.\n    mapping(string => shardPool) public poolInfo;\n    //\n    struct shardPool {\n        address creator; //shard\n        ShardsState state; //shared\n        uint256 createTime; //\n        address shardToken; //token\n        uint256 balanceOfETH; //pool\n    }\n\n    mapping(string => mapping(address => UserInfo)) public userInfo;\n    struct UserInfo {\n        uint256 amount;\n    }\n\n    mapping(address => address) public LPToken;\n    //NFTid\n    mapping(string => uint256) public proposalID;\n    //\n    mapping(uint256 => Proposal) public proposals;\n    //\n    mapping(uint256 => mapping(address => bool)) public voted;\n    //\n    mapping(address => mapping(address => bool)) public blocked;\n\n    struct Proposal {\n        uint256 votesReceived;\n        uint256 voteTotal;\n        bool passed;\n        address submitter;\n        uint256 voteDeadline;\n    }\n\n    modifier onlyEligibleVote(address token, address _voter) {\n        require(ISharedToken(token).balanceOf(_voter) > 0);\n        _;\n    }\n\n    constructor(address _WETH, address _factory) public {\n        WETH = _WETH;\n        factory = _factory;\n    }\n\n    function CreateShareds(string memory url) external {\n        poolInfo[url] = shardPool({\n            creator: msg.sender,\n            state: ShardsState.Live,\n            createTime: block.timestamp,\n            shardToken: address(0),\n            balanceOfETH: 0\n        });\n    }\n\n    function Stake(string memory url, uint256 amount) external payable {\n        require(\n            block.timestamp <= poolInfo[url].createTime.add(deadlineForStaking),\n            \"NFT:EXPIRED\"\n        );\n        require(\n            poolInfo[url].state == ShardsState.Live,\n            \"NFT:LIVE STATE IS REQUIRED\"\n        );\n        IWETH(WETH).deposit{value: amount}();\n        assert(IWETH(WETH).transfer(address(this), amount));\n        userInfo[url][msg.sender].amount.add(amount);\n        poolInfo[url].balanceOfETH.add(amount);\n    }\n\n    function Redeem(string memory url, uint256 amount) external payable {\n        require(\n            block.timestamp <= poolInfo[url].createTime.add(deadlineForRedeem),\n            \"NFT:EXPIRED\"\n        );\n        require(\n            poolInfo[url].state == ShardsState.Live,\n            \"NFT:LIVE STATE IS REQUIRED\"\n        );\n        IWETH(WETH).withdraw(amount);\n        TransferHelper.safeTransferETH(msg.sender, amount);\n        userInfo[url][msg.sender].amount.sub(amount);\n        poolInfo[url].balanceOfETH.sub(amount);\n    }\n\n    function SetPrice(string memory url) external {\n        require(\n            block.timestamp >= poolInfo[url].createTime.add(deadlineForRedeem),\n            \"NFT:NOT READY\"\n        );\n        require(\n            poolInfo[url].state == ShardsState.Live,\n            \"NFT:LIVE STATE IS REQUIRED\"\n        );\n        if (poolInfo[url].balanceOfETH == 0) {\n            _failToSetPrice(url);\n        } else {\n            poolInfo[url].shardToken = _deployShardsToken(url);\n            poolInfo[url].state == ShardsState.Listed;\n        }\n    }\n\n    function _failToSetPrice(string memory url) private {\n        poolInfo[url].state == ShardsState.SubscriptionFailed;\n    }\n\n    function _deployShardsToken(string memory url)\n        private\n        returns (address token)\n    {\n        bytes memory bytecode = type(ShardToken).creationCode;\n        bytes32 salt = keccak256(abi.encodePacked(url));\n        assembly {\n            token := create2(0, add(bytecode, 32), mload(bytecode), salt)\n        }\n        ISharedToken(token).initialize(url);\n    }\n\n    function BuyOut(string memory url, uint256 ETHAmount) external {\n        require(\n            ISharedToken(poolInfo[url].shardToken).balanceOf(msg.sender) >=\n                totalSupply.mul(buyOutProportion).div(max),\n            \"Insuffient shardToken\"\n        );\n        require(\n            poolInfo[url].state == ShardsState.Live ||\n                poolInfo[url].state == ShardsState.BuyoutFailed,\n            \"State should be Live\"\n        );\n        uint256 currentPrice = getPrice(url);\n        require(\n            ETHAmount >=\n                max.sub(buyOutProportion).mul(totalSupply).mul(currentPrice),\n            \"Insufficent ETHAmount\"\n        );\n        poolInfo[url].state == ShardsState.ApplyforBuyout;\n    }\n\n    // function Vote(\n    //     uint256 proposolId,\n    //     uint256 voteCount,\n    //     bool isAgree\n    // ) external onlyEligibleVote() {}\n\n    function quote(\n        uint256 amountA,\n        uint256 reserveA,\n        uint256 reserveB\n    ) internal pure returns (uint256 amountB) {\n        require(amountA > 0, \"UniswapV2Library: INSUFFICIENT_AMOUNT\");\n        require(\n            reserveA > 0 && reserveB > 0,\n            \"UniswapV2Library: INSUFFICIENT_LIQUIDITY\"\n        );\n        amountB = amountA.mul(reserveB) / reserveA;\n    }\n\n    function getPrice(string memory url)\n        internal\n        returns (uint256 currentPrice)\n    {\n        address lPTokenAddress = IUniswapV2Factory(factory).getPair(\n            poolInfo[url].shardToken,\n            WETH\n        );\n        (uint112 _reserve0, uint112 _reserve1, ) = IUniswapV2Pair(\n            lPTokenAddress\n        )\n            .getReserves();\n        currentPrice = quote(1, _reserve1, _reserve0);\n    }\n}\n",
  "sourcePath": "/Users/admin/myproject/NFT/contracts/ShardsMarket.sol",
  "compiler": {
    "name": "solc",
    "version": "0.6.12+commit.27d51765.Emscripten.clang"
  },
  "schemaVersion": "3.2.5",
  "updatedAt": "2020-10-27T08:35:02.358Z",
  "devdoc": {
    "kind": "dev",
    "methods": {},
    "version": 1
  },
  "userdoc": {
    "kind": "user",
    "methods": {},
    "version": 1
  }
}