{
  "contractName": "ShardsMarket",
  "abi": [
    {
      "inputs": [
        {
          "internalType": "address",
          "name": "_WETH",
          "type": "address"
        },
        {
          "internalType": "address",
          "name": "_factory",
          "type": "address"
        }
      ],
      "stateMutability": "nonpayable",
      "type": "constructor"
    },
    {
      "inputs": [
        {
          "internalType": "address",
          "name": "",
          "type": "address"
        }
      ],
      "name": "LPToken",
      "outputs": [
        {
          "internalType": "address",
          "name": "",
          "type": "address"
        }
      ],
      "stateMutability": "view",
      "type": "function"
    },
    {
      "inputs": [],
      "name": "WETH",
      "outputs": [
        {
          "internalType": "address",
          "name": "",
          "type": "address"
        }
      ],
      "stateMutability": "view",
      "type": "function"
    },
    {
      "inputs": [
        {
          "internalType": "address",
          "name": "",
          "type": "address"
        },
        {
          "internalType": "address",
          "name": "",
          "type": "address"
        }
      ],
      "name": "blocked",
      "outputs": [
        {
          "internalType": "uint256",
          "name": "",
          "type": "uint256"
        }
      ],
      "stateMutability": "view",
      "type": "function"
    },
    {
      "inputs": [],
      "name": "buyOutTimes",
      "outputs": [
        {
          "internalType": "uint256",
          "name": "",
          "type": "uint256"
        }
      ],
      "stateMutability": "view",
      "type": "function"
    },
    {
      "inputs": [],
      "name": "max",
      "outputs": [
        {
          "internalType": "uint256",
          "name": "",
          "type": "uint256"
        }
      ],
      "stateMutability": "view",
      "type": "function"
    },
    {
      "inputs": [],
      "name": "passNeeded",
      "outputs": [
        {
          "internalType": "uint256",
          "name": "",
          "type": "uint256"
        }
      ],
      "stateMutability": "view",
      "type": "function"
    },
    {
      "inputs": [
        {
          "internalType": "uint256",
          "name": "",
          "type": "uint256"
        }
      ],
      "name": "poolInfo",
      "outputs": [
        {
          "internalType": "address",
          "name": "creator",
          "type": "address"
        },
        {
          "internalType": "enum ShardsMarket.ShardsState",
          "name": "state",
          "type": "uint8"
        },
        {
          "internalType": "uint256",
          "name": "createTime",
          "type": "uint256"
        },
        {
          "internalType": "address",
          "name": "shardToken",
          "type": "address"
        },
        {
          "internalType": "uint256",
          "name": "balanceOfETH",
          "type": "uint256"
        },
        {
          "internalType": "string",
          "name": "shardName",
          "type": "string"
        },
        {
          "internalType": "string",
          "name": "shardSymbol",
          "type": "string"
        },
        {
          "internalType": "uint256",
          "name": "minPrice",
          "type": "uint256"
        }
      ],
      "stateMutability": "view",
      "type": "function"
    },
    {
      "inputs": [
        {
          "internalType": "uint256",
          "name": "",
          "type": "uint256"
        }
      ],
      "name": "proposalID",
      "outputs": [
        {
          "internalType": "uint256",
          "name": "",
          "type": "uint256"
        }
      ],
      "stateMutability": "view",
      "type": "function"
    },
    {
      "inputs": [
        {
          "internalType": "uint256",
          "name": "",
          "type": "uint256"
        }
      ],
      "name": "proposals",
      "outputs": [
        {
          "internalType": "uint256",
          "name": "votesReceived",
          "type": "uint256"
        },
        {
          "internalType": "uint256",
          "name": "voteTotal",
          "type": "uint256"
        },
        {
          "internalType": "bool",
          "name": "passed",
          "type": "bool"
        },
        {
          "internalType": "address",
          "name": "submitter",
          "type": "address"
        },
        {
          "internalType": "uint256",
          "name": "voteDeadline",
          "type": "uint256"
        },
        {
          "internalType": "uint256",
          "name": "shardAmount",
          "type": "uint256"
        },
        {
          "internalType": "uint256",
          "name": "ETHAmount",
          "type": "uint256"
        }
      ],
      "stateMutability": "view",
      "type": "function"
    },
    {
      "inputs": [],
      "name": "proposolIdCount",
      "outputs": [
        {
          "internalType": "uint256",
          "name": "",
          "type": "uint256"
        }
      ],
      "stateMutability": "view",
      "type": "function"
    },
    {
      "inputs": [
        {
          "internalType": "uint256",
          "name": "",
          "type": "uint256"
        },
        {
          "internalType": "address",
          "name": "",
          "type": "address"
        }
      ],
      "name": "userInfo",
      "outputs": [
        {
          "internalType": "uint256",
          "name": "amount",
          "type": "uint256"
        }
      ],
      "stateMutability": "view",
      "type": "function"
    },
    {
      "inputs": [],
      "name": "voteLenth",
      "outputs": [
        {
          "internalType": "uint256",
          "name": "",
          "type": "uint256"
        }
      ],
      "stateMutability": "view",
      "type": "function"
    },
    {
      "inputs": [
        {
          "internalType": "uint256",
          "name": "",
          "type": "uint256"
        },
        {
          "internalType": "address",
          "name": "",
          "type": "address"
        }
      ],
      "name": "voted",
      "outputs": [
        {
          "internalType": "bool",
          "name": "",
          "type": "bool"
        }
      ],
      "stateMutability": "view",
      "type": "function"
    },
    {
      "inputs": [
        {
          "internalType": "address",
          "name": "nft",
          "type": "address"
        },
        {
          "internalType": "uint256",
          "name": "_tokenId",
          "type": "uint256"
        },
        {
          "internalType": "string",
          "name": "shardName",
          "type": "string"
        },
        {
          "internalType": "string",
          "name": "shardSymbol",
          "type": "string"
        },
        {
          "internalType": "uint256",
          "name": "minPrice",
          "type": "uint256"
        }
      ],
      "name": "CreateShareds",
      "outputs": [],
      "stateMutability": "nonpayable",
      "type": "function"
    },
    {
      "inputs": [
        {
          "internalType": "uint256",
          "name": "_tokenId",
          "type": "uint256"
        },
        {
          "internalType": "uint256",
          "name": "amount",
          "type": "uint256"
        }
      ],
      "name": "Stake",
      "outputs": [],
      "stateMutability": "payable",
      "type": "function"
    },
    {
      "inputs": [
        {
          "internalType": "uint256",
          "name": "_tokenId",
          "type": "uint256"
        },
        {
          "internalType": "uint256",
          "name": "amount",
          "type": "uint256"
        }
      ],
      "name": "Redeem",
      "outputs": [],
      "stateMutability": "payable",
      "type": "function"
    },
    {
      "inputs": [
        {
          "internalType": "uint256",
          "name": "_tokenId",
          "type": "uint256"
        }
      ],
      "name": "SetPrice",
      "outputs": [],
      "stateMutability": "nonpayable",
      "type": "function"
    },
    {
      "inputs": [
        {
          "internalType": "uint256",
          "name": "_tokenId",
          "type": "uint256"
        },
        {
          "internalType": "uint256",
          "name": "ETHAmount",
          "type": "uint256"
        }
      ],
      "name": "BuyOut",
      "outputs": [
        {
          "internalType": "uint256",
          "name": "proposalId",
          "type": "uint256"
        }
      ],
      "stateMutability": "nonpayable",
      "type": "function"
    },
    {
      "inputs": [
        {
          "internalType": "uint256",
          "name": "_tokenId",
          "type": "uint256"
        },
        {
          "internalType": "bool",
          "name": "isAgree",
          "type": "bool"
        }
      ],
      "name": "Vote",
      "outputs": [],
      "stateMutability": "nonpayable",
      "type": "function"
    },
    {
      "inputs": [
        {
          "internalType": "uint256",
          "name": "_tokenId",
          "type": "uint256"
        }
      ],
      "name": "VoteResultComfirm",
      "outputs": [],
      "stateMutability": "nonpayable",
      "type": "function"
    },
    {
      "inputs": [
        {
          "internalType": "uint256",
          "name": "_tokenId",
          "type": "uint256"
        },
        {
          "internalType": "uint256",
          "name": "shardAmount",
          "type": "uint256"
        }
      ],
      "name": "ExchangeForETH",
      "outputs": [
        {
          "internalType": "uint256",
          "name": "ETHAmount",
          "type": "uint256"
        }
      ],
      "stateMutability": "nonpayable",
      "type": "function"
    },
    {
      "inputs": [
        {
          "internalType": "uint256",
          "name": "_tokenId",
          "type": "uint256"
        }
      ],
      "name": "RedeemForBuyoutFailed",
      "outputs": [
        {
          "internalType": "uint256",
          "name": "shardTokenAmount",
          "type": "uint256"
        },
        {
          "internalType": "uint256",
          "name": "ETHAmount",
          "type": "uint256"
        }
      ],
      "stateMutability": "nonpayable",
      "type": "function"
    }
  ],
  "bytecode": "0x60a0604052612710600255600f60085560026009556000600d55604b60135534801561002a57600080fd5b50604051614b2c380380614b2c8339818101604052604081101561004d57600080fd5b8101908080519060200190929190805190602001909291905050508173ffffffffffffffffffffffffffffffffffffffff1660808173ffffffffffffffffffffffffffffffffffffffff1660601b8152505080600160006101000a81548173ffffffffffffffffffffffffffffffffffffffff021916908373ffffffffffffffffffffffffffffffffffffffff160217905550505060805160601c614a1461011860003980611df35280611f7e5280611fff52806122b55280612a3e52806133c65250614a146000f3fe6080604052600436106101355760003560e01c80636ac5db19116100ab578063ad5c46481161006f578063ad5c46481461076f578063be077ee0146107b0578063c9ec05ea146107ff578063e3829d5414610837578063e462b1801461086f578063f57d88df14610a0257610135565b80636ac5db19146105ba57806373de1367146105e55780638bfa1f401461066057806393f1a40b146106a757806395e81ef71461071657610135565b8063451d11d7116100fd578063451d11d71461046257806348be15351461048d5780634ac17f83146104b85780634f5539c0146104e35780635277b4ae1461051e5780636481ae581461058f57610135565b8063013cf08b1461013a57806312ff8827146101cb5780631526fe27146102215780631d67ef25146103a257806330f200d814610427575b600080fd5b34801561014657600080fd5b506101736004803603602081101561015d57600080fd5b8101908080359060200190929190505050610a5b565b6040518088815260200187815260200186151581526020018573ffffffffffffffffffffffffffffffffffffffff16815260200184815260200183815260200182815260200197505050505050505060405180910390f35b3480156101d757600080fd5b50610204600480360360208110156101ee57600080fd5b8101908080359060200190929190505050610aca565b604051808381526020018281526020019250505060405180910390f35b34801561022d57600080fd5b5061025a6004803603602081101561024457600080fd5b8101908080359060200190929190505050610db0565b604051808973ffffffffffffffffffffffffffffffffffffffff16815260200188600581111561028657fe5b81526020018781526020018673ffffffffffffffffffffffffffffffffffffffff1681526020018581526020018060200180602001848152602001838103835286818151815260200191508051906020019080838360005b838110156102f95780820151818401526020810190506102de565b50505050905090810190601f1680156103265780820380516001836020036101000a031916815260200191505b50838103825285818151815260200191508051906020019080838360005b8381101561035f578082015181840152602081019050610344565b50505050905090810190601f16801561038c5780820380516001836020036101000a031916815260200191505b509a505050505050505050505060405180910390f35b3480156103ae57600080fd5b50610411600480360360408110156103c557600080fd5b81019080803573ffffffffffffffffffffffffffffffffffffffff169060200190929190803573ffffffffffffffffffffffffffffffffffffffff169060200190929190505050610f75565b6040518082815260200191505060405180910390f35b34801561043357600080fd5b506104606004803603602081101561044a57600080fd5b8101908080359060200190929190505050610f9a565b005b34801561046e57600080fd5b5061047761132a565b6040518082815260200191505060405180910390f35b34801561049957600080fd5b506104a2611330565b6040518082815260200191505060405180910390f35b3480156104c457600080fd5b506104cd611336565b6040518082815260200191505060405180910390f35b3480156104ef57600080fd5b5061051c6004803603602081101561050657600080fd5b810190808035906020019092919050505061133c565b005b34801561052a57600080fd5b506105776004803603604081101561054157600080fd5b8101908080359060200190929190803573ffffffffffffffffffffffffffffffffffffffff169060200190929190505050611557565b60405180821515815260200191505060405180910390f35b34801561059b57600080fd5b506105a4611586565b6040518082815260200191505060405180910390f35b3480156105c657600080fd5b506105cf61158c565b6040518082815260200191505060405180910390f35b3480156105f157600080fd5b506106346004803603602081101561060857600080fd5b81019080803573ffffffffffffffffffffffffffffffffffffffff169060200190929190505050611591565b604051808273ffffffffffffffffffffffffffffffffffffffff16815260200191505060405180910390f35b34801561066c57600080fd5b506106a56004803603604081101561068357600080fd5b81019080803590602001909291908035151590602001909291905050506115c4565b005b3480156106b357600080fd5b50610700600480360360408110156106ca57600080fd5b8101908080359060200190929190803573ffffffffffffffffffffffffffffffffffffffff169060200190929190505050611b1c565b6040518082815260200191505060405180910390f35b34801561072257600080fd5b506107596004803603604081101561073957600080fd5b810190808035906020019092919080359060200190929190505050611b47565b6040518082815260200191505060405180910390f35b34801561077b57600080fd5b50610784611df1565b604051808273ffffffffffffffffffffffffffffffffffffffff16815260200191505060405180910390f35b3480156107bc57600080fd5b506107e9600480360360208110156107d357600080fd5b8101908080359060200190929190505050611e15565b6040518082815260200191505060405180910390f35b6108356004803603604081101561081557600080fd5b810190808035906020019092919080359060200190929190505050611e2d565b005b61086d6004803603604081101561084d57600080fd5b810190808035906020019092919080359060200190929190505050612164565b005b34801561087b57600080fd5b50610a00600480360360a081101561089257600080fd5b81019080803573ffffffffffffffffffffffffffffffffffffffff16906020019092919080359060200190929190803590602001906401000000008111156108d957600080fd5b8201836020820111156108eb57600080fd5b8035906020019184600183028401116401000000008311171561090d57600080fd5b91908080601f016020809104026020016040519081016040528093929190818152602001838380828437600081840152601f19601f8201169050808301925050505050505091929192908035906020019064010000000081111561097057600080fd5b82018360208201111561098257600080fd5b803590602001918460018302840111640100000000831117156109a457600080fd5b91908080601f016020809104026020016040519081016040528093929190818152602001838380828437600081840152601f19601f820116905080830192505050505050509192919290803590602001909291905050506123dd565b005b348015610a0e57600080fd5b50610a4560048036036040811015610a2557600080fd5b810190808035906020019092919080359060200190929190505050612750565b6040518082815260200191505060405180910390f35b60106020528060005260406000206000915090508060000154908060010154908060020160009054906101000a900460ff16908060020160019054906101000a900473ffffffffffffffffffffffffffffffffffffffff16908060030154908060040154908060050154905087565b6000806000600f6000858152602001908152602001600020549050610aed6139ab565b601060008381526020019081526020016000206040518060e001604052908160008201548152602001600182015481526020016002820160009054906101000a900460ff161515151581526020016002820160019054906101000a900473ffffffffffffffffffffffffffffffffffffffff1673ffffffffffffffffffffffffffffffffffffffff1673ffffffffffffffffffffffffffffffffffffffff16815260200160038201548152602001600482015481526020016005820154815250509050806060015173ffffffffffffffffffffffffffffffffffffffff163373ffffffffffffffffffffffffffffffffffffffff1614610c55576040517f08c379a000000000000000000000000000000000000000000000000000000000815260040180806020018281038252600c8152602001807f554e415554484f52495a4544000000000000000000000000000000000000000081525060200191505060405180910390fd5b60046005811115610c6257fe5b600a600087815260200190815260200160002060000160149054906101000a900460ff166005811115610c9157fe5b148015610ca657506000151581604001511515145b610d18576040517f08c379a000000000000000000000000000000000000000000000000000000000815260040180806020018281038252600b8152602001807f57524f4e475f535441544500000000000000000000000000000000000000000081525060200191505060405180910390fd5b610d5d600a600087815260200190815260200160002060020160009054906101000a900473ffffffffffffffffffffffffffffffffffffffff16338360a00151612d55565b610d6b338260c00151612f38565b60006005811115610d7857fe5b600a600087815260200190815260200160002060000160149054906101000a900460ff166005811115610da757fe5b50505050915091565b600a6020528060005260406000206000915090508060000160009054906101000a900473ffffffffffffffffffffffffffffffffffffffff16908060000160149054906101000a900460ff16908060010154908060020160009054906101000a900473ffffffffffffffffffffffffffffffffffffffff1690806003015490806004018054600181600116156101000203166002900480601f016020809104026020016040519081016040528092919081815260200182805460018160011615610100020316600290048015610ec75780601f10610e9c57610100808354040283529160200191610ec7565b820191906000526020600020905b815481529060010190602001808311610eaa57829003601f168201915b505050505090806005018054600181600116156101000203166002900480601f016020809104026020016040519081016040528092919081815260200182805460018160011615610100020316600290048015610f655780601f10610f3a57610100808354040283529160200191610f65565b820191906000526020600020905b815481529060010190602001808311610f4857829003601f168201915b5050505050908060060154905088565b6012602052816000526040600020602052806000526040600020600091509150505481565b6000600f6000838152602001908152602001600020549050610fba6139ab565b601060008381526020019081526020016000206040518060e001604052908160008201548152602001600182015481526020016002820160009054906101000a900460ff161515151581526020016002820160019054906101000a900473ffffffffffffffffffffffffffffffffffffffff1673ffffffffffffffffffffffffffffffffffffffff1673ffffffffffffffffffffffffffffffffffffffff16815260200160038201548152602001600482015481526020016005820154815250509050806060015173ffffffffffffffffffffffffffffffffffffffff163373ffffffffffffffffffffffffffffffffffffffff1614611122576040517f08c379a000000000000000000000000000000000000000000000000000000000815260040180806020018281038252600c8152602001807f554e415554484f52495a4544000000000000000000000000000000000000000081525060200191505060405180910390fd5b806080015142101561119c576040517f08c379a00000000000000000000000000000000000000000000000000000000081526004018080602001828103825260098152602001807f4e4f54205245414459000000000000000000000000000000000000000000000081525060200191505060405180910390fd5b600260058111156111a957fe5b600a600085815260200190815260200160002060000160149054906101000a900460ff1660058111156111d857fe5b1461124b576040517f08c379a000000000000000000000000000000000000000000000000000000000815260040180806020018281038252600b8152602001807f57524f4e475f535441544500000000000000000000000000000000000000000081525060200191505060405180910390fd5b6112776064611269601354846020015161309790919063ffffffff16565b61311d90919063ffffffff16565b8160000151106112d55760018160400190151590811515815250506003600581111561129f57fe5b600a600085815260200190815260200160002060000160149054906101000a900460ff1660058111156112ce57fe5b5050611325565b6000816040019015159081151581525050600460058111156112f357fe5b600a600085815260200190815260200160002060000160149054906101000a900460ff16600581111561132257fe5b50505b505050565b60135481565b60095481565b600e5481565b611367600554600a60008481526020019081526020016000206001015461316790919063ffffffff16565b4210156113dc576040517f08c379a000000000000000000000000000000000000000000000000000000000815260040180806020018281038252600d8152602001807f4e46543a4e4f542052454144590000000000000000000000000000000000000081525060200191505060405180910390fd5b600060058111156113e957fe5b600a600083815260200190815260200160002060000160149054906101000a900460ff16600581111561141857fe5b1461148b576040517f08c379a000000000000000000000000000000000000000000000000000000000815260040180806020018281038252601a8152602001807f4e46543a4c49564520535441544520495320524551554952454400000000000081525060200191505060405180910390fd5b6000600a60008381526020019081526020016000206003015414156114b8576114b3816131ef565b611554565b6114c18161322f565b600a600083815260200190815260200160002060020160006101000a81548173ffffffffffffffffffffffffffffffffffffffff021916908373ffffffffffffffffffffffffffffffffffffffff1602179055506001600581111561152257fe5b600a600083815260200190815260200160002060000160149054906101000a900460ff16600581111561155157fe5b50505b50565b60116020528160005260406000206020528060005260406000206000915091509054906101000a900460ff1681565b600d5481565b606481565b600c6020528060005260406000206000915054906101000a900473ffffffffffffffffffffffffffffffffffffffff1681565b6000600a600084815260200190815260200160002060020160009054906101000a900473ffffffffffffffffffffffffffffffffffffffff1673ffffffffffffffffffffffffffffffffffffffff166370a08231336040518263ffffffff1660e01b8152600401808273ffffffffffffffffffffffffffffffffffffffff16815260200191505060206040518083038186803b15801561166357600080fd5b505afa158015611677573d6000803e3d6000fd5b505050506040513d602081101561168d57600080fd5b810190808051906020019092919050505090506000811015611717576040517f08c379a00000000000000000000000000000000000000000000000000000000081526004018080602001828103825260168152602001807f494e53554646494349454e545f564f544552494748540000000000000000000081525060200191505060405180910390fd5b6002600581111561172457fe5b600a600085815260200190815260200160002060000160149054906101000a900460ff16600581111561175357fe5b146117c6576040517f08c379a000000000000000000000000000000000000000000000000000000000815260040180806020018281038252600b8152602001807f57524f4e475f535441544500000000000000000000000000000000000000000081525060200191505060405180910390fd5b6000600f60008581526020019081526020016000205490506117e66139ab565b601060008381526020019081526020016000206040518060e001604052908160008201548152602001600182015481526020016002820160009054906101000a900460ff161515151581526020016002820160019054906101000a900473ffffffffffffffffffffffffffffffffffffffff1673ffffffffffffffffffffffffffffffffffffffff1673ffffffffffffffffffffffffffffffffffffffff168152602001600382015481526020016004820154815260200160058201548152505090508060800151421115611923576040517f08c379a00000000000000000000000000000000000000000000000000000000081526004018080602001828103825260078152602001807f455850495245440000000000000000000000000000000000000000000000000081525060200191505060405180910390fd5b600015156011600084815260200190815260200160002060003373ffffffffffffffffffffffffffffffffffffffff1673ffffffffffffffffffffffffffffffffffffffff16815260200190815260200160002060009054906101000a900460ff1615151461199157600080fd5b8160126000600a600089815260200190815260200160002060020160009054906101000a900473ffffffffffffffffffffffffffffffffffffffff1673ffffffffffffffffffffffffffffffffffffffff1673ffffffffffffffffffffffffffffffffffffffff16815260200190815260200160002060003373ffffffffffffffffffffffffffffffffffffffff1673ffffffffffffffffffffffffffffffffffffffff16815260200190815260200160002081905550600115156011600084815260200190815260200160002060003373ffffffffffffffffffffffffffffffffffffffff1673ffffffffffffffffffffffffffffffffffffffff16815260200190815260200160002060009054906101000a905050508315611af457611ac683826000015161316790919063ffffffff16565b816000018181525050611ae683826020015161316790919063ffffffff16565b816020018181525050611b15565b611b0b83826020015161316790919063ffffffff16565b8160200181815250505b5050505050565b600b602052816000526040600020602052806000526040600020600091509150508060000154905081565b600080600f6000858152602001908152602001600020549050611b686139ab565b601060008381526020019081526020016000206040518060e001604052908160008201548152602001600182015481526020016002820160009054906101000a900460ff161515151581526020016002820160019054906101000a900473ffffffffffffffffffffffffffffffffffffffff1673ffffffffffffffffffffffffffffffffffffffff1673ffffffffffffffffffffffffffffffffffffffff1681526020016003820154815260200160048201548152602001600582015481525050905060036005811115611c3857fe5b600a600087815260200190815260200160002060000160149054906101000a900460ff166005811115611c6757fe5b14611cda576040517f08c379a000000000000000000000000000000000000000000000000000000000815260040180806020018281038252600b8152602001807f57524f4e475f535441544500000000000000000000000000000000000000000081525060200191505060405180910390fd5b600a600086815260200190815260200160002060020160009054906101000a900473ffffffffffffffffffffffffffffffffffffffff1673ffffffffffffffffffffffffffffffffffffffff16639dc29fac33866040518363ffffffff1660e01b8152600401808373ffffffffffffffffffffffffffffffffffffffff16815260200182815260200192505050600060405180830381600087803b158015611d8157600080fd5b505af1158015611d95573d6000803e3d6000fd5b505050506000611ddc611db78360a0015160025461330290919063ffffffff16565b611dce8460c001518861309790919063ffffffff16565b61311d90919063ffffffff16565b9050611de83382612f38565b50505092915050565b7f000000000000000000000000000000000000000000000000000000000000000081565b600f6020528060005260406000206000915090505481565b611e58600454600a60008581526020019081526020016000206001015461316790919063ffffffff16565b421115611ecd576040517f08c379a000000000000000000000000000000000000000000000000000000000815260040180806020018281038252600b8152602001807f4e46543a4558504952454400000000000000000000000000000000000000000081525060200191505060405180910390fd5b60006005811115611eda57fe5b600a600084815260200190815260200160002060000160149054906101000a900460ff166005811115611f0957fe5b14611f7c576040517f08c379a000000000000000000000000000000000000000000000000000000000815260040180806020018281038252601a8152602001807f4e46543a4c49564520535441544520495320524551554952454400000000000081525060200191505060405180910390fd5b7f000000000000000000000000000000000000000000000000000000000000000073ffffffffffffffffffffffffffffffffffffffff1663d0e30db0826040518263ffffffff1660e01b81526004016000604051808303818588803b158015611fe457600080fd5b505af1158015611ff8573d6000803e3d6000fd5b50505050507f000000000000000000000000000000000000000000000000000000000000000073ffffffffffffffffffffffffffffffffffffffff1663a9059cbb30836040518363ffffffff1660e01b8152600401808373ffffffffffffffffffffffffffffffffffffffff16815260200182815260200192505050602060405180830381600087803b15801561208e57600080fd5b505af11580156120a2573d6000803e3d6000fd5b505050506040513d60208110156120b857600080fd5b81019080805190602001909291905050506120cf57fe5b61213581600b600085815260200190815260200160002060003373ffffffffffffffffffffffffffffffffffffffff1673ffffffffffffffffffffffffffffffffffffffff1681526020019081526020016000206000015461316790919063ffffffff16565b5061215f81600a60008581526020019081526020016000206003015461316790919063ffffffff16565b505050565b61218f600554600a60008581526020019081526020016000206001015461316790919063ffffffff16565b421115612204576040517f08c379a000000000000000000000000000000000000000000000000000000000815260040180806020018281038252600b8152602001807f4e46543a4558504952454400000000000000000000000000000000000000000081525060200191505060405180910390fd5b6000600581111561221157fe5b600a600084815260200190815260200160002060000160149054906101000a900460ff16600581111561224057fe5b146122b3576040517f08c379a000000000000000000000000000000000000000000000000000000000815260040180806020018281038252601a8152602001807f4e46543a4c49564520535441544520495320524551554952454400000000000081525060200191505060405180910390fd5b7f000000000000000000000000000000000000000000000000000000000000000073ffffffffffffffffffffffffffffffffffffffff16632e1a7d4d826040518263ffffffff1660e01b815260040180828152602001915050600060405180830381600087803b15801561232657600080fd5b505af115801561233a573d6000803e3d6000fd5b505050506123483382612f38565b6123ae81600b600085815260200190815260200160002060003373ffffffffffffffffffffffffffffffffffffffff1673ffffffffffffffffffffffffffffffffffffffff1681526020019081526020016000206000015461330290919063ffffffff16565b506123d881600a60008581526020019081526020016000206003015461330290919063ffffffff16565b505050565b3373ffffffffffffffffffffffffffffffffffffffff168573ffffffffffffffffffffffffffffffffffffffff16636352211e866040518263ffffffff1660e01b81526004018082815260200191505060206040518083038186803b15801561244557600080fd5b505afa158015612459573d6000803e3d6000fd5b505050506040513d602081101561246f57600080fd5b810190808051906020019092919050505073ffffffffffffffffffffffffffffffffffffffff1614612509576040517f08c379a000000000000000000000000000000000000000000000000000000000815260040180806020018281038252600c8152602001807f554e415554484f52495a4544000000000000000000000000000000000000000081525060200191505060405180910390fd5b8473ffffffffffffffffffffffffffffffffffffffff166342842e0e3330876040518463ffffffff1660e01b8152600401808473ffffffffffffffffffffffffffffffffffffffff1681526020018373ffffffffffffffffffffffffffffffffffffffff1681526020018281526020019350505050600060405180830381600087803b15801561259857600080fd5b505af11580156125ac573d6000803e3d6000fd5b505050506040518061010001604052803373ffffffffffffffffffffffffffffffffffffffff168152602001600060058111156125e557fe5b8152602001428152602001600073ffffffffffffffffffffffffffffffffffffffff1681526020016000815260200184815260200183815260200182815250600a600086815260200190815260200160002060008201518160000160006101000a81548173ffffffffffffffffffffffffffffffffffffffff021916908373ffffffffffffffffffffffffffffffffffffffff16021790555060208201518160000160146101000a81548160ff021916908360058111156126a257fe5b02179055506040820151816001015560608201518160020160006101000a81548173ffffffffffffffffffffffffffffffffffffffff021916908373ffffffffffffffffffffffffffffffffffffffff1602179055506080820151816003015560a082015181600401908051906020019061271e929190613a00565b5060c082015181600501908051906020019061273b929190613a00565b5060e082015181600601559050505050505050565b600080600a600085815260200190815260200160002060020160009054906101000a900473ffffffffffffffffffffffffffffffffffffffff1673ffffffffffffffffffffffffffffffffffffffff166370a08231336040518263ffffffff1660e01b8152600401808273ffffffffffffffffffffffffffffffffffffffff16815260200191505060206040518083038186803b1580156127f057600080fd5b505afa158015612804573d6000803e3d6000fd5b505050506040513d602081101561281a57600080fd5b81019080805190602001909291905050509050612857606461284960085460025461309790919063ffffffff16565b61311d90919063ffffffff16565b8110156128cc576040517f08c379a00000000000000000000000000000000000000000000000000000000081526004018080602001828103825260158152602001807f496e7375666669656e74207368617264546f6b656e000000000000000000000081525060200191505060405180910390fd5b600060058111156128d957fe5b600a600086815260200190815260200160002060000160149054906101000a900460ff16600581111561290857fe5b1461297b576040517f08c379a00000000000000000000000000000000000000000000000000000000081526004018080602001828103825260148152602001807f53746174652073686f756c64206265204c69766500000000000000000000000081525060200191505060405180910390fd5b60006129868561334c565b90506129c4816129b66002546129a8600854606461330290919063ffffffff16565b61309790919063ffffffff16565b61309790919063ffffffff16565b841015612a39576040517f08c379a00000000000000000000000000000000000000000000000000000000081526004018080602001828103825260168152602001807f494e53554646494349454e545f455448414d4f554e540000000000000000000081525060200191505060405180910390fd5b612a657f000000000000000000000000000000000000000000000000000000000000000033308761355c565b612aa7600a600087815260200190815260200160002060020160009054906101000a900473ffffffffffffffffffffffffffffffffffffffff1633308561355c565b6000600d541415612abb576001600d819055505b600d5492506040518060e0016040528060008152602001600081526020016000151581526020013373ffffffffffffffffffffffffffffffffffffffff168152602001612b13600e544261316790919063ffffffff16565b81526020018381526020018581525060106000600d548152602001908152602001600020600082015181600001556020820151816001015560408201518160020160006101000a81548160ff02191690831515021790555060608201518160020160016101000a81548173ffffffffffffffffffffffffffffffffffffffff021916908373ffffffffffffffffffffffffffffffffffffffff1602179055506080820151816003015560a0820151816004015560c082015181600501559050508260126000600a600089815260200190815260200160002060020160009054906101000a900473ffffffffffffffffffffffffffffffffffffffff1673ffffffffffffffffffffffffffffffffffffffff1673ffffffffffffffffffffffffffffffffffffffff16815260200190815260200160002060003373ffffffffffffffffffffffffffffffffffffffff1673ffffffffffffffffffffffffffffffffffffffff1681526020019081526020016000208190555060016011600085815260200190815260200160002060003373ffffffffffffffffffffffffffffffffffffffff1673ffffffffffffffffffffffffffffffffffffffff16815260200190815260200160002060006101000a81548160ff021916908315150217905550612d096001600d5461316790919063ffffffff16565b600d8190555060026005811115612d1c57fe5b600a600087815260200190815260200160002060000160149054906101000a900460ff166005811115612d4b57fe5b5050505092915050565b600060608473ffffffffffffffffffffffffffffffffffffffff1663a9059cbb8585604051602401808373ffffffffffffffffffffffffffffffffffffffff168152602001828152602001925050506040516020818303038152906040529060e01b6020820180517bffffffffffffffffffffffffffffffffffffffffffffffffffffffff83818316178352505050506040518082805190602001908083835b60208310612e185780518252602082019150602081019050602083039250612df5565b6001836020036101000a0380198251168184511680821785525050505050509050019150506000604051808303816000865af19150503d8060008114612e7a576040519150601f19603f3d011682016040523d82523d6000602084013e612e7f565b606091505b5091509150818015612ebf5750600081511480612ebe5750808060200190516020811015612eac57600080fd5b81019080805190602001909291905050505b5b612f31576040517f08c379a000000000000000000000000000000000000000000000000000000000815260040180806020018281038252601f8152602001807f5472616e7366657248656c7065723a205452414e534645525f4641494c45440081525060200191505060405180910390fd5b5050505050565b60008273ffffffffffffffffffffffffffffffffffffffff1682600067ffffffffffffffff81118015612f6a57600080fd5b506040519080825280601f01601f191660200182016040528015612f9d5781602001600182028036833780820191505090505b506040518082805190602001908083835b60208310612fd15780518252602082019150602081019050602083039250612fae565b6001836020036101000a03801982511681845116808217855250505050505090500191505060006040518083038185875af1925050503d8060008114613033576040519150601f19603f3d011682016040523d82523d6000602084013e613038565b606091505b5050905080613092576040517f08c379a00000000000000000000000000000000000000000000000000000000081526004018080602001828103825260238152602001806149986023913960400191505060405180910390fd5b505050565b6000808314156130aa5760009050613117565b60008284029050828482816130bb57fe5b0414613112576040517f08c379a00000000000000000000000000000000000000000000000000000000081526004018080602001828103825260218152602001806149526021913960400191505060405180910390fd5b809150505b92915050565b600061315f83836040518060400160405280601a81526020017f536166654d6174683a206469766973696f6e206279207a65726f000000000000815250613741565b905092915050565b6000808284019050838110156131e5576040517f08c379a000000000000000000000000000000000000000000000000000000000815260040180806020018281038252601b8152602001807f536166654d6174683a206164646974696f6e206f766572666c6f77000000000081525060200191505060405180910390fd5b8091505092915050565b6005808111156131fb57fe5b600a600083815260200190815260200160002060000160149054906101000a900460ff16600581111561322a57fe5b505050565b600060606040518060200161324390613a80565b6020820181038252601f19601f82011660405250905060008360405160200180828152602001915050604051602081830303815290604052805190602001209050808251602084016000f592508273ffffffffffffffffffffffffffffffffffffffff1663fe4b84df856040518263ffffffff1660e01b815260040180828152602001915050600060405180830381600087803b1580156132e357600080fd5b505af11580156132f7573d6000803e3d6000fd5b505050505050919050565b600061334483836040518060400160405280601e81526020017f536166654d6174683a207375627472616374696f6e206f766572666c6f770000815250613807565b905092915050565b600080600160009054906101000a900473ffffffffffffffffffffffffffffffffffffffff1673ffffffffffffffffffffffffffffffffffffffff1663e6a43905600a600086815260200190815260200160002060020160009054906101000a900473ffffffffffffffffffffffffffffffffffffffff167f00000000000000000000000000000000000000000000000000000000000000006040518363ffffffff1660e01b8152600401808373ffffffffffffffffffffffffffffffffffffffff1681526020018273ffffffffffffffffffffffffffffffffffffffff1681526020019250505060206040518083038186803b15801561344c57600080fd5b505afa158015613460573d6000803e3d6000fd5b505050506040513d602081101561347657600080fd5b810190808051906020019092919050505090506000808273ffffffffffffffffffffffffffffffffffffffff16630902f1ac6040518163ffffffff1660e01b815260040160606040518083038186803b1580156134d257600080fd5b505afa1580156134e6573d6000803e3d6000fd5b505050506040513d60608110156134fc57600080fd5b8101908080519060200190929190805190602001909291908051906020019092919050505050915091506135526001826dffffffffffffffffffffffffffff16846dffffffffffffffffffffffffffff166138c7565b9350505050919050565b600060608573ffffffffffffffffffffffffffffffffffffffff166323b872dd868686604051602401808473ffffffffffffffffffffffffffffffffffffffff1681526020018373ffffffffffffffffffffffffffffffffffffffff16815260200182815260200193505050506040516020818303038152906040529060e01b6020820180517bffffffffffffffffffffffffffffffffffffffffffffffffffffffff83818316178352505050506040518082805190602001908083835b6020831061363d578051825260208201915060208101905060208303925061361a565b6001836020036101000a0380198251168184511680821785525050505050509050019150506000604051808303816000865af19150503d806000811461369f576040519150601f19603f3d011682016040523d82523d6000602084013e6136a4565b606091505b50915091508180156136e457506000815114806136e357508080602001905160208110156136d157600080fd5b81019080805190602001909291905050505b5b613739576040517f08c379a00000000000000000000000000000000000000000000000000000000081526004018080602001828103825260248152602001806149bb6024913960400191505060405180910390fd5b505050505050565b600080831182906137ed576040517f08c379a00000000000000000000000000000000000000000000000000000000081526004018080602001828103825283818151815260200191508051906020019080838360005b838110156137b2578082015181840152602081019050613797565b50505050905090810190601f1680156137df5780820380516001836020036101000a031916815260200191505b509250505060405180910390fd5b5060008385816137f957fe5b049050809150509392505050565b60008383111582906138b4576040517f08c379a00000000000000000000000000000000000000000000000000000000081526004018080602001828103825283818151815260200191508051906020019080838360005b8381101561387957808201518184015260208101905061385e565b50505050905090810190601f1680156138a65780820380516001836020036101000a031916815260200191505b509250505060405180910390fd5b5060008385039050809150509392505050565b6000808411613921576040517f08c379a00000000000000000000000000000000000000000000000000000000081526004018080602001828103825260258152602001806149736025913960400191505060405180910390fd5b6000831180156139315750600082115b613986576040517f08c379a000000000000000000000000000000000000000000000000000000000815260040180806020018281038252602881526020018061492a6028913960400191505060405180910390fd5b8261399a838661309790919063ffffffff16565b816139a157fe5b0490509392505050565b6040518060e001604052806000815260200160008152602001600015158152602001600073ffffffffffffffffffffffffffffffffffffffff1681526020016000815260200160008152602001600081525090565b828054600181600116156101000203166002900490600052602060002090601f016020900481019282601f10613a4157805160ff1916838001178555613a6f565b82800160010185558215613a6f579182015b82811115613a6e578251825591602001919060010190613a53565b5b509050613a7c9190613a8d565b5090565b610e7f80613aab83390190565b5b80821115613aa6576000816000905550600101613a8e565b509056fe608060405234801561001057600080fd5b5033600460006101000a81548173ffffffffffffffffffffffffffffffffffffffff021916908373ffffffffffffffffffffffffffffffffffffffff160217905550610e1e806100616000396000f3fe608060405234801561001057600080fd5b50600436106100cf5760003560e01c806370a082311161008c5780639dc29fac116100665780639dc29fac146103ab578063a9059cbb146103f9578063dd62ed3e1461045d578063fe4b84df146104d5576100cf565b806370a082311461029c57806380f55605146102f457806395d89b4114610328576100cf565b806306fdde03146100d4578063095ea7b31461015757806317d70f7c146101bb57806318160ddd146101d957806323b872dd146101f7578063313ce5671461027b575b600080fd5b6100dc610503565b6040518080602001828103825283818151815260200191508051906020019080838360005b8381101561011c578082015181840152602081019050610101565b50505050905090810190601f1680156101495780820380516001836020036101000a031916815260200191505b509250505060405180910390f35b6101a36004803603604081101561016d57600080fd5b81019080803573ffffffffffffffffffffffffffffffffffffffff1690602001909291908035906020019092919050505061053c565b60405180821515815260200191505060405180910390f35b6101c3610553565b6040518082815260200191505060405180910390f35b6101e1610559565b6040518082815260200191505060405180910390f35b6102636004803603606081101561020d57600080fd5b81019080803573ffffffffffffffffffffffffffffffffffffffff169060200190929190803573ffffffffffffffffffffffffffffffffffffffff1690602001909291908035906020019092919050505061055f565b60405180821515815260200191505060405180910390f35b61028361072a565b604051808260ff16815260200191505060405180910390f35b6102de600480360360208110156102b257600080fd5b81019080803573ffffffffffffffffffffffffffffffffffffffff16906020019092919050505061072f565b6040518082815260200191505060405180910390f35b6102fc610747565b604051808273ffffffffffffffffffffffffffffffffffffffff16815260200191505060405180910390f35b61033061076d565b6040518080602001828103825283818151815260200191508051906020019080838360005b83811015610370578082015181840152602081019050610355565b50505050905090810190601f16801561039d5780820380516001836020036101000a031916815260200191505b509250505060405180910390f35b6103f7600480360360408110156103c157600080fd5b81019080803573ffffffffffffffffffffffffffffffffffffffff169060200190929190803590602001909291905050506107a6565b005b6104456004803603604081101561040f57600080fd5b81019080803573ffffffffffffffffffffffffffffffffffffffff169060200190929190803590602001909291905050506107b4565b60405180821515815260200191505060405180910390f35b6104bf6004803603604081101561047357600080fd5b81019080803573ffffffffffffffffffffffffffffffffffffffff169060200190929190803573ffffffffffffffffffffffffffffffffffffffff1690602001909291905050506107cb565b6040518082815260200191505060405180910390f35b610501600480360360208110156104eb57600080fd5b81019080803590602001909291905050506107f0565b005b6040518060400160405280600681526020017f4e4654205631000000000000000000000000000000000000000000000000000081525081565b60006105493384846108bd565b6001905092915050565b60035481565b60005481565b60007fffffffffffffffffffffffffffffffffffffffffffffffffffffffffffffffff600260008673ffffffffffffffffffffffffffffffffffffffff1673ffffffffffffffffffffffffffffffffffffffff16815260200190815260200160002060003373ffffffffffffffffffffffffffffffffffffffff1673ffffffffffffffffffffffffffffffffffffffff16815260200190815260200160002054146107145761069382600260008773ffffffffffffffffffffffffffffffffffffffff1673ffffffffffffffffffffffffffffffffffffffff16815260200190815260200160002060003373ffffffffffffffffffffffffffffffffffffffff1673ffffffffffffffffffffffffffffffffffffffff168152602001908152602001600020546109a890919063ffffffff16565b600260008673ffffffffffffffffffffffffffffffffffffffff1673ffffffffffffffffffffffffffffffffffffffff16815260200190815260200160002060003373ffffffffffffffffffffffffffffffffffffffff1673ffffffffffffffffffffffffffffffffffffffff168152602001908152602001600020819055505b61071f8484846109f2565b600190509392505050565b601281565b60016020528060005260406000206000915090505481565b600460009054906101000a900473ffffffffffffffffffffffffffffffffffffffff1681565b6040518060400160405280600681526020017f4e46542d5631000000000000000000000000000000000000000000000000000081525081565b6107b08282610b86565b5050565b60006107c13384846109f2565b6001905092915050565b6002602052816000526040600020602052806000526040600020600091509150505481565b600460009054906101000a900473ffffffffffffffffffffffffffffffffffffffff1673ffffffffffffffffffffffffffffffffffffffff163373ffffffffffffffffffffffffffffffffffffffff16146108b3576040517f08c379a00000000000000000000000000000000000000000000000000000000081526004018080602001828103825260098152602001807f464f5242494444454e000000000000000000000000000000000000000000000081525060200191505060405180910390fd5b8060038190555050565b80600260008573ffffffffffffffffffffffffffffffffffffffff1673ffffffffffffffffffffffffffffffffffffffff16815260200190815260200160002060008473ffffffffffffffffffffffffffffffffffffffff1673ffffffffffffffffffffffffffffffffffffffff168152602001908152602001600020819055508173ffffffffffffffffffffffffffffffffffffffff168373ffffffffffffffffffffffffffffffffffffffff167f8c5be1e5ebec7d5bd14f71427d1e84f3dd0314c0f7b2291e5b200ac8c7c3b925836040518082815260200191505060405180910390a3505050565b60006109ea83836040518060400160405280601e81526020017f536166654d6174683a207375627472616374696f6e206f766572666c6f770000815250610ca0565b905092915050565b610a4481600160008673ffffffffffffffffffffffffffffffffffffffff1673ffffffffffffffffffffffffffffffffffffffff168152602001908152602001600020546109a890919063ffffffff16565b600160008573ffffffffffffffffffffffffffffffffffffffff1673ffffffffffffffffffffffffffffffffffffffff16815260200190815260200160002081905550610ad981600160008573ffffffffffffffffffffffffffffffffffffffff1673ffffffffffffffffffffffffffffffffffffffff16815260200190815260200160002054610d6090919063ffffffff16565b600160008473ffffffffffffffffffffffffffffffffffffffff1673ffffffffffffffffffffffffffffffffffffffff168152602001908152602001600020819055508173ffffffffffffffffffffffffffffffffffffffff168373ffffffffffffffffffffffffffffffffffffffff167fddf252ad1be2c89b69c2b068fc378daa952ba7f163c4a11628f55a4df523b3ef836040518082815260200191505060405180910390a3505050565b610bd881600160008573ffffffffffffffffffffffffffffffffffffffff1673ffffffffffffffffffffffffffffffffffffffff168152602001908152602001600020546109a890919063ffffffff16565b600160008473ffffffffffffffffffffffffffffffffffffffff1673ffffffffffffffffffffffffffffffffffffffff16815260200190815260200160002081905550610c30816000546109a890919063ffffffff16565b600081905550600073ffffffffffffffffffffffffffffffffffffffff168273ffffffffffffffffffffffffffffffffffffffff167fddf252ad1be2c89b69c2b068fc378daa952ba7f163c4a11628f55a4df523b3ef836040518082815260200191505060405180910390a35050565b6000838311158290610d4d576040517f08c379a00000000000000000000000000000000000000000000000000000000081526004018080602001828103825283818151815260200191508051906020019080838360005b83811015610d12578082015181840152602081019050610cf7565b50505050905090810190601f168015610d3f5780820380516001836020036101000a031916815260200191505b509250505060405180910390fd5b5060008385039050809150509392505050565b600080828401905083811015610dde576040517f08c379a000000000000000000000000000000000000000000000000000000000815260040180806020018281038252601b8152602001807f536166654d6174683a206164646974696f6e206f766572666c6f77000000000081525060200191505060405180910390fd5b809150509291505056fea2646970667358221220dd0604e97a38b075161cdaf6fec240eb06a5e0ab9b00d64206fc5ce25dd47cf864736f6c634300060c0033556e697377617056324c6962726172793a20494e53554646494349454e545f4c4951554944495459536166654d6174683a206d756c7469706c69636174696f6e206f766572666c6f77556e697377617056324c6962726172793a20494e53554646494349454e545f414d4f554e545472616e7366657248656c7065723a204554485f5452414e534645525f4641494c45445472616e7366657248656c7065723a205452414e534645525f46524f4d5f4641494c4544a2646970667358221220b856512f13cf77ef2d65748255b356d01529067f4a55252aeaf7461553ee52b964736f6c634300060c0033",
  "immutableReferences": {
    "154": [
      {
        "length": 32,
        "start": 7667
      },
      {
        "length": 32,
        "start": 8062
      },
      {
        "length": 32,
        "start": 8191
      },
      {
        "length": 32,
        "start": 8885
      },
      {
        "length": 32,
        "start": 10814
      },
      {
        "length": 32,
        "start": 13254
      }
    ]
  },
  "source": "pragma solidity 0.6.12;\n\nimport \"./interface/IShardsMarket.sol\";\nimport \"./interface/IWETH.sol\";\nimport \"./interface/ISharedToken.sol\";\nimport \"./interface/IUniswapV2Pair.sol\";\nimport \"./interface/ERC721.sol\";\nimport \"./interface/IUniswapV2Factory.sol\";\nimport \"./SharedToken.sol\";\nimport \"./libraries/TransferHelper.sol\";\nimport \"openzeppelin-solidity/contracts/math/SafeMath.sol\";\n\ncontract ShardsMarket {\n    using SafeMath for uint256;\n    //NFT _tokenId\n    uint256[] tokenIds;\n\n    enum ShardsState {\n        Live,\n        Listed,\n        ApplyforBuyout,\n        Buyout,\n        BuyoutFailed,\n        SubscriptionFailed\n    }\n    address factory;\n    //\n    uint256 totalSupply = 10000;\n\n    address public immutable WETH;\n    //token\n    uint256 price;\n    //\n    uint256 deadlineForStaking;\n    //\n    uint256 deadlineForRedeem;\n    //\n    uint256 shardsCreatorProportion;\n    //\n    uint256 platformProportion;\n\n    //\n    uint256 buyOutProportion = 15;\n    //max\n    uint256 public constant max = 100;\n    //\n    uint256 public buyOutTimes = 2;\n    // Info of each pool.\n    mapping(uint256 => shardPool) public poolInfo;\n    //\n    struct shardPool {\n        address creator; //shard\n        ShardsState state; //shared\n        uint256 createTime; //\n        address shardToken; //token\n        uint256 balanceOfETH; //pool\n        string shardName;\n        string shardSymbol;\n        uint256 minPrice;\n    }\n\n    mapping(uint256 => mapping(address => UserInfo)) public userInfo;\n    struct UserInfo {\n        uint256 amount;\n    }\n\n    mapping(address => address) public LPToken;\n    //id\n    uint256 public proposolIdCount = 0;\n    //\n    uint256 public voteLenth;\n    //NFTid\n    mapping(uint256 => uint256) public proposalID;\n    //\n    mapping(uint256 => Proposal) public proposals;\n    //\n    mapping(uint256 => mapping(address => bool)) public voted;\n    //\n    mapping(address => mapping(address => uint256)) public blocked;\n    //\n    uint256 public passNeeded = 75;\n\n    struct Proposal {\n        uint256 votesReceived;\n        uint256 voteTotal;\n        bool passed;\n        address submitter;\n        uint256 voteDeadline;\n        uint256 shardAmount;\n        uint256 ETHAmount;\n    }\n\n    constructor(address _WETH, address _factory) public {\n        WETH = _WETH;\n        factory = _factory;\n    }\n\n    function CreateShareds(\n        address nft,\n        uint256 _tokenId,\n        string memory shardName,\n        string memory shardSymbol,\n        uint256 minPrice\n    ) external {\n        require(ERC721(nft).ownerOf(_tokenId) == msg.sender, \"UNAUTHORIZED\");\n        ERC721(nft).safeTransferFrom(msg.sender, address(this), _tokenId);\n        poolInfo[_tokenId] = shardPool({\n            creator: msg.sender,\n            state: ShardsState.Live,\n            createTime: block.timestamp,\n            shardToken: address(0),\n            balanceOfETH: 0,\n            shardName: shardName,\n            shardSymbol: shardSymbol,\n            minPrice: minPrice\n        });\n    }\n\n    function Stake(uint256 _tokenId, uint256 amount) external payable {\n        require(\n            block.timestamp <=\n                poolInfo[_tokenId].createTime.add(deadlineForStaking),\n            \"NFT:EXPIRED\"\n        );\n        require(\n            poolInfo[_tokenId].state == ShardsState.Live,\n            \"NFT:LIVE STATE IS REQUIRED\"\n        );\n        IWETH(WETH).deposit{value: amount}();\n        assert(IWETH(WETH).transfer(address(this), amount));\n        userInfo[_tokenId][msg.sender].amount.add(amount);\n        poolInfo[_tokenId].balanceOfETH.add(amount);\n    }\n\n    function Redeem(uint256 _tokenId, uint256 amount) external payable {\n        require(\n            block.timestamp <=\n                poolInfo[_tokenId].createTime.add(deadlineForRedeem),\n            \"NFT:EXPIRED\"\n        );\n        require(\n            poolInfo[_tokenId].state == ShardsState.Live,\n            \"NFT:LIVE STATE IS REQUIRED\"\n        );\n        IWETH(WETH).withdraw(amount);\n        TransferHelper.safeTransferETH(msg.sender, amount);\n        userInfo[_tokenId][msg.sender].amount.sub(amount);\n        poolInfo[_tokenId].balanceOfETH.sub(amount);\n    }\n\n    function SetPrice(uint256 _tokenId) external {\n        require(\n            block.timestamp >=\n                poolInfo[_tokenId].createTime.add(deadlineForRedeem),\n            \"NFT:NOT READY\"\n        );\n        require(\n            poolInfo[_tokenId].state == ShardsState.Live,\n            \"NFT:LIVE STATE IS REQUIRED\"\n        );\n        if (poolInfo[_tokenId].balanceOfETH == 0) {\n            _failToSetPrice(_tokenId);\n        } else {\n            poolInfo[_tokenId].shardToken = _deployShardsToken(_tokenId);\n            poolInfo[_tokenId].state == ShardsState.Listed;\n        }\n    }\n\n    function _failToSetPrice(uint256 _tokenId) private {\n        poolInfo[_tokenId].state == ShardsState.SubscriptionFailed;\n    }\n\n    function _deployShardsToken(uint256 _tokenId)\n        private\n        returns (address token)\n    {\n        bytes memory bytecode = type(ShardToken).creationCode;\n        bytes32 salt = keccak256(abi.encodePacked(_tokenId));\n        assembly {\n            token := create2(0, add(bytecode, 32), mload(bytecode), salt)\n        }\n        ISharedToken(token).initialize(_tokenId);\n    }\n\n    function BuyOut(uint256 _tokenId, uint256 ETHAmount)\n        external\n        returns (uint256 proposalId)\n    {\n        uint256 shardBalance = ISharedToken(poolInfo[_tokenId].shardToken)\n            .balanceOf(msg.sender);\n        require(\n            shardBalance >= totalSupply.mul(buyOutProportion).div(max),\n            \"Insuffient shardToken\"\n        );\n        require(\n            poolInfo[_tokenId].state == ShardsState.Live,\n            \"State should be Live\"\n        );\n        uint256 currentPrice = getPrice(_tokenId);\n        require(\n            ETHAmount >=\n                max.sub(buyOutProportion).mul(totalSupply).mul(currentPrice),\n            \"INSUFFICIENT_ETHAMOUNT\"\n        );\n\n        TransferHelper.safeTransferFrom(\n            WETH,\n            msg.sender,\n            address(this),\n            ETHAmount\n        );\n        TransferHelper.safeTransferFrom(\n            poolInfo[_tokenId].shardToken,\n            msg.sender,\n            address(this),\n            shardBalance\n        );\n        if (proposolIdCount == 0) {\n            proposolIdCount = 1;\n        }\n        proposalId = proposolIdCount;\n        proposals[proposolIdCount] = Proposal({\n            votesReceived: 0,\n            voteTotal: 0,\n            passed: false,\n            submitter: msg.sender,\n            voteDeadline: block.timestamp.add(voteLenth),\n            shardAmount: shardBalance,\n            ETHAmount: ETHAmount\n        });\n\n        blocked[poolInfo[_tokenId].shardToken][msg.sender] = proposalId;\n        voted[proposalId][msg.sender] = true;\n        proposolIdCount = proposolIdCount.add(1);\n        poolInfo[_tokenId].state == ShardsState.ApplyforBuyout;\n    }\n\n    function Vote(uint256 _tokenId, bool isAgree) external {\n        uint256 balance = ISharedToken(poolInfo[_tokenId].shardToken).balanceOf(\n            msg.sender\n        );\n        require(balance >= 0, \"INSUFFICIENT_VOTERIGHT\");\n        require(\n            poolInfo[_tokenId].state == ShardsState.ApplyforBuyout,\n            \"WRONG_STATE\"\n        );\n        uint256 id = proposalID[_tokenId];\n        Proposal memory p = proposals[id];\n        require(block.timestamp <= p.voteDeadline, \"EXPIRED\");\n        require(voted[id][msg.sender] == false);\n        blocked[poolInfo[_tokenId].shardToken][msg.sender] = id;\n        voted[id][msg.sender] == true;\n        if (isAgree) {\n            p.votesReceived = p.votesReceived.add(balance);\n            p.voteTotal = p.voteTotal.add(balance);\n        } else {\n            p.voteTotal = p.voteTotal.add(balance);\n        }\n    }\n\n    function VoteResultComfirm(uint256 _tokenId) external {\n        uint256 id = proposalID[_tokenId];\n        Proposal memory p = proposals[id];\n        require(msg.sender == p.submitter, \"UNAUTHORIZED\");\n        require(block.timestamp >= p.voteDeadline, \"NOT READY\");\n        require(\n            poolInfo[_tokenId].state == ShardsState.ApplyforBuyout,\n            \"WRONG_STATE\"\n        );\n        if (p.votesReceived >= p.voteTotal.mul(passNeeded).div(max)) {\n            p.passed = true;\n            poolInfo[_tokenId].state == ShardsState.Buyout;\n        } else {\n            p.passed = false;\n            poolInfo[_tokenId].state == ShardsState.BuyoutFailed;\n        }\n    }\n\n    function ExchangeForETH(uint256 _tokenId, uint256 shardAmount)\n        external\n        returns (uint256 ETHAmount)\n    {\n        uint256 id = proposalID[_tokenId];\n        Proposal memory p = proposals[id];\n        require(poolInfo[_tokenId].state == ShardsState.Buyout, \"WRONG_STATE\");\n\n        ShardToken(poolInfo[_tokenId].shardToken).burn(msg.sender, shardAmount);\n\n        uint256 amount = shardAmount.mul(p.ETHAmount).div(\n            totalSupply.sub(p.shardAmount)\n        );\n        TransferHelper.safeTransferETH(msg.sender, amount);\n    }\n\n    function RedeemForBuyoutFailed(uint256 _tokenId)\n        external\n        returns (uint256 shardTokenAmount, uint256 ETHAmount)\n    {\n        uint256 id = proposalID[_tokenId];\n        Proposal memory p = proposals[id];\n        require(msg.sender == p.submitter, \"UNAUTHORIZED\");\n        require(\n            poolInfo[_tokenId].state == ShardsState.BuyoutFailed &&\n                p.passed == false,\n            \"WRONG_STATE\"\n        );\n        TransferHelper.safeTransfer(\n            poolInfo[_tokenId].shardToken,\n            msg.sender,\n            p.shardAmount\n        );\n        TransferHelper.safeTransferETH(msg.sender, p.ETHAmount);\n\n        poolInfo[_tokenId].state == ShardsState.Live;\n    }\n\n    function quote(\n        uint256 amountA,\n        uint256 reserveA,\n        uint256 reserveB\n    ) internal pure returns (uint256 amountB) {\n        require(amountA > 0, \"UniswapV2Library: INSUFFICIENT_AMOUNT\");\n        require(\n            reserveA > 0 && reserveB > 0,\n            \"UniswapV2Library: INSUFFICIENT_LIQUIDITY\"\n        );\n        amountB = amountA.mul(reserveB) / reserveA;\n    }\n\n    function getPrice(uint256 _tokenId)\n        internal\n        returns (uint256 currentPrice)\n    {\n        address lPTokenAddress = IUniswapV2Factory(factory).getPair(\n            poolInfo[_tokenId].shardToken,\n            WETH\n        );\n        (uint112 _reserve0, uint112 _reserve1, ) = IUniswapV2Pair(\n            lPTokenAddress\n        )\n            .getReserves();\n        currentPrice = quote(1, _reserve1, _reserve0);\n    }\n}\n",
  "sourcePath": "/Users/admin/myproject/NFT/contracts/ShardsMarket.sol",
  "compiler": {
    "name": "solc",
    "version": "0.6.12+commit.27d51765.Emscripten.clang"
  },
  "schemaVersion": "3.2.5",
  "updatedAt": "2020-10-27T14:12:56.730Z",
  "devdoc": {
    "kind": "dev",
    "methods": {},
    "version": 1
  },
  "userdoc": {
    "kind": "user",
    "methods": {},
    "version": 1
  }
}