{
  "contractName": "ShardsMarket",
  "abi": [
    {
      "inputs": [
        {
          "internalType": "address",
          "name": "_WETH",
          "type": "address"
        },
        {
          "internalType": "address",
          "name": "_factory",
          "type": "address"
        },
        {
          "internalType": "address",
          "name": "_governance",
          "type": "address"
        }
      ],
      "stateMutability": "nonpayable",
      "type": "constructor"
    },
    {
      "inputs": [
        {
          "internalType": "address",
          "name": "",
          "type": "address"
        }
      ],
      "name": "LPToken",
      "outputs": [
        {
          "internalType": "address",
          "name": "",
          "type": "address"
        }
      ],
      "stateMutability": "view",
      "type": "function"
    },
    {
      "inputs": [],
      "name": "WETH",
      "outputs": [
        {
          "internalType": "address",
          "name": "",
          "type": "address"
        }
      ],
      "stateMutability": "view",
      "type": "function"
    },
    {
      "inputs": [
        {
          "internalType": "uint256",
          "name": "",
          "type": "uint256"
        }
      ],
      "name": "allPools",
      "outputs": [
        {
          "internalType": "uint256",
          "name": "",
          "type": "uint256"
        }
      ],
      "stateMutability": "view",
      "type": "function"
    },
    {
      "inputs": [
        {
          "internalType": "address",
          "name": "",
          "type": "address"
        },
        {
          "internalType": "address",
          "name": "",
          "type": "address"
        }
      ],
      "name": "blocked",
      "outputs": [
        {
          "internalType": "uint256",
          "name": "",
          "type": "uint256"
        }
      ],
      "stateMutability": "view",
      "type": "function"
    },
    {
      "inputs": [],
      "name": "buyOutTimes",
      "outputs": [
        {
          "internalType": "uint256",
          "name": "",
          "type": "uint256"
        }
      ],
      "stateMutability": "view",
      "type": "function"
    },
    {
      "inputs": [],
      "name": "max",
      "outputs": [
        {
          "internalType": "uint256",
          "name": "",
          "type": "uint256"
        }
      ],
      "stateMutability": "view",
      "type": "function"
    },
    {
      "inputs": [],
      "name": "passNeeded",
      "outputs": [
        {
          "internalType": "uint256",
          "name": "",
          "type": "uint256"
        }
      ],
      "stateMutability": "view",
      "type": "function"
    },
    {
      "inputs": [
        {
          "internalType": "uint256",
          "name": "",
          "type": "uint256"
        }
      ],
      "name": "poolInfo",
      "outputs": [
        {
          "internalType": "address",
          "name": "creator",
          "type": "address"
        },
        {
          "internalType": "enum ShardsMarket.ShardsState",
          "name": "state",
          "type": "uint8"
        },
        {
          "internalType": "uint256",
          "name": "createTime",
          "type": "uint256"
        },
        {
          "internalType": "address",
          "name": "shardToken",
          "type": "address"
        },
        {
          "internalType": "uint256",
          "name": "balanceOfETH",
          "type": "uint256"
        },
        {
          "internalType": "string",
          "name": "shardName",
          "type": "string"
        },
        {
          "internalType": "string",
          "name": "shardSymbol",
          "type": "string"
        },
        {
          "internalType": "uint256",
          "name": "minPrice",
          "type": "uint256"
        },
        {
          "internalType": "address",
          "name": "nft",
          "type": "address"
        },
        {
          "internalType": "uint256",
          "name": "totalSupply",
          "type": "uint256"
        },
        {
          "internalType": "uint256",
          "name": "shardPrice",
          "type": "uint256"
        },
        {
          "internalType": "bool",
          "name": "isCreateWithDraw",
          "type": "bool"
        }
      ],
      "stateMutability": "view",
      "type": "function"
    },
    {
      "inputs": [
        {
          "internalType": "uint256",
          "name": "",
          "type": "uint256"
        }
      ],
      "name": "proposalID",
      "outputs": [
        {
          "internalType": "uint256",
          "name": "",
          "type": "uint256"
        }
      ],
      "stateMutability": "view",
      "type": "function"
    },
    {
      "inputs": [
        {
          "internalType": "uint256",
          "name": "",
          "type": "uint256"
        }
      ],
      "name": "proposals",
      "outputs": [
        {
          "internalType": "uint256",
          "name": "votesReceived",
          "type": "uint256"
        },
        {
          "internalType": "uint256",
          "name": "voteTotal",
          "type": "uint256"
        },
        {
          "internalType": "bool",
          "name": "passed",
          "type": "bool"
        },
        {
          "internalType": "address",
          "name": "submitter",
          "type": "address"
        },
        {
          "internalType": "uint256",
          "name": "voteDeadline",
          "type": "uint256"
        },
        {
          "internalType": "uint256",
          "name": "shardAmount",
          "type": "uint256"
        },
        {
          "internalType": "uint256",
          "name": "ETHAmount",
          "type": "uint256"
        }
      ],
      "stateMutability": "view",
      "type": "function"
    },
    {
      "inputs": [],
      "name": "proposolIdCount",
      "outputs": [
        {
          "internalType": "uint256",
          "name": "",
          "type": "uint256"
        }
      ],
      "stateMutability": "view",
      "type": "function"
    },
    {
      "inputs": [],
      "name": "shardPoolIdCount",
      "outputs": [
        {
          "internalType": "uint256",
          "name": "",
          "type": "uint256"
        }
      ],
      "stateMutability": "view",
      "type": "function"
    },
    {
      "inputs": [
        {
          "internalType": "uint256",
          "name": "",
          "type": "uint256"
        },
        {
          "internalType": "address",
          "name": "",
          "type": "address"
        }
      ],
      "name": "userInfo",
      "outputs": [
        {
          "internalType": "uint256",
          "name": "amount",
          "type": "uint256"
        },
        {
          "internalType": "bool",
          "name": "isWithdrawShard",
          "type": "bool"
        }
      ],
      "stateMutability": "view",
      "type": "function"
    },
    {
      "inputs": [],
      "name": "voteLenth",
      "outputs": [
        {
          "internalType": "uint256",
          "name": "",
          "type": "uint256"
        }
      ],
      "stateMutability": "view",
      "type": "function"
    },
    {
      "inputs": [
        {
          "internalType": "uint256",
          "name": "",
          "type": "uint256"
        },
        {
          "internalType": "address",
          "name": "",
          "type": "address"
        }
      ],
      "name": "voted",
      "outputs": [
        {
          "internalType": "bool",
          "name": "",
          "type": "bool"
        }
      ],
      "stateMutability": "view",
      "type": "function"
    },
    {
      "inputs": [
        {
          "internalType": "address",
          "name": "nft",
          "type": "address"
        },
        {
          "internalType": "uint256",
          "name": "_tokenId",
          "type": "uint256"
        },
        {
          "internalType": "string",
          "name": "shardName",
          "type": "string"
        },
        {
          "internalType": "string",
          "name": "shardSymbol",
          "type": "string"
        },
        {
          "internalType": "uint256",
          "name": "minPrice",
          "type": "uint256"
        }
      ],
      "name": "CreateShareds",
      "outputs": [
        {
          "internalType": "uint256",
          "name": "shardPoolId",
          "type": "uint256"
        }
      ],
      "stateMutability": "nonpayable",
      "type": "function"
    },
    {
      "inputs": [
        {
          "internalType": "uint256",
          "name": "_shardPoolId",
          "type": "uint256"
        },
        {
          "internalType": "uint256",
          "name": "amount",
          "type": "uint256"
        }
      ],
      "name": "Stake",
      "outputs": [],
      "stateMutability": "payable",
      "type": "function"
    },
    {
      "inputs": [
        {
          "internalType": "uint256",
          "name": "_shardPoolId",
          "type": "uint256"
        },
        {
          "internalType": "uint256",
          "name": "amount",
          "type": "uint256"
        }
      ],
      "name": "Redeem",
      "outputs": [],
      "stateMutability": "payable",
      "type": "function"
    },
    {
      "inputs": [
        {
          "internalType": "uint256",
          "name": "_shardPoolId",
          "type": "uint256"
        }
      ],
      "name": "SetPrice",
      "outputs": [],
      "stateMutability": "nonpayable",
      "type": "function"
    },
    {
      "inputs": [
        {
          "internalType": "uint256",
          "name": "_shardPoolId",
          "type": "uint256"
        }
      ],
      "name": "RedeemInSubscriptionFailed",
      "outputs": [],
      "stateMutability": "nonpayable",
      "type": "function"
    },
    {
      "inputs": [
        {
          "internalType": "uint256",
          "name": "_shardPoolId",
          "type": "uint256"
        }
      ],
      "name": "WithdrawShardToken",
      "outputs": [],
      "stateMutability": "nonpayable",
      "type": "function"
    },
    {
      "inputs": [
        {
          "internalType": "uint256",
          "name": "_shardPoolId",
          "type": "uint256"
        }
      ],
      "name": "CreatorWithdrawETH",
      "outputs": [],
      "stateMutability": "nonpayable",
      "type": "function"
    },
    {
      "inputs": [
        {
          "internalType": "uint256",
          "name": "_shardPoolId",
          "type": "uint256"
        },
        {
          "internalType": "uint256",
          "name": "ETHAmount",
          "type": "uint256"
        }
      ],
      "name": "BuyOut",
      "outputs": [
        {
          "internalType": "uint256",
          "name": "proposalId",
          "type": "uint256"
        }
      ],
      "stateMutability": "nonpayable",
      "type": "function"
    },
    {
      "inputs": [
        {
          "internalType": "uint256",
          "name": "_shardPoolId",
          "type": "uint256"
        },
        {
          "internalType": "bool",
          "name": "isAgree",
          "type": "bool"
        }
      ],
      "name": "Vote",
      "outputs": [],
      "stateMutability": "nonpayable",
      "type": "function"
    },
    {
      "inputs": [
        {
          "internalType": "uint256",
          "name": "_shardPoolId",
          "type": "uint256"
        }
      ],
      "name": "VoteResultComfirm",
      "outputs": [
        {
          "internalType": "bool",
          "name": "result",
          "type": "bool"
        }
      ],
      "stateMutability": "nonpayable",
      "type": "function"
    },
    {
      "inputs": [
        {
          "internalType": "uint256",
          "name": "_shardPoolId",
          "type": "uint256"
        },
        {
          "internalType": "uint256",
          "name": "shardAmount",
          "type": "uint256"
        }
      ],
      "name": "ExchangeForETH",
      "outputs": [
        {
          "internalType": "uint256",
          "name": "ETHAmount",
          "type": "uint256"
        }
      ],
      "stateMutability": "nonpayable",
      "type": "function"
    },
    {
      "inputs": [
        {
          "internalType": "uint256",
          "name": "_shardPoolId",
          "type": "uint256"
        }
      ],
      "name": "RedeemForBuyoutFailed",
      "outputs": [
        {
          "internalType": "uint256",
          "name": "shardTokenAmount",
          "type": "uint256"
        },
        {
          "internalType": "uint256",
          "name": "ETHAmount",
          "type": "uint256"
        }
      ],
      "stateMutability": "nonpayable",
      "type": "function"
    },
    {
      "inputs": [
        {
          "internalType": "uint256",
          "name": "_deadlineForStaking",
          "type": "uint256"
        }
      ],
      "name": "SetDeadlineForStaking",
      "outputs": [],
      "stateMutability": "nonpayable",
      "type": "function"
    },
    {
      "inputs": [
        {
          "internalType": "uint256",
          "name": "_deadlineForRedeem",
          "type": "uint256"
        }
      ],
      "name": "SetDeadlineForRedeem",
      "outputs": [],
      "stateMutability": "nonpayable",
      "type": "function"
    },
    {
      "inputs": [
        {
          "internalType": "uint256",
          "name": "_shardsCreatorProportion",
          "type": "uint256"
        }
      ],
      "name": "SetShardsCreatorProportion",
      "outputs": [],
      "stateMutability": "nonpayable",
      "type": "function"
    },
    {
      "inputs": [
        {
          "internalType": "uint256",
          "name": "_platformProportion",
          "type": "uint256"
        }
      ],
      "name": "SetPlatformProportion",
      "outputs": [],
      "stateMutability": "nonpayable",
      "type": "function"
    },
    {
      "inputs": [
        {
          "internalType": "uint256",
          "name": "_buyOutProportion",
          "type": "uint256"
        }
      ],
      "name": "SetBuyOutProportion",
      "outputs": [],
      "stateMutability": "nonpayable",
      "type": "function"
    },
    {
      "inputs": [
        {
          "internalType": "uint256",
          "name": "_buyOutTimes",
          "type": "uint256"
        }
      ],
      "name": "SetBuyOutTimes",
      "outputs": [],
      "stateMutability": "nonpayable",
      "type": "function"
    },
    {
      "inputs": [
        {
          "internalType": "uint256",
          "name": "_voteLenth",
          "type": "uint256"
        }
      ],
      "name": "SetVoteLenth",
      "outputs": [],
      "stateMutability": "nonpayable",
      "type": "function"
    },
    {
      "inputs": [
        {
          "internalType": "uint256",
          "name": "_passNeeded",
          "type": "uint256"
        }
      ],
      "name": "SetPassNeeded",
      "outputs": [],
      "stateMutability": "nonpayable",
      "type": "function"
    },
    {
      "inputs": [
        {
          "internalType": "uint256",
          "name": "_totalSupply",
          "type": "uint256"
        }
      ],
      "name": "SetTotalSupply",
      "outputs": [],
      "stateMutability": "nonpayable",
      "type": "function"
    }
  ],
  "bytecode": "0x60a06040526127106003556206978060045562093a8060055560056006556005600755600f60085560026009556000600a556000600f556203f480601055604b6015553480156200004f57600080fd5b5060405162006bfa38038062006bfa833981810160405260608110156200007557600080fd5b810190808051906020019092919080519060200190929190805190602001909291905050508273ffffffffffffffffffffffffffffffffffffffff1660808173ffffffffffffffffffffffffffffffffffffffff1660601b8152505081600260006101000a81548173ffffffffffffffffffffffffffffffffffffffff021916908373ffffffffffffffffffffffffffffffffffffffff16021790555080600160006101000a81548173ffffffffffffffffffffffffffffffffffffffff021916908373ffffffffffffffffffffffffffffffffffffffff16021790555050505060805160601c616a636200019760003980612f7252806130db52806134005280613481528061387352806140ae528061443352806151b15250616a636000f3fe60806040526004361061020e5760003560e01c80636ac5db1911610118578063bb6cf27e116100a0578063ccaf98ed1161006f578063ccaf98ed14610c2b578063e3829d5414610c66578063e462b18014610c9e578063f37df30914610e45578063f57d88df14610e805761020e565b8063bb6cf27e14610b2e578063be077ee014610b69578063c80ea35a14610bb8578063c9ec05ea14610bf35761020e565b806393f1a40b116100e757806393f1a40b146109a657806395e81ef714610a1e5780639b145bc014610a775780639c3366c214610ab2578063ad5c464814610aed5761020e565b80636ac5db191461087e57806373de1367146108a95780637824d978146109245780638bfa1f401461095f5761020e565b8063417ecf4b1161019b5780634ac17f831161016a5780634ac17f83146107415780634f5539c01461076c5780635277b4ae146107a7578063587d10c8146108185780636481ae58146108535761020e565b8063417ecf4b1461066157806341d1de971461069c578063451d11d7146106eb57806348be1535146107165761020e565b806312ff8827116101e257806312ff8827146103555780631526fe27146103ab578063173c5df5146105605780631d67ef251461058b57806330f200d8146106105761020e565b8062aa5db214610213578063013cf08b1461024e57806301d36779146102df57806304d81f321461031a575b600080fd5b34801561021f57600080fd5b5061024c6004803603602081101561023657600080fd5b8101908080359060200190929190505050610ed9565b005b34801561025a57600080fd5b506102876004803603602081101561027157600080fd5b8101908080359060200190929190505050610fa6565b6040518088815260200187815260200186151581526020018573ffffffffffffffffffffffffffffffffffffffff16815260200184815260200183815260200182815260200197505050505050505060405180910390f35b3480156102eb57600080fd5b506103186004803603602081101561030257600080fd5b8101908080359060200190929190505050611015565b005b34801561032657600080fd5b506103536004803603602081101561033d57600080fd5b81019080803590602001909291905050506110e2565b005b34801561036157600080fd5b5061038e6004803603602081101561037857600080fd5b81019080803590602001909291905050506111af565b604051808381526020018281526020019250505060405180910390f35b3480156103b757600080fd5b506103e4600480360360208110156103ce57600080fd5b8101908080359060200190929190505050611495565b604051808d73ffffffffffffffffffffffffffffffffffffffff1681526020018c600581111561041057fe5b81526020018b81526020018a73ffffffffffffffffffffffffffffffffffffffff16815260200189815260200180602001806020018881526020018773ffffffffffffffffffffffffffffffffffffffff168152602001868152602001858152602001841515815260200183810383528a818151815260200191508051906020019080838360005b838110156104b3578082015181840152602081019050610498565b50505050905090810190601f1680156104e05780820380516001836020036101000a031916815260200191505b50838103825289818151815260200191508051906020019080838360005b838110156105195780820151818401526020810190506104fe565b50505050905090810190601f1680156105465780820380516001836020036101000a031916815260200191505b509e50505050505050505050505050505060405180910390f35b34801561056c57600080fd5b5061057561169f565b6040518082815260200191505060405180910390f35b34801561059757600080fd5b506105fa600480360360408110156105ae57600080fd5b81019080803573ffffffffffffffffffffffffffffffffffffffff169060200190929190803573ffffffffffffffffffffffffffffffffffffffff1690602001909291905050506116a5565b6040518082815260200191505060405180910390f35b34801561061c57600080fd5b506106496004803603602081101561063357600080fd5b81019080803590602001909291905050506116ca565b60405180821515815260200191505060405180910390f35b34801561066d57600080fd5b5061069a6004803603602081101561068457600080fd5b8101908080359060200190929190505050611c05565b005b3480156106a857600080fd5b506106d5600480360360208110156106bf57600080fd5b8101908080359060200190929190505050611cd2565b6040518082815260200191505060405180910390f35b3480156106f757600080fd5b50610700611cf3565b6040518082815260200191505060405180910390f35b34801561072257600080fd5b5061072b611cf9565b6040518082815260200191505060405180910390f35b34801561074d57600080fd5b50610756611cff565b6040518082815260200191505060405180910390f35b34801561077857600080fd5b506107a56004803603602081101561078f57600080fd5b8101908080359060200190929190505050611d05565b005b3480156107b357600080fd5b50610800600480360360408110156107ca57600080fd5b8101908080359060200190929190803573ffffffffffffffffffffffffffffffffffffffff169060200190929190505050611ea3565b60405180821515815260200191505060405180910390f35b34801561082457600080fd5b506108516004803603602081101561083b57600080fd5b8101908080359060200190929190505050611ed2565b005b34801561085f57600080fd5b5061086861229e565b6040518082815260200191505060405180910390f35b34801561088a57600080fd5b506108936122a4565b6040518082815260200191505060405180910390f35b3480156108b557600080fd5b506108f8600480360360208110156108cc57600080fd5b81019080803573ffffffffffffffffffffffffffffffffffffffff1690602001909291905050506122a9565b604051808273ffffffffffffffffffffffffffffffffffffffff16815260200191505060405180910390f35b34801561093057600080fd5b5061095d6004803603602081101561094757600080fd5b81019080803590602001909291905050506122dc565b005b34801561096b57600080fd5b506109a46004803603604081101561098257600080fd5b81019080803590602001909291908035151590602001909291905050506123a9565b005b3480156109b257600080fd5b506109ff600480360360408110156109c957600080fd5b8101908080359060200190929190803573ffffffffffffffffffffffffffffffffffffffff169060200190929190505050612901565b6040518083815260200182151581526020019250505060405180910390f35b348015610a2a57600080fd5b50610a6160048036036040811015610a4157600080fd5b81019080803590602001909291908035906020019092919050505061293f565b6040518082815260200191505060405180910390f35b348015610a8357600080fd5b50610ab060048036036020811015610a9a57600080fd5b8101908080359060200190929190505050612be9565b005b348015610abe57600080fd5b50610aeb60048036036020811015610ad557600080fd5b810190808035906020019092919050505061300c565b005b348015610af957600080fd5b50610b026130d9565b604051808273ffffffffffffffffffffffffffffffffffffffff16815260200191505060405180910390f35b348015610b3a57600080fd5b50610b6760048036036020811015610b5157600080fd5b81019080803590602001909291905050506130fd565b005b348015610b7557600080fd5b50610ba260048036036020811015610b8c57600080fd5b81019080803590602001909291905050506131ca565b6040518082815260200191505060405180910390f35b348015610bc457600080fd5b50610bf160048036036020811015610bdb57600080fd5b81019080803590602001909291905050506131e2565b005b610c2960048036036040811015610c0957600080fd5b8101908080359060200190929190803590602001909291905050506132af565b005b348015610c3757600080fd5b50610c6460048036036020811015610c4e57600080fd5b8101908080359060200190929190505050613655565b005b610c9c60048036036040811015610c7c57600080fd5b810190808035906020019092919080359060200190929190505050613722565b005b348015610caa57600080fd5b50610e2f600480360360a0811015610cc157600080fd5b81019080803573ffffffffffffffffffffffffffffffffffffffff1690602001909291908035906020019092919080359060200190640100000000811115610d0857600080fd5b820183602082011115610d1a57600080fd5b80359060200191846001830284011164010000000083111715610d3c57600080fd5b91908080601f016020809104026020016040519081016040528093929190818152602001838380828437600081840152601f19601f82011690508083019250505050505050919291929080359060200190640100000000811115610d9f57600080fd5b820183602082011115610db157600080fd5b80359060200191846001830284011164010000000083111715610dd357600080fd5b91908080601f016020809104026020016040519081016040528093929190818152602001838380828437600081840152601f19601f82011690508083019250505050505050919291929080359060200190929190505050613a0a565b6040518082815260200191505060405180910390f35b348015610e5157600080fd5b50610e7e60048036036020811015610e6857600080fd5b8101908080359060200190929190505050613e94565b005b348015610e8c57600080fd5b50610ec360048036036040811015610ea357600080fd5b810190808035906020019092919080359060200190929190505050614145565b6040518082815260200191505060405180910390f35b600160009054906101000a900473ffffffffffffffffffffffffffffffffffffffff1673ffffffffffffffffffffffffffffffffffffffff163373ffffffffffffffffffffffffffffffffffffffff1614610f9c576040517f08c379a000000000000000000000000000000000000000000000000000000000815260040180806020018281038252600c8152602001807f554e415554484f52495a4544000000000000000000000000000000000000000081525060200191505060405180910390fd5b8060068190555050565b60126020528060005260406000206000915090508060000154908060010154908060020160009054906101000a900460ff16908060020160019054906101000a900473ffffffffffffffffffffffffffffffffffffffff16908060030154908060040154908060050154905087565b600160009054906101000a900473ffffffffffffffffffffffffffffffffffffffff1673ffffffffffffffffffffffffffffffffffffffff163373ffffffffffffffffffffffffffffffffffffffff16146110d8576040517f08c379a000000000000000000000000000000000000000000000000000000000815260040180806020018281038252600c8152602001807f554e415554484f52495a4544000000000000000000000000000000000000000081525060200191505060405180910390fd5b8060108190555050565b600160009054906101000a900473ffffffffffffffffffffffffffffffffffffffff1673ffffffffffffffffffffffffffffffffffffffff163373ffffffffffffffffffffffffffffffffffffffff16146111a5576040517f08c379a000000000000000000000000000000000000000000000000000000000815260040180806020018281038252600c8152602001807f554e415554484f52495a4544000000000000000000000000000000000000000081525060200191505060405180910390fd5b8060058190555050565b6000806000601160008581526020019081526020016000205490506111d2615869565b601260008381526020019081526020016000206040518060e001604052908160008201548152602001600182015481526020016002820160009054906101000a900460ff161515151581526020016002820160019054906101000a900473ffffffffffffffffffffffffffffffffffffffff1673ffffffffffffffffffffffffffffffffffffffff1673ffffffffffffffffffffffffffffffffffffffff16815260200160038201548152602001600482015481526020016005820154815250509050806060015173ffffffffffffffffffffffffffffffffffffffff163373ffffffffffffffffffffffffffffffffffffffff161461133a576040517f08c379a000000000000000000000000000000000000000000000000000000000815260040180806020018281038252600c8152602001807f554e415554484f52495a4544000000000000000000000000000000000000000081525060200191505060405180910390fd5b6004600581111561134757fe5b600c600087815260200190815260200160002060000160149054906101000a900460ff16600581111561137657fe5b14801561138b57506000151581604001511515145b6113fd576040517f08c379a000000000000000000000000000000000000000000000000000000000815260040180806020018281038252600b8152602001807f57524f4e475f535441544500000000000000000000000000000000000000000081525060200191505060405180910390fd5b611442600c600087815260200190815260200160002060020160009054906101000a900473ffffffffffffffffffffffffffffffffffffffff16338360a0015161474a565b611450338260c0015161492d565b6000600581111561145d57fe5b600c600087815260200190815260200160002060000160149054906101000a900460ff16600581111561148c57fe5b50505050915091565b600c6020528060005260406000206000915090508060000160009054906101000a900473ffffffffffffffffffffffffffffffffffffffff16908060000160149054906101000a900460ff16908060010154908060020160009054906101000a900473ffffffffffffffffffffffffffffffffffffffff1690806003015490806004018054600181600116156101000203166002900480601f0160208091040260200160405190810160405280929190818152602001828054600181600116156101000203166002900480156115ac5780601f10611581576101008083540402835291602001916115ac565b820191906000526020600020905b81548152906001019060200180831161158f57829003601f168201915b505050505090806005018054600181600116156101000203166002900480601f01602080910402602001604051908101604052809291908181526020018280546001816001161561010002031660029004801561164a5780601f1061161f5761010080835404028352916020019161164a565b820191906000526020600020905b81548152906001019060200180831161162d57829003601f168201915b5050505050908060060154908060070160009054906101000a900473ffffffffffffffffffffffffffffffffffffffff169080600801549080600901549080600a0160009054906101000a900460ff1690508c565b600a5481565b6014602052816000526040600020602052806000526040600020600091509150505481565b600080601160008481526020019081526020016000205490506116eb615869565b601260008381526020019081526020016000206040518060e001604052908160008201548152602001600182015481526020016002820160009054906101000a900460ff161515151581526020016002820160019054906101000a900473ffffffffffffffffffffffffffffffffffffffff1673ffffffffffffffffffffffffffffffffffffffff1673ffffffffffffffffffffffffffffffffffffffff16815260200160038201548152602001600482015481526020016005820154815250509050806060015173ffffffffffffffffffffffffffffffffffffffff163373ffffffffffffffffffffffffffffffffffffffff1614611853576040517f08c379a000000000000000000000000000000000000000000000000000000000815260040180806020018281038252600c8152602001807f554e415554484f52495a4544000000000000000000000000000000000000000081525060200191505060405180910390fd5b80608001514210156118cd576040517f08c379a00000000000000000000000000000000000000000000000000000000081526004018080602001828103825260098152602001807f4e4f54205245414459000000000000000000000000000000000000000000000081525060200191505060405180910390fd5b600260058111156118da57fe5b600c600086815260200190815260200160002060000160149054906101000a900460ff16600581111561190957fe5b1461197c576040517f08c379a000000000000000000000000000000000000000000000000000000000815260040180806020018281038252600b8152602001807f57524f4e4720535441544500000000000000000000000000000000000000000081525060200191505060405180910390fd5b6119a8606461199a6015548460200151614a8c90919063ffffffff16565b614b1290919063ffffffff16565b816000015110611baa57600181604001901515908115158152505060019250600360058111156119d457fe5b600c600086815260200190815260200160002060000160149054906101000a900460ff166005811115611a0357fe5b5050600c600085815260200190815260200160002060020160009054906101000a900473ffffffffffffffffffffffffffffffffffffffff1673ffffffffffffffffffffffffffffffffffffffff16639dc29fac338360a001516040518363ffffffff1660e01b8152600401808373ffffffffffffffffffffffffffffffffffffffff16815260200182815260200192505050600060405180830381600087803b158015611ab057600080fd5b505af1158015611ac4573d6000803e3d6000fd5b50505050600c600085815260200190815260200160002060070160009054906101000a900473ffffffffffffffffffffffffffffffffffffffff1673ffffffffffffffffffffffffffffffffffffffff166342842e0e3033876040518463ffffffff1660e01b8152600401808473ffffffffffffffffffffffffffffffffffffffff1681526020018373ffffffffffffffffffffffffffffffffffffffff1681526020018281526020019350505050600060405180830381600087803b158015611b8d57600080fd5b505af1158015611ba1573d6000803e3d6000fd5b50505050611bfe565b60008160400190151590811515815250506000925060046005811115611bcc57fe5b600c600086815260200190815260200160002060000160149054906101000a900460ff166005811115611bfb57fe5b50505b5050919050565b600160009054906101000a900473ffffffffffffffffffffffffffffffffffffffff1673ffffffffffffffffffffffffffffffffffffffff163373ffffffffffffffffffffffffffffffffffffffff1614611cc8576040517f08c379a000000000000000000000000000000000000000000000000000000000815260040180806020018281038252600c8152602001807f554e415554484f52495a4544000000000000000000000000000000000000000081525060200191505060405180910390fd5b8060158190555050565b600b8181548110611cdf57fe5b906000526020600020016000915090505481565b60155481565b60095481565b60105481565b611d30600554600c600084815260200190815260200160002060010154614b5c90919063ffffffff16565b421015611da5576040517f08c379a000000000000000000000000000000000000000000000000000000000815260040180806020018281038252600d8152602001807f4e46543a4e4f542052454144590000000000000000000000000000000000000081525060200191505060405180910390fd5b60006005811115611db257fe5b600c600083815260200190815260200160002060000160149054906101000a900460ff166005811115611de157fe5b14611e54576040517f08c379a000000000000000000000000000000000000000000000000000000000815260040180806020018281038252601a8152602001807f4e46543a4c49564520535441544520495320524551554952454400000000000081525060200191505060405180910390fd5b600c600082815260200190815260200160002060060154600c6000838152602001908152602001600020600301541015611e9657611e9181614be4565b611ea0565b611e9f81614d32565b5b50565b60136020528160005260406000206020528060005260406000206000915091509054906101000a900460ff1681565b60016005811115611edf57fe5b600c600083815260200190815260200160002060000160149054906101000a900460ff166005811115611f0e57fe5b14611f81576040517f08c379a000000000000000000000000000000000000000000000000000000000815260040180806020018281038252600b8152602001807f57524f4e475f535441544500000000000000000000000000000000000000000081525060200191505060405180910390fd5b6000600d600083815260200190815260200160002060003373ffffffffffffffffffffffffffffffffffffffff1673ffffffffffffffffffffffffffffffffffffffff1681526020019081526020016000206000015490506000600d600084815260200190815260200160002060003373ffffffffffffffffffffffffffffffffffffffff1673ffffffffffffffffffffffffffffffffffffffff16815260200190815260200160002060010160009054906101000a900460ff16905060008211801561204c575080155b6120be576040517f08c379a00000000000000000000000000000000000000000000000000000000081526004018080602001828103825260128152602001807f494e5355464649454e542042414c414e4345000000000000000000000000000081525060200191505060405180910390fd5b600061212560646121176120f26007546120e460065460646150ed90919063ffffffff16565b6150ed90919063ffffffff16565b600c600089815260200190815260200160002060080154614a8c90919063ffffffff16565b614b1290919063ffffffff16565b90506000600c600086815260200190815260200160002060030154905060006121698261215b8588614a8c90919063ffffffff16565b614b1290919063ffffffff16565b90506001600d600088815260200190815260200160002060003373ffffffffffffffffffffffffffffffffffffffff1673ffffffffffffffffffffffffffffffffffffffff16815260200190815260200160002060010160006101000a81548160ff021916908315150217905550600c600087815260200190815260200160002060020160009054906101000a900473ffffffffffffffffffffffffffffffffffffffff1673ffffffffffffffffffffffffffffffffffffffff166340c10f1933836040518363ffffffff1660e01b8152600401808373ffffffffffffffffffffffffffffffffffffffff16815260200182815260200192505050600060405180830381600087803b15801561227e57600080fd5b505af1158015612292573d6000803e3d6000fd5b50505050505050505050565b600f5481565b606481565b600e6020528060005260406000206000915054906101000a900473ffffffffffffffffffffffffffffffffffffffff1681565b600160009054906101000a900473ffffffffffffffffffffffffffffffffffffffff1673ffffffffffffffffffffffffffffffffffffffff163373ffffffffffffffffffffffffffffffffffffffff161461239f576040517f08c379a000000000000000000000000000000000000000000000000000000000815260040180806020018281038252600c8152602001807f554e415554484f52495a4544000000000000000000000000000000000000000081525060200191505060405180910390fd5b8060078190555050565b6000600c600084815260200190815260200160002060020160009054906101000a900473ffffffffffffffffffffffffffffffffffffffff1673ffffffffffffffffffffffffffffffffffffffff166370a08231336040518263ffffffff1660e01b8152600401808273ffffffffffffffffffffffffffffffffffffffff16815260200191505060206040518083038186803b15801561244857600080fd5b505afa15801561245c573d6000803e3d6000fd5b505050506040513d602081101561247257600080fd5b8101908080519060200190929190505050905060008110156124fc576040517f08c379a00000000000000000000000000000000000000000000000000000000081526004018080602001828103825260168152602001807f494e53554646494349454e5420564f544552494748540000000000000000000081525060200191505060405180910390fd5b6002600581111561250957fe5b600c600085815260200190815260200160002060000160149054906101000a900460ff16600581111561253857fe5b146125ab576040517f08c379a000000000000000000000000000000000000000000000000000000000815260040180806020018281038252600b8152602001807f57524f4e4720535441544500000000000000000000000000000000000000000081525060200191505060405180910390fd5b6000601160008581526020019081526020016000205490506125cb615869565b601260008381526020019081526020016000206040518060e001604052908160008201548152602001600182015481526020016002820160009054906101000a900460ff161515151581526020016002820160019054906101000a900473ffffffffffffffffffffffffffffffffffffffff1673ffffffffffffffffffffffffffffffffffffffff1673ffffffffffffffffffffffffffffffffffffffff168152602001600382015481526020016004820154815260200160058201548152505090508060800151421115612708576040517f08c379a00000000000000000000000000000000000000000000000000000000081526004018080602001828103825260078152602001807f455850495245440000000000000000000000000000000000000000000000000081525060200191505060405180910390fd5b600015156013600084815260200190815260200160002060003373ffffffffffffffffffffffffffffffffffffffff1673ffffffffffffffffffffffffffffffffffffffff16815260200190815260200160002060009054906101000a900460ff1615151461277657600080fd5b8160146000600c600089815260200190815260200160002060020160009054906101000a900473ffffffffffffffffffffffffffffffffffffffff1673ffffffffffffffffffffffffffffffffffffffff1673ffffffffffffffffffffffffffffffffffffffff16815260200190815260200160002060003373ffffffffffffffffffffffffffffffffffffffff1673ffffffffffffffffffffffffffffffffffffffff16815260200190815260200160002081905550600115156013600084815260200190815260200160002060003373ffffffffffffffffffffffffffffffffffffffff1673ffffffffffffffffffffffffffffffffffffffff16815260200190815260200160002060009054906101000a9050505083156128d9576128ab838260000151614b5c90919063ffffffff16565b8160000181815250506128cb838260200151614b5c90919063ffffffff16565b8160200181815250506128fa565b6128f0838260200151614b5c90919063ffffffff16565b8160200181815250505b5050505050565b600d602052816000526040600020602052806000526040600020600091509150508060000154908060010160009054906101000a900460ff16905082565b60008060116000858152602001908152602001600020549050612960615869565b601260008381526020019081526020016000206040518060e001604052908160008201548152602001600182015481526020016002820160009054906101000a900460ff161515151581526020016002820160019054906101000a900473ffffffffffffffffffffffffffffffffffffffff1673ffffffffffffffffffffffffffffffffffffffff1673ffffffffffffffffffffffffffffffffffffffff1681526020016003820154815260200160048201548152602001600582015481525050905060036005811115612a3057fe5b600c600087815260200190815260200160002060000160149054906101000a900460ff166005811115612a5f57fe5b14612ad2576040517f08c379a000000000000000000000000000000000000000000000000000000000815260040180806020018281038252600b8152602001807f57524f4e4720535441544500000000000000000000000000000000000000000081525060200191505060405180910390fd5b600c600086815260200190815260200160002060020160009054906101000a900473ffffffffffffffffffffffffffffffffffffffff1673ffffffffffffffffffffffffffffffffffffffff16639dc29fac33866040518363ffffffff1660e01b8152600401808373ffffffffffffffffffffffffffffffffffffffff16815260200182815260200192505050600060405180830381600087803b158015612b7957600080fd5b505af1158015612b8d573d6000803e3d6000fd5b505050506000612bd4612baf8360a001516003546150ed90919063ffffffff16565b612bc68460c0015188614a8c90919063ffffffff16565b614b1290919063ffffffff16565b9050612be0338261492d565b50505092915050565b600c600082815260200190815260200160002060000160009054906101000a900473ffffffffffffffffffffffffffffffffffffffff1673ffffffffffffffffffffffffffffffffffffffff163373ffffffffffffffffffffffffffffffffffffffff1614612cc0576040517f08c379a000000000000000000000000000000000000000000000000000000000815260040180806020018281038252600c8152602001807f554e415554484f52495a4544000000000000000000000000000000000000000081525060200191505060405180910390fd5b60016005811115612ccd57fe5b600c600083815260200190815260200160002060000160149054906101000a900460ff166005811115612cfc57fe5b14612d6f576040517f08c379a000000000000000000000000000000000000000000000000000000000815260040180806020018281038252600b8152602001807f57524f4e475f535441544500000000000000000000000000000000000000000081525060200191505060405180910390fd5b600c6000828152602001908152602001600020600a0160009054906101000a900460ff1615612e06576040517f08c379a00000000000000000000000000000000000000000000000000000000081526004018080602001828103825260108152602001807f414c52454144592057495448445241570000000000000000000000000000000081525060200191505060405180910390fd5b6000600c60008381526020019081526020016000206003015490506000600c600084815260200190815260200160002060020160009054906101000a900473ffffffffffffffffffffffffffffffffffffffff1673ffffffffffffffffffffffffffffffffffffffff166370a08231306040518263ffffffff1660e01b8152600401808273ffffffffffffffffffffffffffffffffffffffff16815260200191505060206040518083038186803b158015612ec057600080fd5b505afa158015612ed4573d6000803e3d6000fd5b505050506040513d6020811015612eea57600080fd5b810190808051906020019092919050505090506000612f2882600c600087815260200190815260200160002060090154614a8c90919063ffffffff16565b90506000612f3f82856150ed90919063ffffffff16565b90506001600c6000878152602001908152602001600020600a0160006101000a81548160ff0219169083151502179055507f000000000000000000000000000000000000000000000000000000000000000073ffffffffffffffffffffffffffffffffffffffff16632e1a7d4d826040518263ffffffff1660e01b815260040180828152602001915050600060405180830381600087803b158015612fe357600080fd5b505af1158015612ff7573d6000803e3d6000fd5b50505050613005338261492d565b5050505050565b600160009054906101000a900473ffffffffffffffffffffffffffffffffffffffff1673ffffffffffffffffffffffffffffffffffffffff163373ffffffffffffffffffffffffffffffffffffffff16146130cf576040517f08c379a000000000000000000000000000000000000000000000000000000000815260040180806020018281038252600c8152602001807f554e415554484f52495a4544000000000000000000000000000000000000000081525060200191505060405180910390fd5b8060048190555050565b7f000000000000000000000000000000000000000000000000000000000000000081565b600160009054906101000a900473ffffffffffffffffffffffffffffffffffffffff1673ffffffffffffffffffffffffffffffffffffffff163373ffffffffffffffffffffffffffffffffffffffff16146131c0576040517f08c379a000000000000000000000000000000000000000000000000000000000815260040180806020018281038252600c8152602001807f554e415554484f52495a4544000000000000000000000000000000000000000081525060200191505060405180910390fd5b8060088190555050565b60116020528060005260406000206000915090505481565b600160009054906101000a900473ffffffffffffffffffffffffffffffffffffffff1673ffffffffffffffffffffffffffffffffffffffff163373ffffffffffffffffffffffffffffffffffffffff16146132a5576040517f08c379a000000000000000000000000000000000000000000000000000000000815260040180806020018281038252600c8152602001807f554e415554484f52495a4544000000000000000000000000000000000000000081525060200191505060405180910390fd5b8060038190555050565b6132da600454600c600085815260200190815260200160002060010154614b5c90919063ffffffff16565b42111561334f576040517f08c379a000000000000000000000000000000000000000000000000000000000815260040180806020018281038252600b8152602001807f4e46543a4558504952454400000000000000000000000000000000000000000081525060200191505060405180910390fd5b6000600581111561335c57fe5b600c600084815260200190815260200160002060000160149054906101000a900460ff16600581111561338b57fe5b146133fe576040517f08c379a000000000000000000000000000000000000000000000000000000000815260040180806020018281038252601a8152602001807f4e46543a4c49564520535441544520495320524551554952454400000000000081525060200191505060405180910390fd5b7f000000000000000000000000000000000000000000000000000000000000000073ffffffffffffffffffffffffffffffffffffffff1663d0e30db0826040518263ffffffff1660e01b81526004016000604051808303818588803b15801561346657600080fd5b505af115801561347a573d6000803e3d6000fd5b50505050507f000000000000000000000000000000000000000000000000000000000000000073ffffffffffffffffffffffffffffffffffffffff1663a9059cbb30836040518363ffffffff1660e01b8152600401808373ffffffffffffffffffffffffffffffffffffffff16815260200182815260200192505050602060405180830381600087803b15801561351057600080fd5b505af1158015613524573d6000803e3d6000fd5b505050506040513d602081101561353a57600080fd5b810190808051906020019092919050505061355157fe5b6135b781600d600085815260200190815260200160002060003373ffffffffffffffffffffffffffffffffffffffff1673ffffffffffffffffffffffffffffffffffffffff16815260200190815260200160002060000154614b5c90919063ffffffff16565b600d600084815260200190815260200160002060003373ffffffffffffffffffffffffffffffffffffffff1673ffffffffffffffffffffffffffffffffffffffff1681526020019081526020016000206000018190555061363781600c600085815260200190815260200160002060030154614b5c90919063ffffffff16565b600c6000848152602001908152602001600020600301819055505050565b600160009054906101000a900473ffffffffffffffffffffffffffffffffffffffff1673ffffffffffffffffffffffffffffffffffffffff163373ffffffffffffffffffffffffffffffffffffffff1614613718576040517f08c379a000000000000000000000000000000000000000000000000000000000815260040180806020018281038252600c8152602001807f554e415554484f52495a4544000000000000000000000000000000000000000081525060200191505060405180910390fd5b8060098190555050565b61374d600554600c600085815260200190815260200160002060010154614b5c90919063ffffffff16565b4211156137c2576040517f08c379a000000000000000000000000000000000000000000000000000000000815260040180806020018281038252600b8152602001807f4e46543a4558504952454400000000000000000000000000000000000000000081525060200191505060405180910390fd5b600060058111156137cf57fe5b600c600084815260200190815260200160002060000160149054906101000a900460ff1660058111156137fe57fe5b14613871576040517f08c379a000000000000000000000000000000000000000000000000000000000815260040180806020018281038252601a8152602001807f4e46543a4c49564520535441544520495320524551554952454400000000000081525060200191505060405180910390fd5b7f000000000000000000000000000000000000000000000000000000000000000073ffffffffffffffffffffffffffffffffffffffff16632e1a7d4d826040518263ffffffff1660e01b815260040180828152602001915050600060405180830381600087803b1580156138e457600080fd5b505af11580156138f8573d6000803e3d6000fd5b50505050613906338261492d565b61396c81600d600085815260200190815260200160002060003373ffffffffffffffffffffffffffffffffffffffff1673ffffffffffffffffffffffffffffffffffffffff168152602001908152602001600020600001546150ed90919063ffffffff16565b600d600084815260200190815260200160002060003373ffffffffffffffffffffffffffffffffffffffff1673ffffffffffffffffffffffffffffffffffffffff168152602001908152602001600020600001819055506139ec81600c6000858152602001908152602001600020600301546150ed90919063ffffffff16565b600c6000848152602001908152602001600020600301819055505050565b60003373ffffffffffffffffffffffffffffffffffffffff168673ffffffffffffffffffffffffffffffffffffffff16636352211e876040518263ffffffff1660e01b81526004018082815260200191505060206040518083038186803b158015613a7457600080fd5b505afa158015613a88573d6000803e3d6000fd5b505050506040513d6020811015613a9e57600080fd5b810190808051906020019092919050505073ffffffffffffffffffffffffffffffffffffffff1614613b38576040517f08c379a000000000000000000000000000000000000000000000000000000000815260040180806020018281038252600c8152602001807f554e415554484f52495a4544000000000000000000000000000000000000000081525060200191505060405180910390fd5b8573ffffffffffffffffffffffffffffffffffffffff166342842e0e3330886040518463ffffffff1660e01b8152600401808473ffffffffffffffffffffffffffffffffffffffff1681526020018373ffffffffffffffffffffffffffffffffffffffff1681526020018281526020019350505050600060405180830381600087803b158015613bc757600080fd5b505af1158015613bdb573d6000803e3d6000fd5b505050506000600a541415613bf3576001600a819055505b600a5490506040518061018001604052803373ffffffffffffffffffffffffffffffffffffffff16815260200160006005811115613c2d57fe5b8152602001428152602001600073ffffffffffffffffffffffffffffffffffffffff168152602001600081526020018581526020018481526020018381526020018773ffffffffffffffffffffffffffffffffffffffff16815260200160035481526020016000815260200160001515815250600c600087815260200190815260200160002060008201518160000160006101000a81548173ffffffffffffffffffffffffffffffffffffffff021916908373ffffffffffffffffffffffffffffffffffffffff16021790555060208201518160000160146101000a81548160ff02191690836005811115613d1e57fe5b02179055506040820151816001015560608201518160020160006101000a81548173ffffffffffffffffffffffffffffffffffffffff021916908373ffffffffffffffffffffffffffffffffffffffff1602179055506080820151816003015560a0820151816004019080519060200190613d9a9291906158be565b5060c0820151816005019080519060200190613db79291906158be565b5060e082015181600601556101008201518160070160006101000a81548173ffffffffffffffffffffffffffffffffffffffff021916908373ffffffffffffffffffffffffffffffffffffffff1602179055506101208201518160080155610140820151816009015561016082015181600a0160006101000a81548160ff021916908315150217905550905050600b600a549080600181540180825580915050600190039060005260206000200160009091909190915055613e856001600a54614b5c90919063ffffffff16565b600a8190555095945050505050565b600580811115613ea057fe5b600c600083815260200190815260200160002060000160149054906101000a900460ff166005811115613ecf57fe5b14613f42576040517f08c379a000000000000000000000000000000000000000000000000000000000815260040180806020018281038252600b8152602001807f57524f4e475f535441544500000000000000000000000000000000000000000081525060200191505060405180910390fd5b6000600d600083815260200190815260200160002060003373ffffffffffffffffffffffffffffffffffffffff1673ffffffffffffffffffffffffffffffffffffffff16815260200190815260200160002060000154905060008111614010576040517f08c379a00000000000000000000000000000000000000000000000000000000081526004018080602001828103825260128152602001807f494e5355464649454e542042414c414e4345000000000000000000000000000081525060200191505060405180910390fd5b6000600d600084815260200190815260200160002060003373ffffffffffffffffffffffffffffffffffffffff1673ffffffffffffffffffffffffffffffffffffffff1681526020019081526020016000206000018190555061409281600c6000858152602001908152602001600020600301546150ed90919063ffffffff16565b600c6000848152602001908152602001600020600301819055507f000000000000000000000000000000000000000000000000000000000000000073ffffffffffffffffffffffffffffffffffffffff16632e1a7d4d826040518263ffffffff1660e01b815260040180828152602001915050600060405180830381600087803b15801561411f57600080fd5b505af1158015614133573d6000803e3d6000fd5b50505050614141338261492d565b5050565b600080600c600085815260200190815260200160002060020160009054906101000a900473ffffffffffffffffffffffffffffffffffffffff1673ffffffffffffffffffffffffffffffffffffffff166370a08231336040518263ffffffff1660e01b8152600401808273ffffffffffffffffffffffffffffffffffffffff16815260200191505060206040518083038186803b1580156141e557600080fd5b505afa1580156141f9573d6000803e3d6000fd5b505050506040513d602081101561420f57600080fd5b8101908080519060200190929190505050905061424c606461423e600854600354614a8c90919063ffffffff16565b614b1290919063ffffffff16565b8110156142c1576040517f08c379a00000000000000000000000000000000000000000000000000000000081526004018080602001828103825260128152602001807f494e5355464649454e542042414c414e4345000000000000000000000000000081525060200191505060405180910390fd5b600060058111156142ce57fe5b600c600086815260200190815260200160002060000160149054906101000a900460ff1660058111156142fd57fe5b14614370576040517f08c379a00000000000000000000000000000000000000000000000000000000081526004018080602001828103825260168152602001807f4c4956452053544154452049532052455155495245440000000000000000000081525060200191505060405180910390fd5b600061437b85615137565b90506143b9816143ab60035461439d60085460646150ed90919063ffffffff16565b614a8c90919063ffffffff16565b614a8c90919063ffffffff16565b84101561442e576040517f08c379a00000000000000000000000000000000000000000000000000000000081526004018080602001828103825260168152602001807f494e53554646494349454e5420455448414d4f554e540000000000000000000081525060200191505060405180910390fd5b61445a7f0000000000000000000000000000000000000000000000000000000000000000333087615347565b61449c600c600087815260200190815260200160002060020160009054906101000a900473ffffffffffffffffffffffffffffffffffffffff16333085615347565b6000600f5414156144b0576001600f819055505b600f5492506040518060e0016040528060008152602001600081526020016000151581526020013373ffffffffffffffffffffffffffffffffffffffff16815260200161450860105442614b5c90919063ffffffff16565b81526020018381526020018581525060126000600f548152602001908152602001600020600082015181600001556020820151816001015560408201518160020160006101000a81548160ff02191690831515021790555060608201518160020160016101000a81548173ffffffffffffffffffffffffffffffffffffffff021916908373ffffffffffffffffffffffffffffffffffffffff1602179055506080820151816003015560a0820151816004015560c082015181600501559050508260146000600c600089815260200190815260200160002060020160009054906101000a900473ffffffffffffffffffffffffffffffffffffffff1673ffffffffffffffffffffffffffffffffffffffff1673ffffffffffffffffffffffffffffffffffffffff16815260200190815260200160002060003373ffffffffffffffffffffffffffffffffffffffff1673ffffffffffffffffffffffffffffffffffffffff1681526020019081526020016000208190555060016013600085815260200190815260200160002060003373ffffffffffffffffffffffffffffffffffffffff1673ffffffffffffffffffffffffffffffffffffffff16815260200190815260200160002060006101000a81548160ff0219169083151502179055506146fe6001600f54614b5c90919063ffffffff16565b600f819055506002600581111561471157fe5b600c600087815260200190815260200160002060000160149054906101000a900460ff16600581111561474057fe5b5050505092915050565b600060608473ffffffffffffffffffffffffffffffffffffffff1663a9059cbb8585604051602401808373ffffffffffffffffffffffffffffffffffffffff168152602001828152602001925050506040516020818303038152906040529060e01b6020820180517bffffffffffffffffffffffffffffffffffffffffffffffffffffffff83818316178352505050506040518082805190602001908083835b6020831061480d57805182526020820191506020810190506020830392506147ea565b6001836020036101000a0380198251168184511680821785525050505050509050019150506000604051808303816000865af19150503d806000811461486f576040519150601f19603f3d011682016040523d82523d6000602084013e614874565b606091505b50915091508180156148b457506000815114806148b357508080602001905160208110156148a157600080fd5b81019080805190602001909291905050505b5b614926576040517f08c379a000000000000000000000000000000000000000000000000000000000815260040180806020018281038252601f8152602001807f5472616e7366657248656c7065723a205452414e534645525f4641494c45440081525060200191505060405180910390fd5b5050505050565b60008273ffffffffffffffffffffffffffffffffffffffff1682600067ffffffffffffffff8111801561495f57600080fd5b506040519080825280601f01601f1916602001820160405280156149925781602001600182028036833780820191505090505b506040518082805190602001908083835b602083106149c657805182526020820191506020810190506020830392506149a3565b6001836020036101000a03801982511681845116808217855250505050505090500191505060006040518083038185875af1925050503d8060008114614a28576040519150601f19603f3d011682016040523d82523d6000602084013e614a2d565b606091505b5050905080614a87576040517f08c379a00000000000000000000000000000000000000000000000000000000081526004018080602001828103825260238152602001806169e76023913960400191505060405180910390fd5b505050565b600080831415614a9f5760009050614b0c565b6000828402905082848281614ab057fe5b0414614b07576040517f08c379a00000000000000000000000000000000000000000000000000000000081526004018080602001828103825260218152602001806169a16021913960400191505060405180910390fd5b809150505b92915050565b6000614b5483836040518060400160405280601a81526020017f536166654d6174683a206469766973696f6e206279207a65726f00000000000081525061552c565b905092915050565b600080828401905083811015614bda576040517f08c379a000000000000000000000000000000000000000000000000000000000815260040180806020018281038252601b8152602001807f536166654d6174683a206164646974696f6e206f766572666c6f77000000000081525060200191505060405180910390fd5b8091505092915050565b6005600c600083815260200190815260200160002060000160146101000a81548160ff02191690836005811115614c1757fe5b0217905550600c600082815260200190815260200160002060070160009054906101000a900473ffffffffffffffffffffffffffffffffffffffff1673ffffffffffffffffffffffffffffffffffffffff166342842e0e30600c600085815260200190815260200160002060000160009054906101000a900473ffffffffffffffffffffffffffffffffffffffff16846040518463ffffffff1660e01b8152600401808473ffffffffffffffffffffffffffffffffffffffff1681526020018373ffffffffffffffffffffffffffffffffffffffff1681526020018281526020019350505050600060405180830381600087803b158015614d1757600080fd5b505af1158015614d2b573d6000803e3d6000fd5b5050505050565b614d3b816155f2565b600c600083815260200190815260200160002060020160006101000a81548173ffffffffffffffffffffffffffffffffffffffff021916908373ffffffffffffffffffffffffffffffffffffffff16021790555060016005811115614d9c57fe5b600c600083815260200190815260200160002060000160149054906101000a900460ff166005811115614dcb57fe5b50506000614e0d6064614dff600654600c600087815260200190815260200160002060080154614a8c90919063ffffffff16565b614b1290919063ffffffff16565b90506000614e4f6064614e41600754600c600088815260200190815260200160002060080154614a8c90919063ffffffff16565b614b1290919063ffffffff16565b9050600c600084815260200190815260200160002060020160009054906101000a900473ffffffffffffffffffffffffffffffffffffffff1673ffffffffffffffffffffffffffffffffffffffff166340c10f19600c600086815260200190815260200160002060000160009054906101000a900473ffffffffffffffffffffffffffffffffffffffff16846040518363ffffffff1660e01b8152600401808373ffffffffffffffffffffffffffffffffffffffff16815260200182815260200192505050600060405180830381600087803b158015614f2e57600080fd5b505af1158015614f42573d6000803e3d6000fd5b50505050600c600084815260200190815260200160002060020160009054906101000a900473ffffffffffffffffffffffffffffffffffffffff1673ffffffffffffffffffffffffffffffffffffffff166340c10f19600c600086815260200190815260200160002060000160009054906101000a900473ffffffffffffffffffffffffffffffffffffffff16836040518363ffffffff1660e01b8152600401808373ffffffffffffffffffffffffffffffffffffffff16815260200182815260200192505050600060405180830381600087803b15801561502357600080fd5b505af1158015615037573d6000803e3d6000fd5b5050505060006150ca6150a5606461509761507260075461506460065460646150ed90919063ffffffff16565b6150ed90919063ffffffff16565b600c60008a815260200190815260200160002060080154614a8c90919063ffffffff16565b614b1290919063ffffffff16565b600c600087815260200190815260200160002060030154614b1290919063ffffffff16565b905080600c60008681526020019081526020016000206009018190555050505050565b600061512f83836040518060400160405280601e81526020017f536166654d6174683a207375627472616374696f6e206f766572666c6f7700008152506156c5565b905092915050565b600080600260009054906101000a900473ffffffffffffffffffffffffffffffffffffffff1673ffffffffffffffffffffffffffffffffffffffff1663e6a43905600c600086815260200190815260200160002060020160009054906101000a900473ffffffffffffffffffffffffffffffffffffffff167f00000000000000000000000000000000000000000000000000000000000000006040518363ffffffff1660e01b8152600401808373ffffffffffffffffffffffffffffffffffffffff1681526020018273ffffffffffffffffffffffffffffffffffffffff1681526020019250505060206040518083038186803b15801561523757600080fd5b505afa15801561524b573d6000803e3d6000fd5b505050506040513d602081101561526157600080fd5b810190808051906020019092919050505090506000808273ffffffffffffffffffffffffffffffffffffffff16630902f1ac6040518163ffffffff1660e01b815260040160606040518083038186803b1580156152bd57600080fd5b505afa1580156152d1573d6000803e3d6000fd5b505050506040513d60608110156152e757600080fd5b81019080805190602001909291908051906020019092919080519060200190929190505050509150915061533d6001826dffffffffffffffffffffffffffff16846dffffffffffffffffffffffffffff16615785565b9350505050919050565b600060608573ffffffffffffffffffffffffffffffffffffffff166323b872dd868686604051602401808473ffffffffffffffffffffffffffffffffffffffff1681526020018373ffffffffffffffffffffffffffffffffffffffff16815260200182815260200193505050506040516020818303038152906040529060e01b6020820180517bffffffffffffffffffffffffffffffffffffffffffffffffffffffff83818316178352505050506040518082805190602001908083835b602083106154285780518252602082019150602081019050602083039250615405565b6001836020036101000a0380198251168184511680821785525050505050509050019150506000604051808303816000865af19150503d806000811461548a576040519150601f19603f3d011682016040523d82523d6000602084013e61548f565b606091505b50915091508180156154cf57506000815114806154ce57508080602001905160208110156154bc57600080fd5b81019080805190602001909291905050505b5b615524576040517f08c379a0000000000000000000000000000000000000000000000000000000008152600401808060200182810382526024815260200180616a0a6024913960400191505060405180910390fd5b505050505050565b600080831182906155d8576040517f08c379a00000000000000000000000000000000000000000000000000000000081526004018080602001828103825283818151815260200191508051906020019080838360005b8381101561559d578082015181840152602081019050615582565b50505050905090810190601f1680156155ca5780820380516001836020036101000a031916815260200191505b509250505060405180910390fd5b5060008385816155e457fe5b049050809150509392505050565b60006060604051806020016156069061593e565b6020820181038252601f19601f82011660405250905060008360405160200180828152602001915050604051602081830303815290604052805190602001209050808251602084016000f592508273ffffffffffffffffffffffffffffffffffffffff1663fe4b84df856040518263ffffffff1660e01b815260040180828152602001915050600060405180830381600087803b1580156156a657600080fd5b505af11580156156ba573d6000803e3d6000fd5b505050505050919050565b6000838311158290615772576040517f08c379a00000000000000000000000000000000000000000000000000000000081526004018080602001828103825283818151815260200191508051906020019080838360005b8381101561573757808201518184015260208101905061571c565b50505050905090810190601f1680156157645780820380516001836020036101000a031916815260200191505b509250505060405180910390fd5b5060008385039050809150509392505050565b60008084116157df576040517f08c379a00000000000000000000000000000000000000000000000000000000081526004018080602001828103825260258152602001806169c26025913960400191505060405180910390fd5b6000831180156157ef5750600082115b615844576040517f08c379a00000000000000000000000000000000000000000000000000000000081526004018080602001828103825260288152602001806169796028913960400191505060405180910390fd5b826158588386614a8c90919063ffffffff16565b8161585f57fe5b0490509392505050565b6040518060e001604052806000815260200160008152602001600015158152602001600073ffffffffffffffffffffffffffffffffffffffff1681526020016000815260200160008152602001600081525090565b828054600181600116156101000203166002900490600052602060002090601f016020900481019282601f106158ff57805160ff191683800117855561592d565b8280016001018555821561592d579182015b8281111561592c578251825591602001919060010190615911565b5b50905061593a919061594b565b5090565b6110108061596983390190565b5b8082111561596457600081600090555060010161594c565b509056fe608060405234801561001057600080fd5b5033600460006101000a81548173ffffffffffffffffffffffffffffffffffffffff021916908373ffffffffffffffffffffffffffffffffffffffff160217905550610faf806100616000396000f3fe608060405234801561001057600080fd5b50600436106100ea5760003560e01c806370a082311161008c5780639dc29fac116100665780639dc29fac14610414578063a9059cbb14610462578063dd62ed3e146104c6578063fe4b84df1461053e576100ea565b806370a082311461030557806380f556051461035d57806395d89b4114610391576100ea565b806318160ddd116100c857806318160ddd146101f457806323b872dd14610212578063313ce5671461029657806340c10f19146102b7576100ea565b806306fdde03146100ef578063095ea7b31461017257806317d70f7c146101d6575b600080fd5b6100f761056c565b6040518080602001828103825283818151815260200191508051906020019080838360005b8381101561013757808201518184015260208101905061011c565b50505050905090810190601f1680156101645780820380516001836020036101000a031916815260200191505b509250505060405180910390f35b6101be6004803603604081101561018857600080fd5b81019080803573ffffffffffffffffffffffffffffffffffffffff169060200190929190803590602001909291905050506105a5565b60405180821515815260200191505060405180910390f35b6101de6105bc565b6040518082815260200191505060405180910390f35b6101fc6105c2565b6040518082815260200191505060405180910390f35b61027e6004803603606081101561022857600080fd5b81019080803573ffffffffffffffffffffffffffffffffffffffff169060200190929190803573ffffffffffffffffffffffffffffffffffffffff169060200190929190803590602001909291905050506105c8565b60405180821515815260200191505060405180910390f35b61029e610793565b604051808260ff16815260200191505060405180910390f35b610303600480360360408110156102cd57600080fd5b81019080803573ffffffffffffffffffffffffffffffffffffffff16906020019092919080359060200190929190505050610798565b005b6103476004803603602081101561031b57600080fd5b81019080803573ffffffffffffffffffffffffffffffffffffffff1690602001909291905050506107a6565b6040518082815260200191505060405180910390f35b6103656107be565b604051808273ffffffffffffffffffffffffffffffffffffffff16815260200191505060405180910390f35b6103996107e4565b6040518080602001828103825283818151815260200191508051906020019080838360005b838110156103d95780820151818401526020810190506103be565b50505050905090810190601f1680156104065780820380516001836020036101000a031916815260200191505b509250505060405180910390f35b6104606004803603604081101561042a57600080fd5b81019080803573ffffffffffffffffffffffffffffffffffffffff1690602001909291908035906020019092919050505061081d565b005b6104ae6004803603604081101561047857600080fd5b81019080803573ffffffffffffffffffffffffffffffffffffffff1690602001909291908035906020019092919050505061082b565b60405180821515815260200191505060405180910390f35b610528600480360360408110156104dc57600080fd5b81019080803573ffffffffffffffffffffffffffffffffffffffff169060200190929190803573ffffffffffffffffffffffffffffffffffffffff169060200190929190505050610842565b6040518082815260200191505060405180910390f35b61056a6004803603602081101561055457600080fd5b8101908080359060200190929190505050610867565b005b6040518060400160405280600681526020017f4e4654205631000000000000000000000000000000000000000000000000000081525081565b60006105b2338484610934565b6001905092915050565b60035481565b60005481565b60007fffffffffffffffffffffffffffffffffffffffffffffffffffffffffffffffff600260008673ffffffffffffffffffffffffffffffffffffffff1673ffffffffffffffffffffffffffffffffffffffff16815260200190815260200160002060003373ffffffffffffffffffffffffffffffffffffffff1673ffffffffffffffffffffffffffffffffffffffff168152602001908152602001600020541461077d576106fc82600260008773ffffffffffffffffffffffffffffffffffffffff1673ffffffffffffffffffffffffffffffffffffffff16815260200190815260200160002060003373ffffffffffffffffffffffffffffffffffffffff1673ffffffffffffffffffffffffffffffffffffffff16815260200190815260200160002054610a1f90919063ffffffff16565b600260008673ffffffffffffffffffffffffffffffffffffffff1673ffffffffffffffffffffffffffffffffffffffff16815260200190815260200160002060003373ffffffffffffffffffffffffffffffffffffffff1673ffffffffffffffffffffffffffffffffffffffff168152602001908152602001600020819055505b610788848484610a69565b600190509392505050565b601281565b6107a28282610bfd565b5050565b60016020528060005260406000206000915090505481565b600460009054906101000a900473ffffffffffffffffffffffffffffffffffffffff1681565b6040518060400160405280600681526020017f4e46542d5631000000000000000000000000000000000000000000000000000081525081565b6108278282610d17565b5050565b6000610838338484610a69565b6001905092915050565b6002602052816000526040600020602052806000526040600020600091509150505481565b600460009054906101000a900473ffffffffffffffffffffffffffffffffffffffff1673ffffffffffffffffffffffffffffffffffffffff163373ffffffffffffffffffffffffffffffffffffffff161461092a576040517f08c379a00000000000000000000000000000000000000000000000000000000081526004018080602001828103825260098152602001807f464f5242494444454e000000000000000000000000000000000000000000000081525060200191505060405180910390fd5b8060038190555050565b80600260008573ffffffffffffffffffffffffffffffffffffffff1673ffffffffffffffffffffffffffffffffffffffff16815260200190815260200160002060008473ffffffffffffffffffffffffffffffffffffffff1673ffffffffffffffffffffffffffffffffffffffff168152602001908152602001600020819055508173ffffffffffffffffffffffffffffffffffffffff168373ffffffffffffffffffffffffffffffffffffffff167f8c5be1e5ebec7d5bd14f71427d1e84f3dd0314c0f7b2291e5b200ac8c7c3b925836040518082815260200191505060405180910390a3505050565b6000610a6183836040518060400160405280601e81526020017f536166654d6174683a207375627472616374696f6e206f766572666c6f770000815250610e31565b905092915050565b610abb81600160008673ffffffffffffffffffffffffffffffffffffffff1673ffffffffffffffffffffffffffffffffffffffff16815260200190815260200160002054610a1f90919063ffffffff16565b600160008573ffffffffffffffffffffffffffffffffffffffff1673ffffffffffffffffffffffffffffffffffffffff16815260200190815260200160002081905550610b5081600160008573ffffffffffffffffffffffffffffffffffffffff1673ffffffffffffffffffffffffffffffffffffffff16815260200190815260200160002054610ef190919063ffffffff16565b600160008473ffffffffffffffffffffffffffffffffffffffff1673ffffffffffffffffffffffffffffffffffffffff168152602001908152602001600020819055508173ffffffffffffffffffffffffffffffffffffffff168373ffffffffffffffffffffffffffffffffffffffff167fddf252ad1be2c89b69c2b068fc378daa952ba7f163c4a11628f55a4df523b3ef836040518082815260200191505060405180910390a3505050565b610c1281600054610ef190919063ffffffff16565b600081905550610c6a81600160008573ffffffffffffffffffffffffffffffffffffffff1673ffffffffffffffffffffffffffffffffffffffff16815260200190815260200160002054610ef190919063ffffffff16565b600160008473ffffffffffffffffffffffffffffffffffffffff1673ffffffffffffffffffffffffffffffffffffffff168152602001908152602001600020819055508173ffffffffffffffffffffffffffffffffffffffff16600073ffffffffffffffffffffffffffffffffffffffff167fddf252ad1be2c89b69c2b068fc378daa952ba7f163c4a11628f55a4df523b3ef836040518082815260200191505060405180910390a35050565b610d6981600160008573ffffffffffffffffffffffffffffffffffffffff1673ffffffffffffffffffffffffffffffffffffffff16815260200190815260200160002054610a1f90919063ffffffff16565b600160008473ffffffffffffffffffffffffffffffffffffffff1673ffffffffffffffffffffffffffffffffffffffff16815260200190815260200160002081905550610dc181600054610a1f90919063ffffffff16565b600081905550600073ffffffffffffffffffffffffffffffffffffffff168273ffffffffffffffffffffffffffffffffffffffff167fddf252ad1be2c89b69c2b068fc378daa952ba7f163c4a11628f55a4df523b3ef836040518082815260200191505060405180910390a35050565b6000838311158290610ede576040517f08c379a00000000000000000000000000000000000000000000000000000000081526004018080602001828103825283818151815260200191508051906020019080838360005b83811015610ea3578082015181840152602081019050610e88565b50505050905090810190601f168015610ed05780820380516001836020036101000a031916815260200191505b509250505060405180910390fd5b5060008385039050809150509392505050565b600080828401905083811015610f6f576040517f08c379a000000000000000000000000000000000000000000000000000000000815260040180806020018281038252601b8152602001807f536166654d6174683a206164646974696f6e206f766572666c6f77000000000081525060200191505060405180910390fd5b809150509291505056fea26469706673582212208dd218118dab16bdf1d3af18651feb6b06009d4cb9736989194770b08a7fd18e64736f6c634300060c0033556e697377617056324c6962726172793a20494e53554646494349454e545f4c4951554944495459536166654d6174683a206d756c7469706c69636174696f6e206f766572666c6f77556e697377617056324c6962726172793a20494e53554646494349454e545f414d4f554e545472616e7366657248656c7065723a204554485f5452414e534645525f4641494c45445472616e7366657248656c7065723a205452414e534645525f46524f4d5f4641494c4544a26469706673582212205978337445f7c28c4c0a4691ec36654db505a419c97bd2e175e29d3e475d76c164736f6c634300060c0033",
  "immutableReferences": {
    "156": [
      {
        "length": 32,
        "start": 12146
      },
      {
        "length": 32,
        "start": 12507
      },
      {
        "length": 32,
        "start": 13312
      },
      {
        "length": 32,
        "start": 13441
      },
      {
        "length": 32,
        "start": 14451
      },
      {
        "length": 32,
        "start": 16558
      },
      {
        "length": 32,
        "start": 17459
      },
      {
        "length": 32,
        "start": 20913
      }
    ]
  },
  "source": "pragma solidity 0.6.12;\n\nimport \"./interface/IShardsMarket.sol\";\nimport \"./interface/IWETH.sol\";\nimport \"./interface/ISharedToken.sol\";\nimport \"./interface/IUniswapV2Pair.sol\";\nimport \"./interface/ERC721.sol\";\nimport \"./interface/IUniswapV2Factory.sol\";\nimport \"./SharedToken.sol\";\nimport \"./libraries/TransferHelper.sol\";\nimport \"openzeppelin-solidity/contracts/math/SafeMath.sol\";\n\ncontract ShardsMarket {\n    using SafeMath for uint256;\n    //NFT _tokenId\n    uint256[] tokenIds;\n\n    address governance;\n    enum ShardsState {\n        Live,\n        Listed,\n        ApplyforBuyout,\n        Buyout,\n        BuyoutFailed,\n        SubscriptionFailed\n    }\n    address factory;\n    //\n    uint256 totalSupply = 10000;\n\n    address public immutable WETH;\n\n    // 60*60*24*5\n    uint256 deadlineForStaking = 432000;\n    // 60*60*24*7\n    uint256 deadlineForRedeem = 604800;\n    //\n    uint256 shardsCreatorProportion = 5;\n    //\n    uint256 platformProportion = 5;\n\n    //\n    uint256 buyOutProportion = 15;\n    //max\n    uint256 public constant max = 100;\n    //\n    uint256 public buyOutTimes = 2;\n    //shardPoolId\n    uint256 public shardPoolIdCount = 0;\n    //shardpoolId\n    uint256[] public allPools;\n    // Info of each pool.\n    mapping(uint256 => shardPool) public poolInfo;\n    //\n    struct shardPool {\n        address creator; //shard\n        ShardsState state; //shared\n        uint256 createTime; //\n        address shardToken; //token\n        uint256 balanceOfETH; //pool\n        string shardName;\n        string shardSymbol;\n        uint256 minPrice;\n        address nft;\n        uint256 totalSupply;\n        uint256 shardPrice;\n        bool isCreateWithDraw;\n    }\n    //shardpooluser\n    mapping(uint256 => mapping(address => UserInfo)) public userInfo;\n    struct UserInfo {\n        uint256 amount;\n        bool isWithdrawShard;\n    }\n\n    mapping(address => address) public LPToken;\n    //id\n    uint256 public proposolIdCount = 0;\n    // 60*60*24*3\n    uint256 public voteLenth = 259200;\n    //NFTid\n    mapping(uint256 => uint256) public proposalID;\n    //\n    mapping(uint256 => Proposal) public proposals;\n    //\n    mapping(uint256 => mapping(address => bool)) public voted;\n    //\n    mapping(address => mapping(address => uint256)) public blocked;\n    //\n    uint256 public passNeeded = 75;\n\n    struct Proposal {\n        uint256 votesReceived;\n        uint256 voteTotal;\n        bool passed;\n        address submitter;\n        uint256 voteDeadline;\n        uint256 shardAmount;\n        uint256 ETHAmount;\n    }\n\n    constructor(\n        address _WETH,\n        address _factory,\n        address _governance\n    ) public {\n        WETH = _WETH;\n        factory = _factory;\n        governance = _governance;\n    }\n\n    function CreateShareds(\n        address nft,\n        uint256 _tokenId,\n        string memory shardName,\n        string memory shardSymbol,\n        uint256 minPrice\n    ) external returns (uint256 shardPoolId) {\n        require(ERC721(nft).ownerOf(_tokenId) == msg.sender, \"UNAUTHORIZED\");\n        ERC721(nft).safeTransferFrom(msg.sender, address(this), _tokenId);\n        if (shardPoolIdCount == 0) {\n            shardPoolIdCount = 1;\n        }\n        shardPoolId = shardPoolIdCount;\n        poolInfo[_tokenId] = shardPool({\n            creator: msg.sender,\n            state: ShardsState.Live,\n            createTime: block.timestamp,\n            shardToken: address(0),\n            balanceOfETH: 0,\n            shardName: shardName,\n            shardSymbol: shardSymbol,\n            minPrice: minPrice,\n            nft: nft,\n            totalSupply: totalSupply,\n            shardPrice: 0,\n            isCreateWithDraw: false\n        });\n        allPools.push(shardPoolIdCount);\n        shardPoolIdCount = shardPoolIdCount.add(1);\n    }\n\n    function Stake(uint256 _shardPoolId, uint256 amount) external payable {\n        require(\n            block.timestamp <=\n                poolInfo[_shardPoolId].createTime.add(deadlineForStaking),\n            \"NFT:EXPIRED\"\n        );\n        require(\n            poolInfo[_shardPoolId].state == ShardsState.Live,\n            \"NFT:LIVE STATE IS REQUIRED\"\n        );\n        IWETH(WETH).deposit{value: amount}();\n        assert(IWETH(WETH).transfer(address(this), amount));\n        userInfo[_shardPoolId][msg.sender].amount = userInfo[_shardPoolId][msg\n            .sender]\n            .amount\n            .add(amount);\n        poolInfo[_shardPoolId].balanceOfETH = poolInfo[_shardPoolId]\n            .balanceOfETH\n            .add(amount);\n    }\n\n    function Redeem(uint256 _shardPoolId, uint256 amount) external payable {\n        require(\n            block.timestamp <=\n                poolInfo[_shardPoolId].createTime.add(deadlineForRedeem),\n            \"NFT:EXPIRED\"\n        );\n        require(\n            poolInfo[_shardPoolId].state == ShardsState.Live,\n            \"NFT:LIVE STATE IS REQUIRED\"\n        );\n        IWETH(WETH).withdraw(amount);\n        TransferHelper.safeTransferETH(msg.sender, amount);\n        userInfo[_shardPoolId][msg.sender].amount = userInfo[_shardPoolId][msg\n            .sender]\n            .amount\n            .sub(amount);\n        poolInfo[_shardPoolId].balanceOfETH = poolInfo[_shardPoolId]\n            .balanceOfETH\n            .sub(amount);\n    }\n\n    function SetPrice(uint256 _shardPoolId) external {\n        require(\n            block.timestamp >=\n                poolInfo[_shardPoolId].createTime.add(deadlineForRedeem),\n            \"NFT:NOT READY\"\n        );\n        require(\n            poolInfo[_shardPoolId].state == ShardsState.Live,\n            \"NFT:LIVE STATE IS REQUIRED\"\n        );\n        if (\n            poolInfo[_shardPoolId].balanceOfETH <\n            poolInfo[_shardPoolId].minPrice\n        ) {\n            _failToSetPrice(_shardPoolId);\n        } else {\n            _successToSetPrice(_shardPoolId);\n        }\n    }\n\n    function RedeemInSubscriptionFailed(uint256 _shardPoolId) external {\n        require(\n            poolInfo[_shardPoolId].state == ShardsState.SubscriptionFailed,\n            \"WRONG_STATE\"\n        );\n        uint256 balance = userInfo[_shardPoolId][msg.sender].amount;\n        require(balance > 0, \"INSUFFIENT BALANCE\");\n        userInfo[_shardPoolId][msg.sender].amount = 0;\n        poolInfo[_shardPoolId].balanceOfETH = poolInfo[_shardPoolId]\n            .balanceOfETH\n            .sub(balance);\n        IWETH(WETH).withdraw(balance);\n        TransferHelper.safeTransferETH(msg.sender, balance);\n    }\n\n    function WithdrawShardToken(uint256 _shardPoolId) external {\n        require(\n            poolInfo[_shardPoolId].state == ShardsState.Listed,\n            \"WRONG_STATE\"\n        );\n        uint256 userETH = userInfo[_shardPoolId][msg.sender].amount;\n        bool isWithdrawShard = userInfo[_shardPoolId][msg.sender]\n            .isWithdrawShard;\n        require(userETH > 0 && !isWithdrawShard, \"INSUFFIENT BALANCE\");\n        uint256 shardsForUsers = poolInfo[_shardPoolId]\n            .totalSupply\n            .mul(max.sub(shardsCreatorProportion).sub(platformProportion))\n            .div(max);\n        uint256 totalETH = poolInfo[_shardPoolId].balanceOfETH;\n\n        uint256 shardAmount = userETH.mul(shardsForUsers).div(totalETH);\n        userInfo[_shardPoolId][msg.sender].isWithdrawShard = true;\n        ISharedToken(poolInfo[_shardPoolId].shardToken).mint(\n            msg.sender,\n            shardAmount\n        );\n    }\n\n    function CreatorWithdrawETH(uint256 _shardPoolId) external {\n        require(msg.sender == poolInfo[_shardPoolId].creator, \"UNAUTHORIZED\");\n        require(\n            poolInfo[_shardPoolId].state == ShardsState.Listed,\n            \"WRONG_STATE\"\n        );\n        require(!poolInfo[_shardPoolId].isCreateWithDraw, \"ALREADY WITHDRAW\");\n        uint256 totalETH = poolInfo[_shardPoolId].balanceOfETH;\n        // uint256 platformAmount = poolInfo[_shardPoolId]\n        //     .totalSupply\n        //     .mul(platformProportion)\n        //     .div(max);\n        uint256 platformAmount = ISharedToken(poolInfo[_shardPoolId].shardToken)\n            .balanceOf(address(this));\n        uint256 fee = poolInfo[_shardPoolId].shardPrice.mul(platformAmount);\n        uint256 amount = totalETH.sub(fee);\n        poolInfo[_shardPoolId].isCreateWithDraw = true;\n        IWETH(WETH).withdraw(amount);\n        TransferHelper.safeTransferETH(msg.sender, amount);\n    }\n\n    function BuyOut(uint256 _shardPoolId, uint256 ETHAmount)\n        external\n        returns (uint256 proposalId)\n    {\n        uint256 shardBalance = ISharedToken(poolInfo[_shardPoolId].shardToken)\n            .balanceOf(msg.sender);\n        require(\n            shardBalance >= totalSupply.mul(buyOutProportion).div(max),\n            \"INSUFFIENT BALANCE\"\n        );\n        require(\n            poolInfo[_shardPoolId].state == ShardsState.Live,\n            \"LIVE STATE IS REQUIRED\"\n        );\n        uint256 currentPrice = getPrice(_shardPoolId);\n        require(\n            ETHAmount >=\n                max.sub(buyOutProportion).mul(totalSupply).mul(currentPrice),\n            \"INSUFFICIENT ETHAMOUNT\"\n        );\n\n        TransferHelper.safeTransferFrom(\n            WETH,\n            msg.sender,\n            address(this),\n            ETHAmount\n        );\n        TransferHelper.safeTransferFrom(\n            poolInfo[_shardPoolId].shardToken,\n            msg.sender,\n            address(this),\n            shardBalance\n        );\n        if (proposolIdCount == 0) {\n            proposolIdCount = 1;\n        }\n        proposalId = proposolIdCount;\n        proposals[proposolIdCount] = Proposal({\n            votesReceived: 0,\n            voteTotal: 0,\n            passed: false,\n            submitter: msg.sender,\n            voteDeadline: block.timestamp.add(voteLenth),\n            shardAmount: shardBalance,\n            ETHAmount: ETHAmount\n        });\n\n        blocked[poolInfo[_shardPoolId].shardToken][msg.sender] = proposalId;\n        voted[proposalId][msg.sender] = true;\n        proposolIdCount = proposolIdCount.add(1);\n        poolInfo[_shardPoolId].state == ShardsState.ApplyforBuyout;\n    }\n\n    function Vote(uint256 _shardPoolId, bool isAgree) external {\n        uint256 balance = ISharedToken(poolInfo[_shardPoolId].shardToken)\n            .balanceOf(msg.sender);\n        require(balance >= 0, \"INSUFFICIENT VOTERIGHT\");\n        require(\n            poolInfo[_shardPoolId].state == ShardsState.ApplyforBuyout,\n            \"WRONG STATE\"\n        );\n        uint256 id = proposalID[_shardPoolId];\n        Proposal memory p = proposals[id];\n        require(block.timestamp <= p.voteDeadline, \"EXPIRED\");\n        require(voted[id][msg.sender] == false);\n        blocked[poolInfo[_shardPoolId].shardToken][msg.sender] = id;\n        voted[id][msg.sender] == true;\n        if (isAgree) {\n            p.votesReceived = p.votesReceived.add(balance);\n            p.voteTotal = p.voteTotal.add(balance);\n        } else {\n            p.voteTotal = p.voteTotal.add(balance);\n        }\n    }\n\n    function VoteResultComfirm(uint256 _shardPoolId)\n        external\n        returns (bool result)\n    {\n        uint256 id = proposalID[_shardPoolId];\n        Proposal memory p = proposals[id];\n        require(msg.sender == p.submitter, \"UNAUTHORIZED\");\n        require(block.timestamp >= p.voteDeadline, \"NOT READY\");\n        require(\n            poolInfo[_shardPoolId].state == ShardsState.ApplyforBuyout,\n            \"WRONG STATE\"\n        );\n        if (p.votesReceived >= p.voteTotal.mul(passNeeded).div(max)) {\n            p.passed = true;\n            result = true;\n            poolInfo[_shardPoolId].state == ShardsState.Buyout;\n            ShardToken(poolInfo[_shardPoolId].shardToken).burn(\n                msg.sender,\n                p.shardAmount\n            );\n            ERC721(poolInfo[_shardPoolId].nft).safeTransferFrom(\n                address(this),\n                msg.sender,\n                _shardPoolId\n            );\n        } else {\n            p.passed = false;\n            result = false;\n            poolInfo[_shardPoolId].state == ShardsState.BuyoutFailed;\n        }\n    }\n\n    function ExchangeForETH(uint256 _shardPoolId, uint256 shardAmount)\n        external\n        returns (uint256 ETHAmount)\n    {\n        uint256 id = proposalID[_shardPoolId];\n        Proposal memory p = proposals[id];\n        require(\n            poolInfo[_shardPoolId].state == ShardsState.Buyout,\n            \"WRONG STATE\"\n        );\n\n        ShardToken(poolInfo[_shardPoolId].shardToken).burn(\n            msg.sender,\n            shardAmount\n        );\n\n        uint256 amount = shardAmount.mul(p.ETHAmount).div(\n            totalSupply.sub(p.shardAmount)\n        );\n        TransferHelper.safeTransferETH(msg.sender, amount);\n    }\n\n    function RedeemForBuyoutFailed(uint256 _shardPoolId)\n        external\n        returns (uint256 shardTokenAmount, uint256 ETHAmount)\n    {\n        uint256 id = proposalID[_shardPoolId];\n        Proposal memory p = proposals[id];\n        require(msg.sender == p.submitter, \"UNAUTHORIZED\");\n        require(\n            poolInfo[_shardPoolId].state == ShardsState.BuyoutFailed &&\n                p.passed == false,\n            \"WRONG_STATE\"\n        );\n        TransferHelper.safeTransfer(\n            poolInfo[_shardPoolId].shardToken,\n            msg.sender,\n            p.shardAmount\n        );\n        TransferHelper.safeTransferETH(msg.sender, p.ETHAmount);\n\n        poolInfo[_shardPoolId].state == ShardsState.Live;\n    }\n\n    function quote(\n        uint256 amountA,\n        uint256 reserveA,\n        uint256 reserveB\n    ) internal pure returns (uint256 amountB) {\n        require(amountA > 0, \"UniswapV2Library: INSUFFICIENT_AMOUNT\");\n        require(\n            reserveA > 0 && reserveB > 0,\n            \"UniswapV2Library: INSUFFICIENT_LIQUIDITY\"\n        );\n        amountB = amountA.mul(reserveB) / reserveA;\n    }\n\n    function getPrice(uint256 _shardPoolId)\n        internal\n        returns (uint256 currentPrice)\n    {\n        address lPTokenAddress = IUniswapV2Factory(factory).getPair(\n            poolInfo[_shardPoolId].shardToken,\n            WETH\n        );\n        (uint112 _reserve0, uint112 _reserve1, ) = IUniswapV2Pair(\n            lPTokenAddress\n        )\n            .getReserves();\n        currentPrice = quote(1, _reserve1, _reserve0);\n    }\n\n    //view\n\n    function _failToSetPrice(uint256 _shardPoolId) private {\n        poolInfo[_shardPoolId].state = ShardsState.SubscriptionFailed;\n        ERC721(poolInfo[_shardPoolId].nft).safeTransferFrom(\n            address(this),\n            poolInfo[_shardPoolId].creator,\n            _shardPoolId\n        );\n    }\n\n    function _successToSetPrice(uint256 _shardPoolId) private {\n        poolInfo[_shardPoolId].shardToken = _deployShardsToken(_shardPoolId);\n        poolInfo[_shardPoolId].state == ShardsState.Listed;\n        uint256 creatorAmount = poolInfo[_shardPoolId]\n            .totalSupply\n            .mul(shardsCreatorProportion)\n            .div(max);\n        uint256 platformAmount = poolInfo[_shardPoolId]\n            .totalSupply\n            .mul(platformProportion)\n            .div(max);\n        ISharedToken(poolInfo[_shardPoolId].shardToken).mint(\n            poolInfo[_shardPoolId].creator,\n            creatorAmount\n        );\n        ISharedToken(poolInfo[_shardPoolId].shardToken).mint(\n            poolInfo[_shardPoolId].creator,\n            platformAmount\n        );\n        uint256 shardPrice = poolInfo[_shardPoolId].balanceOfETH.div(\n            poolInfo[_shardPoolId]\n                .totalSupply\n                .mul(max.sub(shardsCreatorProportion).sub(platformProportion))\n                .div(max)\n        );\n        poolInfo[_shardPoolId].shardPrice = shardPrice;\n    }\n\n    function SetDeadlineForStaking(uint256 _deadlineForStaking) external {\n        require(msg.sender == governance, \"UNAUTHORIZED\");\n        deadlineForStaking = _deadlineForStaking;\n    }\n\n    function SetDeadlineForRedeem(uint256 _deadlineForRedeem) external {\n        require(msg.sender == governance, \"UNAUTHORIZED\");\n        deadlineForRedeem = _deadlineForRedeem;\n    }\n\n    function SetShardsCreatorProportion(uint256 _shardsCreatorProportion)\n        external\n    {\n        require(msg.sender == governance, \"UNAUTHORIZED\");\n        shardsCreatorProportion = _shardsCreatorProportion;\n    }\n\n    function SetPlatformProportion(uint256 _platformProportion) external {\n        require(msg.sender == governance, \"UNAUTHORIZED\");\n        platformProportion = _platformProportion;\n    }\n\n    function SetBuyOutProportion(uint256 _buyOutProportion) external {\n        require(msg.sender == governance, \"UNAUTHORIZED\");\n        buyOutProportion = _buyOutProportion;\n    }\n\n    function SetBuyOutTimes(uint256 _buyOutTimes) external {\n        require(msg.sender == governance, \"UNAUTHORIZED\");\n        buyOutTimes = _buyOutTimes;\n    }\n\n    function SetVoteLenth(uint256 _voteLenth) external {\n        require(msg.sender == governance, \"UNAUTHORIZED\");\n        voteLenth = _voteLenth;\n    }\n\n    function SetPassNeeded(uint256 _passNeeded) external {\n        require(msg.sender == governance, \"UNAUTHORIZED\");\n        passNeeded = _passNeeded;\n    }\n\n    function SetTotalSupply(uint256 _totalSupply) external {\n        require(msg.sender == governance, \"UNAUTHORIZED\");\n        totalSupply = _totalSupply;\n    }\n\n    function _deployShardsToken(uint256 _shardPoolId)\n        private\n        returns (address token)\n    {\n        bytes memory bytecode = type(ShardToken).creationCode;\n        bytes32 salt = keccak256(abi.encodePacked(_shardPoolId));\n        assembly {\n            token := create2(0, add(bytecode, 32), mload(bytecode), salt)\n        }\n        ISharedToken(token).initialize(_shardPoolId);\n    }\n}\n",
  "sourcePath": "/Users/admin/myproject/NFT/contracts/ShardsMarket.sol",
  "compiler": {
    "name": "solc",
    "version": "0.6.12+commit.27d51765.Emscripten.clang"
  },
  "schemaVersion": "3.2.5",
  "updatedAt": "2020-10-28T15:17:51.004Z",
  "devdoc": {
    "kind": "dev",
    "methods": {},
    "version": 1
  },
  "userdoc": {
    "kind": "user",
    "methods": {},
    "version": 1
  }
}